{
  "contractName": "Crop",
  "abi": [
    {
      "inputs": [
        {
          "internalType": "address",
          "name": "creator",
          "type": "address"
        }
      ],
      "stateMutability": "nonpayable",
      "type": "constructor"
    },
    {
      "inputs": [],
      "name": "amtRaised",
      "outputs": [
        {
          "internalType": "uint256",
          "name": "",
          "type": "uint256"
        }
      ],
      "stateMutability": "view",
      "type": "function"
    },
    {
      "inputs": [],
      "name": "farmer",
      "outputs": [
        {
          "internalType": "address",
          "name": "",
          "type": "address"
        }
      ],
      "stateMutability": "view",
      "type": "function"
    },
    {
      "inputs": [
        {
          "internalType": "address",
          "name": "",
          "type": "address"
        }
      ],
      "name": "investAmt",
      "outputs": [
        {
          "internalType": "uint256",
          "name": "",
          "type": "uint256"
        }
      ],
      "stateMutability": "view",
      "type": "function"
    },
    {
      "inputs": [
        {
          "internalType": "uint256",
          "name": "",
          "type": "uint256"
        }
      ],
      "name": "investedPercent",
      "outputs": [
        {
          "internalType": "uint256",
          "name": "",
          "type": "uint256"
        }
      ],
      "stateMutability": "view",
      "type": "function"
    },
    {
      "inputs": [
        {
          "internalType": "uint256",
          "name": "",
          "type": "uint256"
        }
      ],
      "name": "investors",
      "outputs": [
        {
          "internalType": "address",
          "name": "",
          "type": "address"
        }
      ],
      "stateMutability": "view",
      "type": "function"
    },
    {
      "inputs": [
        {
          "internalType": "uint256",
          "name": "",
          "type": "uint256"
        }
      ],
      "name": "investorsAddress",
      "outputs": [
        {
          "internalType": "address",
          "name": "",
          "type": "address"
        }
      ],
      "stateMutability": "view",
      "type": "function"
    },
    {
      "inputs": [],
      "name": "minInvestment",
      "outputs": [
        {
          "internalType": "uint256",
          "name": "",
          "type": "uint256"
        }
      ],
      "stateMutability": "view",
      "type": "function"
    },
    {
      "inputs": [],
      "name": "reputation",
      "outputs": [
        {
          "internalType": "uint256",
          "name": "",
          "type": "uint256"
        }
      ],
      "stateMutability": "view",
      "type": "function"
    },
    {
      "inputs": [],
      "name": "requestNo",
      "outputs": [
        {
          "internalType": "uint256",
          "name": "",
          "type": "uint256"
        }
      ],
      "stateMutability": "view",
      "type": "function"
    },
    {
      "inputs": [
        {
          "internalType": "uint256",
          "name": "",
          "type": "uint256"
        }
      ],
      "name": "requests",
      "outputs": [
        {
          "internalType": "string",
          "name": "description",
          "type": "string"
        },
        {
          "internalType": "uint256",
          "name": "amount",
          "type": "uint256"
        },
        {
          "internalType": "uint256",
          "name": "no_of_days",
          "type": "uint256"
        },
        {
          "internalType": "address payable",
          "name": "receiver",
          "type": "address"
        },
        {
          "internalType": "uint256",
          "name": "expirydate",
          "type": "uint256"
        },
        {
          "internalType": "uint256",
          "name": "investorsCount",
          "type": "uint256"
        },
        {
          "internalType": "bool",
          "name": "complete",
          "type": "bool"
        }
      ],
      "stateMutability": "view",
      "type": "function"
    },
    {
      "inputs": [],
      "name": "returned",
      "outputs": [
        {
          "internalType": "bool",
          "name": "",
          "type": "bool"
        }
      ],
      "stateMutability": "view",
      "type": "function"
    },
    {
      "inputs": [],
      "name": "verified",
      "outputs": [
        {
          "internalType": "bool",
          "name": "",
          "type": "bool"
        }
      ],
      "stateMutability": "view",
      "type": "function"
    },
    {
      "inputs": [
        {
          "internalType": "address",
          "name": "_address",
          "type": "address"
        }
      ],
      "name": "setAddress",
      "outputs": [],
      "stateMutability": "nonpayable",
      "type": "function"
    },
    {
      "inputs": [],
      "name": "investment",
      "outputs": [],
      "stateMutability": "payable",
      "type": "function"
    },
    {
      "inputs": [
        {
          "internalType": "uint256",
          "name": "requestID",
          "type": "uint256"
        }
      ],
      "name": "investorCount",
      "outputs": [
        {
          "internalType": "uint256",
          "name": "",
          "type": "uint256"
        }
      ],
      "stateMutability": "view",
      "type": "function"
    },
    {
      "inputs": [
        {
          "internalType": "string",
          "name": "description",
          "type": "string"
        },
        {
          "internalType": "uint256",
          "name": "amount",
          "type": "uint256"
        },
        {
          "internalType": "uint256",
          "name": "no_of_days",
          "type": "uint256"
        },
        {
          "internalType": "address payable",
          "name": "receiver",
          "type": "address"
        }
      ],
      "name": "createRequest",
      "outputs": [],
      "stateMutability": "nonpayable",
      "type": "function"
    },
    {
      "inputs": [],
      "name": "finalizeRequest",
      "outputs": [],
      "stateMutability": "payable",
      "type": "function"
    },
    {
      "inputs": [],
      "name": "getSummary",
      "outputs": [
        {
          "internalType": "uint256[]",
          "name": "",
          "type": "uint256[]"
        },
        {
          "internalType": "address[]",
          "name": "",
          "type": "address[]"
        },
        {
          "internalType": "uint256",
          "name": "",
          "type": "uint256"
        },
        {
          "internalType": "uint256",
          "name": "",
          "type": "uint256"
        },
        {
          "internalType": "uint256",
          "name": "",
          "type": "uint256"
        },
        {
          "internalType": "uint256",
          "name": "",
          "type": "uint256"
        },
        {
          "internalType": "bool",
          "name": "",
          "type": "bool"
        },
        {
          "internalType": "bool",
          "name": "",
          "type": "bool"
        },
        {
          "internalType": "address",
          "name": "",
          "type": "address"
        }
      ],
      "stateMutability": "view",
      "type": "function"
    },
    {
      "inputs": [],
      "name": "getInvestPercentage",
      "outputs": [],
      "stateMutability": "nonpayable",
      "type": "function"
    },
    {
      "inputs": [],
      "name": "retInvestPercentage",
      "outputs": [
        {
          "internalType": "uint256[]",
          "name": "",
          "type": "uint256[]"
        }
      ],
      "stateMutability": "view",
      "type": "function"
    },
    {
      "inputs": [],
      "name": "retInvestAddress",
      "outputs": [
        {
          "internalType": "address[]",
          "name": "",
          "type": "address[]"
        }
      ],
      "stateMutability": "view",
      "type": "function"
    },
    {
      "inputs": [],
      "name": "resetInvestedPercentAndInvestorsAddress",
      "outputs": [],
      "stateMutability": "nonpayable",
      "type": "function"
    }
  ],
  "bytecode": "0x60806040526000600255600160035560006004556000600560006101000a81548160ff0219169083151502179055506000600560016101000a81548160ff0219169083151502179055506000600b553480156200005b57600080fd5b5060405162001fd238038062001fd28339818101604052810190620000819190620000e0565b80600a60006101000a81548173ffffffffffffffffffffffffffffffffffffffff021916908373ffffffffffffffffffffffffffffffffffffffff160217905550506200015a565b600081519050620000da8162000140565b92915050565b600060208284031215620000f357600080fd5b60006200010384828501620000c9565b91505092915050565b6000620001198262000120565b9050919050565b600073ffffffffffffffffffffffffffffffffffffffff82169050919050565b6200014b816200010c565b81146200015757600080fd5b50565b611e68806200016a6000396000f3fe6080604052600436106101355760003560e01c806399bd3600116100ab578063d15012061161006f578063d1501206146103ea578063d811fcf014610413578063dce5f2771461043e578063e30081a01461047b578063e391f55a146104a4578063f8c29fc4146104bb57610135565b806399bd3600146103485780639b09c64414610352578063bbb82d891461037d578063c52164c6146103a8578063c57480d8146103d357610135565b8063509cfe42116100fd578063509cfe421461020a5780636c1f7952146102475780636cb764081461027257806381d12c581461029d5780638ac2c680146102e057806390a59e521461030b57610135565b80631344aec91461013a5780631bbadccc146101655780633feb5f2b146101905780634051ddac146101cd57806345fbfbca14610200575b600080fd5b34801561014657600080fd5b5061014f6104f8565b60405161015c91906119ad565b60405180910390f35b34801561017157600080fd5b5061017a6104fe565b604051610187919061183d565b60405180910390f35b34801561019c57600080fd5b506101b760048036038101906101b29190611651565b61058c565b6040516101c49190611822565b60405180910390f35b3480156101d957600080fd5b506101e26105bf565b6040516101f799989796959493929190611881565b60405180910390f35b610208610718565b005b34801561021657600080fd5b50610231600480360381019061022c9190611651565b61087d565b60405161023e91906119ad565b60405180910390f35b34801561025357600080fd5b5061025c6108a1565b60405161026991906119ad565b60405180910390f35b34801561027e57600080fd5b506102876108a7565b604051610294919061191c565b60405180910390f35b3480156102a957600080fd5b506102c460048036038101906102bf9190611651565b6108ba565b6040516102d79796959493929190611937565b60405180910390f35b3480156102ec57600080fd5b506102f56109c1565b60405161030291906119ad565b60405180910390f35b34801561031757600080fd5b50610332600480360381019061032d9190611584565b6109c7565b60405161033f91906119ad565b60405180910390f35b6103506109df565b005b34801561035e57600080fd5b50610367610b39565b604051610374919061185f565b60405180910390f35b34801561038957600080fd5b50610392610b91565b60405161039f919061191c565b60405180910390f35b3480156103b457600080fd5b506103bd610ba4565b6040516103ca91906119ad565b60405180910390f35b3480156103df57600080fd5b506103e8610baa565b005b3480156103f657600080fd5b50610411600480360381019061040c91906115d6565b610d89565b005b34801561041f57600080fd5b506104286111d4565b6040516104359190611822565b60405180910390f35b34801561044a57600080fd5b5061046560048036038101906104609190611651565b6111fa565b6040516104729190611822565b60405180910390f35b34801561048757600080fd5b506104a2600480360381019061049d9190611584565b611239565b005b3480156104b057600080fd5b506104b961127c565b005b3480156104c757600080fd5b506104e260048036038101906104dd9190611651565b6113b6565b6040516104ef91906119ad565b60405180910390f35b60025481565b6060600780548060200260200160405190810160405280929190818152602001828054801561058257602002820191906000526020600020905b8160009054906101000a900473ffffffffffffffffffffffffffffffffffffffff1673ffffffffffffffffffffffffffffffffffffffff1681526020019060010190808311610538575b5050505050905090565b60086020528060005260406000206000915054906101000a900473ffffffffffffffffffffffffffffffffffffffff1681565b60608060008060008060008060006006600760035447600180549050600454600560019054906101000a900460ff16600560009054906101000a900460ff16600a60009054906101000a900473ffffffffffffffffffffffffffffffffffffffff168880548060200260200160405190810160405280929190818152602001828054801561066c57602002820191906000526020600020905b815481526020019060010190808311610658575b50505050509850878054806020026020016040519081016040528092919081815260200182805480156106f457602002820191906000526020600020905b8160009054906101000a900473ffffffffffffffffffffffffffffffffffffffff1673ffffffffffffffffffffffffffffffffffffffff16815260200190600101908083116106aa575b50505050509750985098509850985098509850985098509850909192939495969798565b6000600180600b5461072a9190611b8d565b81548110610761577f4e487b7100000000000000000000000000000000000000000000000000000000600052603260045260246000fd5b90600052602060002090600702019050600015158160060160009054906101000a900460ff1615151461079357600080fd5b806004015442106107a357600080fd5b6003543410156107b257600080fd5b346002546107c09190611aac565b60028190555033600860008360050154815260200190815260200160002060006101000a81548173ffffffffffffffffffffffffffffffffffffffff021916908373ffffffffffffffffffffffffffffffffffffffff16021790555080600501600081548092919061083190611cc0565b919050555034600960003373ffffffffffffffffffffffffffffffffffffffff1673ffffffffffffffffffffffffffffffffffffffff1681526020019081526020016000208190555050565b6006818154811061088d57600080fd5b906000526020600020016000915090505481565b600b5481565b600560009054906101000a900460ff1681565b600181815481106108ca57600080fd5b90600052602060002090600702016000915090508060000180546108ed90611c5d565b80601f016020809104026020016040519081016040528092919081815260200182805461091990611c5d565b80156109665780601f1061093b57610100808354040283529160200191610966565b820191906000526020600020905b81548152906001019060200180831161094957829003601f168201915b5050505050908060010154908060020154908060030160009054906101000a900473ffffffffffffffffffffffffffffffffffffffff16908060040154908060050154908060060160009054906101000a900460ff16905087565b60035481565b60096020528060005260406000206000915090505481565b600a60009054906101000a900473ffffffffffffffffffffffffffffffffffffffff1673ffffffffffffffffffffffffffffffffffffffff163373ffffffffffffffffffffffffffffffffffffffff1614610a3957600080fd5b6000600180600b54610a4b9190611b8d565b81548110610a82577f4e487b7100000000000000000000000000000000000000000000000000000000600052603260045260246000fd5b906000526020600020906007020190508060060160009054906101000a900460ff1615610aae57600080fd5b8060030160009054906101000a900473ffffffffffffffffffffffffffffffffffffffff1673ffffffffffffffffffffffffffffffffffffffff166108fc479081150290604051600060405180830381858888f19350505050158015610b18573d6000803e3d6000fd5b5060018160060160006101000a81548160ff02191690831515021790555050565b60606006805480602002602001604051908101604052809291908181526020018280548015610b8757602002820191906000526020600020905b815481526020019060010190808311610b73575b5050505050905090565b600560019054906101000a900460ff1681565b60045481565b600080600080600180600b54610bc09190611b8d565b81548110610bf7577f4e487b7100000000000000000000000000000000000000000000000000000000600052603260045260246000fd5b90600052602060002090600702019050600091505b8060050154821015610d7b5760076008600084815260200190815260200160002060009054906101000a900473ffffffffffffffffffffffffffffffffffffffff169080600181540180825580915050600190039060005260206000200160009091909190916101000a81548173ffffffffffffffffffffffffffffffffffffffff021916908373ffffffffffffffffffffffffffffffffffffffff160217905550600960006008600085815260200190815260200160002060009054906101000a900473ffffffffffffffffffffffffffffffffffffffff1673ffffffffffffffffffffffffffffffffffffffff1673ffffffffffffffffffffffffffffffffffffffff168152602001908152602001600020549350600254606485610d339190611b33565b610d3d9190611b02565b925060068390806001815401808255809150506001900390600052602060002001600090919091909150558180610d7390611cc0565b925050610c0c565b600060028190555050505050565b600a60009054906101000a900473ffffffffffffffffffffffffffffffffffffffff1673ffffffffffffffffffffffffffffffffffffffff163373ffffffffffffffffffffffffffffffffffffffff1614610de357600080fd5b60008054906101000a900473ffffffffffffffffffffffffffffffffffffffff1673ffffffffffffffffffffffffffffffffffffffff1663fc2ebd416040518163ffffffff1660e01b8152600401602060405180830381600087803b158015610e4b57600080fd5b505af1158015610e5f573d6000803e3d6000fd5b505050506040513d601f19601f82011682018060405250810190610e83919061167a565b6004819055506000600b541115610f7f5760008054906101000a900473ffffffffffffffffffffffffffffffffffffffff1673ffffffffffffffffffffffffffffffffffffffff1663be05eff56040518163ffffffff1660e01b815260040160206040518083038186803b158015610efa57600080fd5b505afa158015610f0e573d6000803e3d6000fd5b505050506040513d601f19601f82011682018060405250810190610f3291906115ad565b600560006101000a81548160ff021916908315150217905550602860045411610f5a57600080fd5b60011515600560009054906101000a900460ff16151514610f7a57600080fd5b611059565b60008054906101000a900473ffffffffffffffffffffffffffffffffffffffff1673ffffffffffffffffffffffffffffffffffffffff16634ffe2a8b6040518163ffffffff1660e01b8152600401602060405180830381600087803b158015610fe757600080fd5b505af1158015610ffb573d6000803e3d6000fd5b505050506040513d601f19601f8201168201806040525081019061101f91906115ad565b600560016101000a81548160ff02191690831515021790555060011515600560019054906101000a900460ff1615151461105857600080fd5b5b60006040518060e001604052808681526020018581526020018481526020018373ffffffffffffffffffffffffffffffffffffffff16815260200184620151806110a39190611b33565b426110ae9190611aac565b8152602001600081526020016000151581525090506001819080600181540180825580915050600190039060005260206000209060070201600090919091909150600082015181600001908051906020019061110b929190611410565b50602082015181600101556040820151816002015560608201518160030160006101000a81548173ffffffffffffffffffffffffffffffffffffffff021916908373ffffffffffffffffffffffffffffffffffffffff1602179055506080820151816004015560a0820151816005015560c08201518160060160006101000a81548160ff02191690831515021790555050506001600b546111ac9190611aac565b600b819055506000600560006101000a81548160ff0219169083151502179055505050505050565b600a60009054906101000a900473ffffffffffffffffffffffffffffffffffffffff1681565b6007818154811061120a57600080fd5b906000526020600020016000915054906101000a900473ffffffffffffffffffffffffffffffffffffffff1681565b806000806101000a81548173ffffffffffffffffffffffffffffffffffffffff021916908373ffffffffffffffffffffffffffffffffffffffff16021790555050565b6000600180600b5461128e9190611b8d565b815481106112c5577f4e487b7100000000000000000000000000000000000000000000000000000000600052603260045260246000fd5b9060005260206000209060070201905060005b81600501548110156113b257600680548061131c577f4e487b7100000000000000000000000000000000000000000000000000000000600052603160045260246000fd5b60019003818190600052602060002001600090559055600780548061136a577f4e487b7100000000000000000000000000000000000000000000000000000000600052603160045260246000fd5b6001900381819060005260206000200160006101000a81549073ffffffffffffffffffffffffffffffffffffffff0219169055905580806113aa90611cc0565b9150506112d8565b5050565b600080600183815481106113f3577f4e487b7100000000000000000000000000000000000000000000000000000000600052603260045260246000fd5b906000526020600020906007020190508060050154915050919050565b82805461141c90611c5d565b90600052602060002090601f01602090048101928261143e5760008555611485565b82601f1061145757805160ff1916838001178555611485565b82800160010185558215611485579182015b82811115611484578251825591602001919060010190611469565b5b5090506114929190611496565b5090565b5b808211156114af576000816000905550600101611497565b5090565b60006114c66114c1846119ed565b6119c8565b9050828152602081018484840111156114de57600080fd5b6114e9848285611c1b565b509392505050565b60008135905061150081611dd6565b92915050565b60008135905061151581611ded565b92915050565b60008151905061152a81611e04565b92915050565b600082601f83011261154157600080fd5b81356115518482602086016114b3565b91505092915050565b60008135905061156981611e1b565b92915050565b60008151905061157e81611e1b565b92915050565b60006020828403121561159657600080fd5b60006115a4848285016114f1565b91505092915050565b6000602082840312156115bf57600080fd5b60006115cd8482850161151b565b91505092915050565b600080600080608085870312156115ec57600080fd5b600085013567ffffffffffffffff81111561160657600080fd5b61161287828801611530565b94505060206116238782880161155a565b93505060406116348782880161155a565b925050606061164587828801611506565b91505092959194509250565b60006020828403121561166357600080fd5b60006116718482850161155a565b91505092915050565b60006020828403121561168c57600080fd5b600061169a8482850161156f565b91505092915050565b60006116af83836116e2565b60208301905092915050565b60006116c78383611804565b60208301905092915050565b6116dc81611bd3565b82525050565b6116eb81611bc1565b82525050565b6116fa81611bc1565b82525050565b600061170b82611a3e565b6117158185611a79565b935061172083611a1e565b8060005b8381101561175157815161173888826116a3565b975061174383611a5f565b925050600181019050611724565b5085935050505092915050565b600061176982611a49565b6117738185611a8a565b935061177e83611a2e565b8060005b838110156117af57815161179688826116bb565b97506117a183611a6c565b925050600181019050611782565b5085935050505092915050565b6117c581611be5565b82525050565b60006117d682611a54565b6117e08185611a9b565b93506117f0818560208601611c2a565b6117f981611dc5565b840191505092915050565b61180d81611c11565b82525050565b61181c81611c11565b82525050565b600060208201905061183760008301846116f1565b92915050565b600060208201905081810360008301526118578184611700565b905092915050565b60006020820190508181036000830152611879818461175e565b905092915050565b600061012082019050818103600083015261189c818c61175e565b905081810360208301526118b0818b611700565b90506118bf604083018a611813565b6118cc6060830189611813565b6118d96080830188611813565b6118e660a0830187611813565b6118f360c08301866117bc565b61190060e08301856117bc565b61190e6101008301846116f1565b9a9950505050505050505050565b600060208201905061193160008301846117bc565b92915050565b600060e0820190508181036000830152611951818a6117cb565b90506119606020830189611813565b61196d6040830188611813565b61197a60608301876116d3565b6119876080830186611813565b61199460a0830185611813565b6119a160c08301846117bc565b98975050505050505050565b60006020820190506119c26000830184611813565b92915050565b60006119d26119e3565b90506119de8282611c8f565b919050565b6000604051905090565b600067ffffffffffffffff821115611a0857611a07611d96565b5b611a1182611dc5565b9050602081019050919050565b6000819050602082019050919050565b6000819050602082019050919050565b600081519050919050565b600081519050919050565b600081519050919050565b6000602082019050919050565b6000602082019050919050565b600082825260208201905092915050565b600082825260208201905092915050565b600082825260208201905092915050565b6000611ab782611c11565b9150611ac283611c11565b9250827fffffffffffffffffffffffffffffffffffffffffffffffffffffffffffffffff03821115611af757611af6611d09565b5b828201905092915050565b6000611b0d82611c11565b9150611b1883611c11565b925082611b2857611b27611d38565b5b828204905092915050565b6000611b3e82611c11565b9150611b4983611c11565b9250817fffffffffffffffffffffffffffffffffffffffffffffffffffffffffffffffff0483118215151615611b8257611b81611d09565b5b828202905092915050565b6000611b9882611c11565b9150611ba383611c11565b925082821015611bb657611bb5611d09565b5b828203905092915050565b6000611bcc82611bf1565b9050919050565b6000611bde82611bf1565b9050919050565b60008115159050919050565b600073ffffffffffffffffffffffffffffffffffffffff82169050919050565b6000819050919050565b82818337600083830152505050565b60005b83811015611c48578082015181840152602081019050611c2d565b83811115611c57576000848401525b50505050565b60006002820490506001821680611c7557607f821691505b60208210811415611c8957611c88611d67565b5b50919050565b611c9882611dc5565b810181811067ffffffffffffffff82111715611cb757611cb6611d96565b5b80604052505050565b6000611ccb82611c11565b91507fffffffffffffffffffffffffffffffffffffffffffffffffffffffffffffffff821415611cfe57611cfd611d09565b5b600182019050919050565b7f4e487b7100000000000000000000000000000000000000000000000000000000600052601160045260246000fd5b7f4e487b7100000000000000000000000000000000000000000000000000000000600052601260045260246000fd5b7f4e487b7100000000000000000000000000000000000000000000000000000000600052602260045260246000fd5b7f4e487b7100000000000000000000000000000000000000000000000000000000600052604160045260246000fd5b6000601f19601f8301169050919050565b611ddf81611bc1565b8114611dea57600080fd5b50565b611df681611bd3565b8114611e0157600080fd5b50565b611e0d81611be5565b8114611e1857600080fd5b50565b611e2481611c11565b8114611e2f57600080fd5b5056fea264697066735822122084f2faf73443a118348c28472e5e8c7ff5d7e18541a8e0a96b1b6dff1d927e7164736f6c63430008010033",
  "immutableReferences": {},
  "source": "pragma solidity ^0.8.1;\r\n\r\nimport './GovtInput.sol';\r\n\r\ncontract Crop{\r\n    struct Request{\r\n        string description;\r\n        uint amount;\r\n        uint no_of_days;\r\n        address payable receiver;\r\n        uint expirydate;\r\n        uint investorsCount;\r\n        bool complete;\r\n    }\r\n    \r\n    GovtInput gov;\r\n    \r\n    function setAddress(address _address) public{\r\n        gov = GovtInput(_address);\r\n    }\r\n    \r\n    Request[] public requests; \r\n    \r\n    uint256 public amtRaised = 0;\r\n    uint public minInvestment = 1;\r\n    uint256 public reputation = 0;\r\n    bool public returned = false;\r\n    bool public verified = false;\r\n    uint256[] public investedPercent;\r\n    address[] public investorsAddress;\r\n    mapping(uint => address) public investors;  \r\n    mapping(address => uint) public investAmt;\r\n    address public farmer;\r\n    uint public requestNo = 0;\r\n    \r\n    modifier authorization()\r\n    {\r\n        require(msg.sender == farmer);\r\n        _;\r\n    }\r\n\r\n    constructor(address creator) public {\r\n        farmer = creator;\r\n    }\r\n\r\n    function investment() public payable{\r\n        Request storage request = requests[requestNo - 1];\r\n        \r\n        require(request.complete == false);\r\n        require(block.timestamp < request.expirydate);\r\n        require(msg.value >= minInvestment);\r\n        \r\n        amtRaised = amtRaised + msg.value;\r\n        \r\n        investors[request.investorsCount] = msg.sender;\r\n        \r\n        request.investorsCount++;\r\n        \r\n        investAmt[msg.sender] = msg.value;\r\n    }\r\n\r\n    function investorCount(uint requestID) public view returns(uint) {\r\n        Request storage request = requests[requestID];\r\n        return(\r\n            request.investorsCount\r\n            );\r\n    }\r\n\r\n    function createRequest(string memory description, uint amount, uint no_of_days, address payable receiver) public authorization{\r\n        reputation = gov.setRep();\r\n        if(requestNo > 0){\r\n        returned = gov._returned();\r\n        require(reputation > 40);\r\n        require(returned == true);\r\n        }\r\n        else {\r\n        verified = gov.verification();\r\n        require(verified == true);\r\n        }\r\n        Request memory newReq = Request({\r\n            description : description,\r\n            amount : amount,\r\n            no_of_days : no_of_days,\r\n            receiver : receiver,\r\n            expirydate : block.timestamp + (86400 * no_of_days),\r\n            investorsCount : 0,\r\n            complete : false\r\n        });\r\n\r\n        requests.push(newReq);\r\n        requestNo = requestNo + 1;\r\n        returned = false;\r\n    }\r\n\r\n    function finalizeRequest() public payable authorization{\r\n        Request storage request = requests[requestNo - 1];\r\n        require(!request.complete);\r\n        request.receiver.transfer(address(this).balance); // once farmer gets the amount he cannont get more investors\r\n        request.complete = true;\r\n    }\r\n    \r\n    function getSummary() public view returns (uint256[] memory,address[] memory, uint, uint, uint, uint, bool, bool, address) {\r\n        return (\r\n            investedPercent,\r\n            investorsAddress,\r\n            minInvestment,\r\n            address(this).balance,  //request current balance of contract\r\n            requests.length,\r\n            reputation,\r\n            verified,\r\n            returned,\r\n            farmer\r\n            );\r\n    }\r\n   \r\n    function getInvestPercentage() public {\r\n        uint256 share;\r\n        uint256 temp;\r\n        uint i;\r\n        Request storage request = requests[requestNo - 1 ];\r\n        for(i = 0; i < request.investorsCount; i++)\r\n        {\r\n            investorsAddress.push(investors[i]);\r\n            share = investAmt[investors[i]];\r\n            temp = ( share * 100) / amtRaised;\r\n            investedPercent.push(temp);\r\n        }\r\n        amtRaised = 0;\r\n        \r\n    }\r\n    function retInvestPercentage() public view returns(uint256[] memory) {\r\n        return investedPercent;\r\n    }\r\n     function retInvestAddress() public view returns(address[] memory) {\r\n        return investorsAddress;\r\n    }\r\n    \r\n    function resetInvestedPercentAndInvestorsAddress() public {\r\n        Request storage request = requests[requestNo - 1];\r\n        uint i;\r\n        for(i = 0;i < request.investorsCount; i++)\r\n        {\r\n            investedPercent.pop();\r\n            investorsAddress.pop();\r\n        }\r\n    }\r\n    \r\n}\r\n",
  "sourcePath": "C:\\Users\\rashmitha\\Desktop\\final-year-project\\contracts\\Crop.sol",
  "compiler": {
    "name": "solc",
    "version": "0.8.1+commit.df193b15.Emscripten.clang"
  },
  "schemaVersion": "3.4.1",
  "updatedAt": "2021-06-05T17:56:02.781Z",
  "devdoc": {
    "kind": "dev",
    "methods": {},
    "version": 1
  },
  "userdoc": {
    "kind": "user",
    "methods": {},
    "version": 1
  }
}