{
  "contractName": "CropFactory",
  "abi": [
    {
      "inputs": [
        {
          "internalType": "uint256",
          "name": "",
          "type": "uint256"
        }
      ],
      "name": "contractaddresses",
      "outputs": [
        {
          "internalType": "address",
          "name": "crop",
          "type": "address"
        },
        {
          "internalType": "address",
          "name": "govrep",
          "type": "address"
        }
      ],
      "stateMutability": "view",
      "type": "function"
    },
    {
      "inputs": [
        {
          "internalType": "uint256",
          "name": "",
          "type": "uint256"
        }
      ],
      "name": "farmerAddresses",
      "outputs": [
        {
          "internalType": "address",
          "name": "",
          "type": "address"
        }
      ],
      "stateMutability": "view",
      "type": "function"
    },
    {
      "inputs": [
        {
          "internalType": "address",
          "name": "",
          "type": "address"
        }
      ],
      "name": "farmerContractMapping",
      "outputs": [
        {
          "internalType": "address",
          "name": "crop",
          "type": "address"
        },
        {
          "internalType": "address",
          "name": "govrep",
          "type": "address"
        }
      ],
      "stateMutability": "view",
      "type": "function"
    },
    {
      "inputs": [],
      "name": "getContractsForFarmer",
      "outputs": [
        {
          "components": [
            {
              "internalType": "address",
              "name": "crop",
              "type": "address"
            },
            {
              "internalType": "address",
              "name": "govrep",
              "type": "address"
            }
          ],
          "internalType": "struct CropFactory.ContractAddresses",
          "name": "",
          "type": "tuple"
        }
      ],
      "stateMutability": "view",
      "type": "function"
    },
    {
      "inputs": [
        {
          "internalType": "address",
          "name": "farmerAddr",
          "type": "address"
        }
      ],
      "name": "getContractsForFarmerAtAddress",
      "outputs": [
        {
          "components": [
            {
              "internalType": "address",
              "name": "crop",
              "type": "address"
            },
            {
              "internalType": "address",
              "name": "govrep",
              "type": "address"
            }
          ],
          "internalType": "struct CropFactory.ContractAddresses",
          "name": "",
          "type": "tuple"
        }
      ],
      "stateMutability": "view",
      "type": "function"
    },
    {
      "inputs": [],
      "name": "createCropForFarmer",
      "outputs": [],
      "stateMutability": "payable",
      "type": "function"
    },
    {
      "inputs": [],
      "name": "getFarmerContractMapping",
      "outputs": [
        {
          "components": [
            {
              "internalType": "address",
              "name": "crop",
              "type": "address"
            },
            {
              "internalType": "address",
              "name": "govrep",
              "type": "address"
            }
          ],
          "internalType": "struct CropFactory.ContractAddresses[]",
          "name": "",
          "type": "tuple[]"
        }
      ],
      "stateMutability": "view",
      "type": "function"
    }
  ],
  "bytecode": "0x60806040526000805534801561001457600080fd5b5061495e806100246000396000f3fe6080604052600436106100705760003560e01c80637634ae6e1161004e5780637634ae6e1461011b578063b9cc161414610125578063c133b57f14610162578063ca2ab9eb1461018d57610070565b80630ad9a8961461007557806337533493146100a057806347938d27146100dd575b600080fd5b34801561008157600080fd5b5061008a6101cb565b6040516100979190610bd5565b60405180910390f35b3480156100ac57600080fd5b506100c760048036038101906100c29190610a2b565b6102ce565b6040516100d49190610bd5565b60405180910390f35b3480156100e957600080fd5b5061010460048036038101906100ff9190610a2b565b6103d3565b604051610112929190610b8a565b60405180910390f35b610123610437565b005b34801561013157600080fd5b5061014c60048036038101906101479190610a54565b6107ed565b6040516101599190610b6f565b60405180910390f35b34801561016e57600080fd5b50610177610820565b6040516101849190610bb3565b60405180910390f35b34801561019957600080fd5b506101b460048036038101906101af9190610a54565b61092b565b6040516101c2929190610b8a565b60405180910390f35b6101d361099f565b600260003373ffffffffffffffffffffffffffffffffffffffff1673ffffffffffffffffffffffffffffffffffffffff1681526020019081526020016000206040518060400160405290816000820160009054906101000a900473ffffffffffffffffffffffffffffffffffffffff1673ffffffffffffffffffffffffffffffffffffffff1673ffffffffffffffffffffffffffffffffffffffff1681526020016001820160009054906101000a900473ffffffffffffffffffffffffffffffffffffffff1673ffffffffffffffffffffffffffffffffffffffff1673ffffffffffffffffffffffffffffffffffffffff1681525050905090565b6102d661099f565b600260008373ffffffffffffffffffffffffffffffffffffffff1673ffffffffffffffffffffffffffffffffffffffff1681526020019081526020016000206040518060400160405290816000820160009054906101000a900473ffffffffffffffffffffffffffffffffffffffff1673ffffffffffffffffffffffffffffffffffffffff1673ffffffffffffffffffffffffffffffffffffffff1681526020016001820160009054906101000a900473ffffffffffffffffffffffffffffffffffffffff1673ffffffffffffffffffffffffffffffffffffffff1673ffffffffffffffffffffffffffffffffffffffff16815250509050919050565b60026020528060005260406000206000915090508060000160009054906101000a900473ffffffffffffffffffffffffffffffffffffffff16908060010160009054906101000a900473ffffffffffffffffffffffffffffffffffffffff16905082565b600033604051610446906109e5565b6104509190610b6f565b604051809103906000f08015801561046c573d6000803e3d6000fd5b509050600060405161047d906109f3565b604051809103906000f080158015610499573d6000803e3d6000fd5b5090508173ffffffffffffffffffffffffffffffffffffffff1663e30081a0826040518263ffffffff1660e01b81526004016104d59190610b6f565b600060405180830381600087803b1580156104ef57600080fd5b505af1158015610503573d6000803e3d6000fd5b505050508073ffffffffffffffffffffffffffffffffffffffff1663e30081a0836040518263ffffffff1660e01b81526004016105409190610b6f565b600060405180830381600087803b15801561055a57600080fd5b505af115801561056e573d6000803e3d6000fd5b5050505060405180604001604052808373ffffffffffffffffffffffffffffffffffffffff1681526020018273ffffffffffffffffffffffffffffffffffffffff16815250600260003373ffffffffffffffffffffffffffffffffffffffff1673ffffffffffffffffffffffffffffffffffffffff16815260200190815260200160002060008201518160000160006101000a81548173ffffffffffffffffffffffffffffffffffffffff021916908373ffffffffffffffffffffffffffffffffffffffff16021790555060208201518160010160006101000a81548173ffffffffffffffffffffffffffffffffffffffff021916908373ffffffffffffffffffffffffffffffffffffffff16021790555090505033600360008054815260200190815260200160002060006101000a81548173ffffffffffffffffffffffffffffffffffffffff021916908373ffffffffffffffffffffffffffffffffffffffff160217905550600160405180604001604052808473ffffffffffffffffffffffffffffffffffffffff1681526020018373ffffffffffffffffffffffffffffffffffffffff16815250908060018154018082558091505060019003906000526020600020906002020160009091909190915060008201518160000160006101000a81548173ffffffffffffffffffffffffffffffffffffffff021916908373ffffffffffffffffffffffffffffffffffffffff16021790555060208201518160010160006101000a81548173ffffffffffffffffffffffffffffffffffffffff021916908373ffffffffffffffffffffffffffffffffffffffff16021790555050506000808154809291906107e490610c65565b91905055505050565b60036020528060005260406000206000915054906101000a900473ffffffffffffffffffffffffffffffffffffffff1681565b60606001805480602002602001604051908101604052809291908181526020016000905b8282101561092257838290600052602060002090600202016040518060400160405290816000820160009054906101000a900473ffffffffffffffffffffffffffffffffffffffff1673ffffffffffffffffffffffffffffffffffffffff1673ffffffffffffffffffffffffffffffffffffffff1681526020016001820160009054906101000a900473ffffffffffffffffffffffffffffffffffffffff1673ffffffffffffffffffffffffffffffffffffffff1673ffffffffffffffffffffffffffffffffffffffff168152505081526020019060010190610844565b50505050905090565b6001818154811061093b57600080fd5b90600052602060002090600202016000915090508060000160009054906101000a900473ffffffffffffffffffffffffffffffffffffffff16908060010160009054906101000a900473ffffffffffffffffffffffffffffffffffffffff16905082565b6040518060400160405280600073ffffffffffffffffffffffffffffffffffffffff168152602001600073ffffffffffffffffffffffffffffffffffffffff1681525090565b611fc08062000d0c83390190565b611c5d8062002ccc83390190565b600081359050610a1081610cdd565b92915050565b600081359050610a2581610cf4565b92915050565b600060208284031215610a3d57600080fd5b6000610a4b84828501610a01565b91505092915050565b600060208284031215610a6657600080fd5b6000610a7484828501610a16565b91505092915050565b6000610a898383610b11565b60408301905092915050565b610a9e81610c29565b82525050565b610aad81610c29565b82525050565b6000610abe82610c00565b610ac88185610c18565b9350610ad383610bf0565b8060005b83811015610b04578151610aeb8882610a7d565b9750610af683610c0b565b925050600181019050610ad7565b5085935050505092915050565b604082016000820151610b276000850182610a95565b506020820151610b3a6020850182610a95565b50505050565b604082016000820151610b566000850182610a95565b506020820151610b696020850182610a95565b50505050565b6000602082019050610b846000830184610aa4565b92915050565b6000604082019050610b9f6000830185610aa4565b610bac6020830184610aa4565b9392505050565b60006020820190508181036000830152610bcd8184610ab3565b905092915050565b6000604082019050610bea6000830184610b40565b92915050565b6000819050602082019050919050565b600081519050919050565b6000602082019050919050565b600082825260208201905092915050565b6000610c3482610c3b565b9050919050565b600073ffffffffffffffffffffffffffffffffffffffff82169050919050565b6000819050919050565b6000610c7082610c5b565b91507fffffffffffffffffffffffffffffffffffffffffffffffffffffffffffffffff821415610ca357610ca2610cae565b5b600182019050919050565b7f4e487b7100000000000000000000000000000000000000000000000000000000600052601160045260246000fd5b610ce681610c29565b8114610cf157600080fd5b50565b610cfd81610c5b565b8114610d0857600080fd5b5056fe60806040526000600255600160035560006004556000600560006101000a81548160ff0219169083151502179055506000600560016101000a81548160ff0219169083151502179055506000600b553480156200005b57600080fd5b5060405162001fc038038062001fc08339818101604052810190620000819190620000e0565b80600a60006101000a81548173ffffffffffffffffffffffffffffffffffffffff021916908373ffffffffffffffffffffffffffffffffffffffff160217905550506200015a565b600081519050620000da8162000140565b92915050565b600060208284031215620000f357600080fd5b60006200010384828501620000c9565b91505092915050565b6000620001198262000120565b9050919050565b600073ffffffffffffffffffffffffffffffffffffffff82169050919050565b6200014b816200010c565b81146200015757600080fd5b50565b611e56806200016a6000396000f3fe6080604052600436106101405760003560e01c806390a59e52116100b6578063d811fcf01161006f578063d811fcf014610418578063dce5f27714610443578063e30081a014610480578063e391f55a146104a9578063f8c29fc4146104c0578063fbccc841146104fd57610140565b806390a59e521461032c57806399bd3600146103695780639b09c64414610380578063bbb82d89146103ab578063c52164c6146103d6578063c57480d81461040157610140565b8063509cfe4211610108578063509cfe42146102155780636a0702b2146102525780636c1f7952146102695780636cb764081461029457806381d12c58146102bf5780638ac2c6801461030157610140565b80631344aec9146101455780631bbadccc146101705780633feb5f2b1461019b5780634051ddac146101d857806345fbfbca1461020b575b600080fd5b34801561015157600080fd5b5061015a610526565b60405161016791906119c4565b60405180910390f35b34801561017c57600080fd5b5061018561052c565b6040516101929190611862565b60405180910390f35b3480156101a757600080fd5b506101c260048036038101906101bd9190611685565b6105ba565b6040516101cf9190611847565b60405180910390f35b3480156101e457600080fd5b506101ed6105ed565b604051610202999897969594939291906118a6565b60405180910390f35b610213610746565b005b34801561022157600080fd5b5061023c60048036038101906102379190611685565b6108ab565b60405161024991906119c4565b60405180910390f35b34801561025e57600080fd5b506102676108cf565b005b34801561027557600080fd5b5061027e61098a565b60405161028b91906119c4565b60405180910390f35b3480156102a057600080fd5b506102a9610990565b6040516102b69190611941565b60405180910390f35b3480156102cb57600080fd5b506102e660048036038101906102e19190611685565b6109a3565b6040516102f89695949392919061195c565b60405180910390f35b34801561030d57600080fd5b50610316610a84565b60405161032391906119c4565b60405180910390f35b34801561033857600080fd5b50610353600480360381019061034e91906115cc565b610a8a565b60405161036091906119c4565b60405180910390f35b34801561037557600080fd5b5061037e610aa2565b005b34801561038c57600080fd5b50610395610bfa565b6040516103a29190611884565b60405180910390f35b3480156103b757600080fd5b506103c0610c52565b6040516103cd9190611941565b60405180910390f35b3480156103e257600080fd5b506103eb610c65565b6040516103f891906119c4565b60405180910390f35b34801561040d57600080fd5b50610416610c6b565b005b34801561042457600080fd5b5061042d610e4a565b60405161043a9190611847565b60405180910390f35b34801561044f57600080fd5b5061046a60048036038101906104659190611685565b610e70565b6040516104779190611847565b60405180910390f35b34801561048c57600080fd5b506104a760048036038101906104a291906115cc565b610eaf565b005b3480156104b557600080fd5b506104be610ef2565b005b3480156104cc57600080fd5b506104e760048036038101906104e29190611685565b61102c565b6040516104f491906119c4565b60405180910390f35b34801561050957600080fd5b50610524600480360381019061051f919061161e565b611086565b005b60025481565b606060078054806020026020016040519081016040528092919081815260200182805480156105b057602002820191906000526020600020905b8160009054906101000a900473ffffffffffffffffffffffffffffffffffffffff1673ffffffffffffffffffffffffffffffffffffffff1681526020019060010190808311610566575b5050505050905090565b60086020528060005260406000206000915054906101000a900473ffffffffffffffffffffffffffffffffffffffff1681565b60608060008060008060008060006006600760035447600180549050600454600560019054906101000a900460ff16600560009054906101000a900460ff16600a60009054906101000a900473ffffffffffffffffffffffffffffffffffffffff168880548060200260200160405190810160405280929190818152602001828054801561069a57602002820191906000526020600020905b815481526020019060010190808311610686575b505050505098508780548060200260200160405190810160405280929190818152602001828054801561072257602002820191906000526020600020905b8160009054906101000a900473ffffffffffffffffffffffffffffffffffffffff1673ffffffffffffffffffffffffffffffffffffffff16815260200190600101908083116106d8575b50505050509750985098509850985098509850985098509850909192939495969798565b6000600180600b546107589190611ba4565b8154811061078f577f4e487b7100000000000000000000000000000000000000000000000000000000600052603260045260246000fd5b90600052602060002090600602019050600015158160050160009054906101000a900460ff161515146107c157600080fd5b806003015442106107d157600080fd5b6003543410156107e057600080fd5b346002546107ee9190611ac3565b60028190555033600860008360040154815260200190815260200160002060006101000a81548173ffffffffffffffffffffffffffffffffffffffff021916908373ffffffffffffffffffffffffffffffffffffffff16021790555080600401600081548092919061085f90611cc5565b919050555034600960003373ffffffffffffffffffffffffffffffffffffffff1673ffffffffffffffffffffffffffffffffffffffff1681526020019081526020016000208190555050565b600681815481106108bb57600080fd5b906000526020600020016000915090505481565b60008054906101000a900473ffffffffffffffffffffffffffffffffffffffff1673ffffffffffffffffffffffffffffffffffffffff16634ffe2a8b6040518163ffffffff1660e01b8152600401602060405180830381600087803b15801561093757600080fd5b505af115801561094b573d6000803e3d6000fd5b505050506040513d601f19601f8201168201806040525081019061096f91906115f5565b600560016101000a81548160ff021916908315150217905550565b600b5481565b600560009054906101000a900460ff1681565b600181815481106109b357600080fd5b90600052602060002090600602016000915090508060000180546109d690611c62565b80601f0160208091040260200160405190810160405280929190818152602001828054610a0290611c62565b8015610a4f5780601f10610a2457610100808354040283529160200191610a4f565b820191906000526020600020905b815481529060010190602001808311610a3257829003601f168201915b5050505050908060010154908060020154908060030154908060040154908060050160009054906101000a900460ff16905086565b60035481565b60096020528060005260406000206000915090505481565b600a60009054906101000a900473ffffffffffffffffffffffffffffffffffffffff1673ffffffffffffffffffffffffffffffffffffffff163373ffffffffffffffffffffffffffffffffffffffff1614610afc57600080fd5b6000600180600b54610b0e9190611ba4565b81548110610b45577f4e487b7100000000000000000000000000000000000000000000000000000000600052603260045260246000fd5b906000526020600020906006020190508060050160009054906101000a900460ff1615610b7157600080fd5b600a60009054906101000a900473ffffffffffffffffffffffffffffffffffffffff1673ffffffffffffffffffffffffffffffffffffffff166108fc479081150290604051600060405180830381858888f19350505050158015610bd9573d6000803e3d6000fd5b5060018160050160006101000a81548160ff02191690831515021790555050565b60606006805480602002602001604051908101604052809291908181526020018280548015610c4857602002820191906000526020600020905b815481526020019060010190808311610c34575b5050505050905090565b600560019054906101000a900460ff1681565b60045481565b600080600080600180600b54610c819190611ba4565b81548110610cb8577f4e487b7100000000000000000000000000000000000000000000000000000000600052603260045260246000fd5b90600052602060002090600602019050600091505b8060040154821015610e3c5760076008600084815260200190815260200160002060009054906101000a900473ffffffffffffffffffffffffffffffffffffffff169080600181540180825580915050600190039060005260206000200160009091909190916101000a81548173ffffffffffffffffffffffffffffffffffffffff021916908373ffffffffffffffffffffffffffffffffffffffff160217905550600960006008600085815260200190815260200160002060009054906101000a900473ffffffffffffffffffffffffffffffffffffffff1673ffffffffffffffffffffffffffffffffffffffff1673ffffffffffffffffffffffffffffffffffffffff168152602001908152602001600020549350600254606485610df49190611b4a565b610dfe9190611b19565b925060068390806001815401808255809150506001900390600052602060002001600090919091909150558180610e3490611cc5565b925050610ccd565b600060028190555050505050565b600a60009054906101000a900473ffffffffffffffffffffffffffffffffffffffff1681565b60078181548110610e8057600080fd5b906000526020600020016000915054906101000a900473ffffffffffffffffffffffffffffffffffffffff1681565b806000806101000a81548173ffffffffffffffffffffffffffffffffffffffff021916908373ffffffffffffffffffffffffffffffffffffffff16021790555050565b6000600180600b54610f049190611ba4565b81548110610f3b577f4e487b7100000000000000000000000000000000000000000000000000000000600052603260045260246000fd5b9060005260206000209060060201905060005b8160040154811015611028576006805480610f92577f4e487b7100000000000000000000000000000000000000000000000000000000600052603160045260246000fd5b600190038181906000526020600020016000905590556007805480610fe0577f4e487b7100000000000000000000000000000000000000000000000000000000600052603160045260246000fd5b6001900381819060005260206000200160006101000a81549073ffffffffffffffffffffffffffffffffffffffff02191690559055808061102090611cc5565b915050610f4e565b5050565b60008060018381548110611069577f4e487b7100000000000000000000000000000000000000000000000000000000600052603260045260246000fd5b906000526020600020906006020190508060040154915050919050565b600a60009054906101000a900473ffffffffffffffffffffffffffffffffffffffff1673ffffffffffffffffffffffffffffffffffffffff163373ffffffffffffffffffffffffffffffffffffffff16146110e057600080fd5b60008054906101000a900473ffffffffffffffffffffffffffffffffffffffff1673ffffffffffffffffffffffffffffffffffffffff1663fc2ebd416040518163ffffffff1660e01b8152600401602060405180830381600087803b15801561114857600080fd5b505af115801561115c573d6000803e3d6000fd5b505050506040513d601f19601f8201168201806040525081019061118091906116ae565b6004819055506000600b54111561127c5760008054906101000a900473ffffffffffffffffffffffffffffffffffffffff1673ffffffffffffffffffffffffffffffffffffffff1663be05eff56040518163ffffffff1660e01b815260040160206040518083038186803b1580156111f757600080fd5b505afa15801561120b573d6000803e3d6000fd5b505050506040513d601f19601f8201168201806040525081019061122f91906115f5565b600560006101000a81548160ff02191690831515021790555060286004541161125757600080fd5b60011515600560009054906101000a900460ff1615151461127757600080fd5b611356565b60008054906101000a900473ffffffffffffffffffffffffffffffffffffffff1673ffffffffffffffffffffffffffffffffffffffff16634ffe2a8b6040518163ffffffff1660e01b8152600401602060405180830381600087803b1580156112e457600080fd5b505af11580156112f8573d6000803e3d6000fd5b505050506040513d601f19601f8201168201806040525081019061131c91906115f5565b600560016101000a81548160ff02191690831515021790555060011515600560019054906101000a900460ff1615151461135557600080fd5b5b60006040518060c0016040528085815260200184815260200183815260200183620151806113849190611b4a565b4261138f9190611ac3565b815260200160008152602001600015158152509050600181908060018154018082558091505060019003906000526020600020906006020160009091909190915060008201518160000190805190602001906113ec92919061146d565b506020820151816001015560408201518160020155606082015181600301556080820151816004015560a08201518160050160006101000a81548160ff02191690831515021790555050506001600b546114469190611ac3565b600b819055506000600560006101000a81548160ff02191690831515021790555050505050565b82805461147990611c62565b90600052602060002090601f01602090048101928261149b57600085556114e2565b82601f106114b457805160ff19168380011785556114e2565b828001600101855582156114e2579182015b828111156114e15782518255916020019190600101906114c6565b5b5090506114ef91906114f3565b5090565b5b8082111561150c5760008160009055506001016114f4565b5090565b600061152361151e84611a04565b6119df565b90508281526020810184848401111561153b57600080fd5b611546848285611c20565b509392505050565b60008135905061155d81611ddb565b92915050565b60008151905061157281611df2565b92915050565b600082601f83011261158957600080fd5b8135611599848260208601611510565b91505092915050565b6000813590506115b181611e09565b92915050565b6000815190506115c681611e09565b92915050565b6000602082840312156115de57600080fd5b60006115ec8482850161154e565b91505092915050565b60006020828403121561160757600080fd5b600061161584828501611563565b91505092915050565b60008060006060848603121561163357600080fd5b600084013567ffffffffffffffff81111561164d57600080fd5b61165986828701611578565b935050602061166a868287016115a2565b925050604061167b868287016115a2565b9150509250925092565b60006020828403121561169757600080fd5b60006116a5848285016115a2565b91505092915050565b6000602082840312156116c057600080fd5b60006116ce848285016115b7565b91505092915050565b60006116e38383611707565b60208301905092915050565b60006116fb8383611829565b60208301905092915050565b61171081611bd8565b82525050565b61171f81611bd8565b82525050565b600061173082611a55565b61173a8185611a90565b935061174583611a35565b8060005b8381101561177657815161175d88826116d7565b975061176883611a76565b925050600181019050611749565b5085935050505092915050565b600061178e82611a60565b6117988185611aa1565b93506117a383611a45565b8060005b838110156117d45781516117bb88826116ef565b97506117c683611a83565b9250506001810190506117a7565b5085935050505092915050565b6117ea81611bea565b82525050565b60006117fb82611a6b565b6118058185611ab2565b9350611815818560208601611c2f565b61181e81611dca565b840191505092915050565b61183281611c16565b82525050565b61184181611c16565b82525050565b600060208201905061185c6000830184611716565b92915050565b6000602082019050818103600083015261187c8184611725565b905092915050565b6000602082019050818103600083015261189e8184611783565b905092915050565b60006101208201905081810360008301526118c1818c611783565b905081810360208301526118d5818b611725565b90506118e4604083018a611838565b6118f16060830189611838565b6118fe6080830188611838565b61190b60a0830187611838565b61191860c08301866117e1565b61192560e08301856117e1565b611933610100830184611716565b9a9950505050505050505050565b600060208201905061195660008301846117e1565b92915050565b600060c082019050818103600083015261197681896117f0565b90506119856020830188611838565b6119926040830187611838565b61199f6060830186611838565b6119ac6080830185611838565b6119b960a08301846117e1565b979650505050505050565b60006020820190506119d96000830184611838565b92915050565b60006119e96119fa565b90506119f58282611c94565b919050565b6000604051905090565b600067ffffffffffffffff821115611a1f57611a1e611d9b565b5b611a2882611dca565b9050602081019050919050565b6000819050602082019050919050565b6000819050602082019050919050565b600081519050919050565b600081519050919050565b600081519050919050565b6000602082019050919050565b6000602082019050919050565b600082825260208201905092915050565b600082825260208201905092915050565b600082825260208201905092915050565b6000611ace82611c16565b9150611ad983611c16565b9250827fffffffffffffffffffffffffffffffffffffffffffffffffffffffffffffffff03821115611b0e57611b0d611d0e565b5b828201905092915050565b6000611b2482611c16565b9150611b2f83611c16565b925082611b3f57611b3e611d3d565b5b828204905092915050565b6000611b5582611c16565b9150611b6083611c16565b9250817fffffffffffffffffffffffffffffffffffffffffffffffffffffffffffffffff0483118215151615611b9957611b98611d0e565b5b828202905092915050565b6000611baf82611c16565b9150611bba83611c16565b925082821015611bcd57611bcc611d0e565b5b828203905092915050565b6000611be382611bf6565b9050919050565b60008115159050919050565b600073ffffffffffffffffffffffffffffffffffffffff82169050919050565b6000819050919050565b82818337600083830152505050565b60005b83811015611c4d578082015181840152602081019050611c32565b83811115611c5c576000848401525b50505050565b60006002820490506001821680611c7a57607f821691505b60208210811415611c8e57611c8d611d6c565b5b50919050565b611c9d82611dca565b810181811067ffffffffffffffff82111715611cbc57611cbb611d9b565b5b80604052505050565b6000611cd082611c16565b91507fffffffffffffffffffffffffffffffffffffffffffffffffffffffffffffffff821415611d0357611d02611d0e565b5b600182019050919050565b7f4e487b7100000000000000000000000000000000000000000000000000000000600052601160045260246000fd5b7f4e487b7100000000000000000000000000000000000000000000000000000000600052601260045260246000fd5b7f4e487b7100000000000000000000000000000000000000000000000000000000600052602260045260246000fd5b7f4e487b7100000000000000000000000000000000000000000000000000000000600052604160045260246000fd5b6000601f19601f8301169050919050565b611de481611bd8565b8114611def57600080fd5b50565b611dfb81611bea565b8114611e0657600080fd5b50565b611e1281611c16565b8114611e1d57600080fd5b5056fea2646970667358221220ffc6c00897a9592e7049b191435e62d330a41957381306da8e96fe3505cf2ea664736f6c6343000801003360806040526000600160006101000a81548160ff0219169083151502179055506000600660006101000a81548160ff0219169083151502179055506000600960146101000a81548160ff02191690831515021790555034801561006157600080fd5b50611bec806100716000396000f3fe6080604052600436106100f25760003560e01c80638252ffc11161008a578063c31d3a6d11610059578063c31d3a6d14610303578063e30081a01461031a578063f9b5cbab14610343578063fc2ebd411461036e576100f2565b80638252ffc114610257578063a4327a3814610282578063bbb82d89146102ad578063be05eff5146102d8576100f2565b80634ffe2a8b116100c65780634ffe2a8b146101ce578063522e1177146101f95780635f0fd51b146102245780636e07c07914610240576100f2565b8062513a94146100f75780630e74591814610134578063401e7bf5146101715780634051ddac1461019c575b600080fd5b34801561010357600080fd5b5061011e600480360381019061011991906115a7565b610399565b60405161012b91906117f2565b60405180910390f35b34801561014057600080fd5b5061015b600480360381019061015691906115a7565b6103bd565b6040516101689190611730565b60405180910390f35b34801561017d57600080fd5b506101866103fc565b60405161019391906117f2565b60405180910390f35b3480156101a857600080fd5b506101b1610402565b6040516101c598979695949392919061174b565b60405180910390f35b3480156101da57600080fd5b506101e3610552565b6040516101f091906117d7565b60405180910390f35b34801561020557600080fd5b5061020e610663565b60405161021b91906117d7565b60405180910390f35b61023e600480360381019061023991906115a7565b610676565b005b34801561024c57600080fd5b50610255610866565b005b34801561026357600080fd5b5061026c610aee565b60405161027991906117f2565b60405180910390f35b34801561028e57600080fd5b50610297610af4565b6040516102a49190611730565b60405180910390f35b3480156102b957600080fd5b506102c2610b1a565b6040516102cf91906117d7565b60405180910390f35b3480156102e457600080fd5b506102ed610b2d565b6040516102fa91906117d7565b60405180910390f35b34801561030f57600080fd5b50610318610b40565b005b34801561032657600080fd5b50610341600480360381019061033c91906114aa565b610d18565b005b34801561034f57600080fd5b50610358610d5c565b60405161036591906117f2565b60405180910390f35b34801561037a57600080fd5b50610383610d62565b60405161039091906117f2565b60405180910390f35b600781815481106103a957600080fd5b906000526020600020016000915090505481565b600881815481106103cd57600080fd5b906000526020600020016000915054906101000a900473ffffffffffffffffffffffffffffffffffffffff1681565b60055481565b60606000606060008060008060006007476008600554600160009054906101000a900460ff16600660009054906101000a900460ff16600054600460009054906101000a900473ffffffffffffffffffffffffffffffffffffffff16878054806020026020016040519081016040528092919081815260200182805480156104a957602002820191906000526020600020905b815481526020019060010190808311610495575b505050505097508580548060200260200160405190810160405280929190818152602001828054801561053157602002820191906000526020600020905b8160009054906101000a900473ffffffffffffffffffffffffffffffffffffffff1673ffffffffffffffffffffffffffffffffffffffff16815260200190600101908083116104e7575b50505050509550975097509750975097509750975097509091929394959697565b6000600360009054906101000a900473ffffffffffffffffffffffffffffffffffffffff1673ffffffffffffffffffffffffffffffffffffffff1663d811fcf06040518163ffffffff1660e01b815260040160206040518083038186803b1580156105bc57600080fd5b505afa1580156105d0573d6000803e3d6000fd5b505050506040513d601f19601f820116820180604052508101906105f491906114d3565b600460006101000a81548173ffffffffffffffffffffffffffffffffffffffff021916908373ffffffffffffffffffffffffffffffffffffffff16021790555060018060006101000a81548160ff021916908315150217905550600160009054906101000a900460ff16905090565b600960149054906101000a900460ff1681565b6000801515600960149054906101000a900460ff1615151461069757600080fd5b600360009054906101000a900473ffffffffffffffffffffffffffffffffffffffff1673ffffffffffffffffffffffffffffffffffffffff16636cb764086040518163ffffffff1660e01b815260040160206040518083038186803b1580156106ff57600080fd5b505afa158015610713573d6000803e3d6000fd5b505050506040513d601f19601f82011682018060405250810190610737919061157e565b600660006101000a81548160ff02191690831515021790555081600081905550600360009054906101000a900473ffffffffffffffffffffffffffffffffffffffff1673ffffffffffffffffffffffffffffffffffffffff16631344aec96040518163ffffffff1660e01b815260040160206040518083038186803b1580156107bf57600080fd5b505afa1580156107d3573d6000803e3d6000fd5b505050506040513d601f19601f820116820180604052508101906107f791906115d0565b9050806064670de0b6b3a76400006000546108129190611983565b61081c9190611983565b6108269190611952565b6002819055506000600660006101000a81548160ff0219169083151502179055506001600960146101000a81548160ff0219169083151502179055505050565b600360009054906101000a900473ffffffffffffffffffffffffffffffffffffffff1673ffffffffffffffffffffffffffffffffffffffff1663c57480d86040518163ffffffff1660e01b8152600401600060405180830381600087803b1580156108d057600080fd5b505af11580156108e4573d6000803e3d6000fd5b50505050600360009054906101000a900473ffffffffffffffffffffffffffffffffffffffff1673ffffffffffffffffffffffffffffffffffffffff16639b09c6446040518163ffffffff1660e01b815260040160006040518083038186803b15801561095057600080fd5b505afa158015610964573d6000803e3d6000fd5b505050506040513d6000823e3d601f19601f8201168201806040525081019061098d919061153d565b600790805190602001906109a2929190611221565b50600360009054906101000a900473ffffffffffffffffffffffffffffffffffffffff1673ffffffffffffffffffffffffffffffffffffffff16631bbadccc6040518163ffffffff1660e01b815260040160006040518083038186803b158015610a0b57600080fd5b505afa158015610a1f573d6000803e3d6000fd5b505050506040513d6000823e3d601f19601f82011682018060405250810190610a4891906114fc565b60089080519060200190610a5d92919061126e565b50600780549050600a81905550600360009054906101000a900473ffffffffffffffffffffffffffffffffffffffff1673ffffffffffffffffffffffffffffffffffffffff1663e391f55a6040518163ffffffff1660e01b8152600401600060405180830381600087803b158015610ad457600080fd5b505af1158015610ae8573d6000803e3d6000fd5b50505050565b60025481565b600460009054906101000a900473ffffffffffffffffffffffffffffffffffffffff1681565b600160009054906101000a900460ff1681565b600660009054906101000a900460ff1681565b610b48610866565b600080600090505b600780549050811015610cf157670de0b6b3a7640000606460078381548110610ba2577f4e487b7100000000000000000000000000000000000000000000000000000000600052603260045260246000fd5b9060005260206000200154600054610bba9190611983565b610bc49190611952565b610bce9190611983565b915060088181548110610c0a577f4e487b7100000000000000000000000000000000000000000000000000000000600052603260045260246000fd5b9060005260206000200160009054906101000a900473ffffffffffffffffffffffffffffffffffffffff16600960006101000a81548173ffffffffffffffffffffffffffffffffffffffff021916908373ffffffffffffffffffffffffffffffffffffffff160217905550600960009054906101000a900473ffffffffffffffffffffffffffffffffffffffff1673ffffffffffffffffffffffffffffffffffffffff166108fc839081150290604051600060405180830381858888f19350505050158015610cdd573d6000803e3d6000fd5b508080610ce990611a8a565b915050610b50565b6001600660006101000a81548160ff021916908315150217905550610d14611127565b5050565b80600360006101000a81548173ffffffffffffffffffffffffffffffffffffffff021916908373ffffffffffffffffffffffffffffffffffffffff16021790555050565b60005481565b6000600360009054906101000a900473ffffffffffffffffffffffffffffffffffffffff1673ffffffffffffffffffffffffffffffffffffffff1663d811fcf06040518163ffffffff1660e01b815260040160206040518083038186803b158015610dcc57600080fd5b505afa158015610de0573d6000803e3d6000fd5b505050506040513d601f19601f82011682018060405250810190610e0491906114d3565b600460006101000a81548173ffffffffffffffffffffffffffffffffffffffff021916908373ffffffffffffffffffffffffffffffffffffffff160217905550600360009054906101000a900473ffffffffffffffffffffffffffffffffffffffff1673ffffffffffffffffffffffffffffffffffffffff1663c52164c66040518163ffffffff1660e01b815260040160206040518083038186803b158015610eac57600080fd5b505afa158015610ec0573d6000803e3d6000fd5b505050506040513d601f19601f82011682018060405250810190610ee491906115d0565b60058190555060006005541415610f025760326005819055506110f5565b6000805411156110f457600060025410158015610f2157506028600254105b15610f4057600a600554610f3591906119dd565b6005819055506110f3565b602860025410158015610f5557506032600254105b15610f74576006600554610f6991906119dd565b6005819055506110f2565b603260025410158015610f895750603c600254105b15610fa8576004600554610f9d91906119dd565b6005819055506110f1565b603c60025410158015610fbd57506046600254105b156110165760506005541115610ff157610fe66001600554610fdf91906118fc565b6064611205565b600581905550611011565b61100a600260055461100391906118fc565b6064611205565b6005819055505b6110f0565b60466002541015801561102b57506050600254105b15611084576050600554111561105f57611054600260055461104d91906118fc565b6064611205565b60058190555061107f565b611078600360055461107191906118fc565b6064611205565b6005819055505b6110ef565b60506002541015801561109a5750606460025411155b156110ee57605060055411156110ce576110c360036005546110bc91906118fc565b6064611205565b6005819055506110ed565b6110e6600580546110df91906118fc565b6064611205565b6005819055505b5b5b5b5b5b5b5b5b600080819055506000600960146101000a81548160ff0219169083151502179055506000600281905550600554905090565b60005b600a5481101561120257600780548061116c577f4e487b7100000000000000000000000000000000000000000000000000000000600052603160045260246000fd5b6001900381819060005260206000200160009055905560088054806111ba577f4e487b7100000000000000000000000000000000000000000000000000000000600052603160045260246000fd5b6001900381819060005260206000200160006101000a81549073ffffffffffffffffffffffffffffffffffffffff0219169055905580806111fa90611a8a565b91505061112a565b50565b6000818310156112175782905061121b565b8190505b92915050565b82805482825590600052602060002090810192821561125d579160200282015b8281111561125c578251825591602001919060010190611241565b5b50905061126a91906112f8565b5090565b8280548282559060005260206000209081019282156112e7579160200282015b828111156112e65782518260006101000a81548173ffffffffffffffffffffffffffffffffffffffff021916908373ffffffffffffffffffffffffffffffffffffffff1602179055509160200191906001019061128e565b5b5090506112f491906112f8565b5090565b5b808211156113115760008160009055506001016112f9565b5090565b600061132861132384611832565b61180d565b9050808382526020820190508285602086028201111561134757600080fd5b60005b85811015611377578161135d8882611402565b84526020840193506020830192505060018101905061134a565b5050509392505050565b600061139461138f8461185e565b61180d565b905080838252602082019050828560208602820111156113b357600080fd5b60005b858110156113e357816113c98882611495565b8452602084019350602083019250506001810190506113b6565b5050509392505050565b6000813590506113fc81611b71565b92915050565b60008151905061141181611b71565b92915050565b600082601f83011261142857600080fd5b8151611438848260208601611315565b91505092915050565b600082601f83011261145257600080fd5b8151611462848260208601611381565b91505092915050565b60008151905061147a81611b88565b92915050565b60008135905061148f81611b9f565b92915050565b6000815190506114a481611b9f565b92915050565b6000602082840312156114bc57600080fd5b60006114ca848285016113ed565b91505092915050565b6000602082840312156114e557600080fd5b60006114f384828501611402565b91505092915050565b60006020828403121561150e57600080fd5b600082015167ffffffffffffffff81111561152857600080fd5b61153484828501611417565b91505092915050565b60006020828403121561154f57600080fd5b600082015167ffffffffffffffff81111561156957600080fd5b61157584828501611441565b91505092915050565b60006020828403121561159057600080fd5b600061159e8482850161146b565b91505092915050565b6000602082840312156115b957600080fd5b60006115c784828501611480565b91505092915050565b6000602082840312156115e257600080fd5b60006115f084828501611495565b91505092915050565b60006116058383611629565b60208301905092915050565b600061161d8383611712565b60208301905092915050565b61163281611a11565b82525050565b61164181611a11565b82525050565b6000611652826118aa565b61165c81856118da565b93506116678361188a565b8060005b8381101561169857815161167f88826115f9565b975061168a836118c0565b92505060018101905061166b565b5085935050505092915050565b60006116b0826118b5565b6116ba81856118eb565b93506116c58361189a565b8060005b838110156116f65781516116dd8882611611565b97506116e8836118cd565b9250506001810190506116c9565b5085935050505092915050565b61170c81611a23565b82525050565b61171b81611a4f565b82525050565b61172a81611a4f565b82525050565b60006020820190506117456000830184611638565b92915050565b6000610100820190508181036000830152611766818b6116a5565b9050611775602083018a611721565b81810360408301526117878189611647565b90506117966060830188611721565b6117a36080830187611703565b6117b060a0830186611703565b6117bd60c0830185611721565b6117ca60e0830184611638565b9998505050505050505050565b60006020820190506117ec6000830184611703565b92915050565b60006020820190506118076000830184611721565b92915050565b6000611817611828565b90506118238282611a59565b919050565b6000604051905090565b600067ffffffffffffffff82111561184d5761184c611b31565b5b602082029050602081019050919050565b600067ffffffffffffffff82111561187957611878611b31565b5b602082029050602081019050919050565b6000819050602082019050919050565b6000819050602082019050919050565b600081519050919050565b600081519050919050565b6000602082019050919050565b6000602082019050919050565b600082825260208201905092915050565b600082825260208201905092915050565b600061190782611a4f565b915061191283611a4f565b9250827fffffffffffffffffffffffffffffffffffffffffffffffffffffffffffffffff0382111561194757611946611ad3565b5b828201905092915050565b600061195d82611a4f565b915061196883611a4f565b92508261197857611977611b02565b5b828204905092915050565b600061198e82611a4f565b915061199983611a4f565b9250817fffffffffffffffffffffffffffffffffffffffffffffffffffffffffffffffff04831182151516156119d2576119d1611ad3565b5b828202905092915050565b60006119e882611a4f565b91506119f383611a4f565b925082821015611a0657611a05611ad3565b5b828203905092915050565b6000611a1c82611a2f565b9050919050565b60008115159050919050565b600073ffffffffffffffffffffffffffffffffffffffff82169050919050565b6000819050919050565b611a6282611b60565b810181811067ffffffffffffffff82111715611a8157611a80611b31565b5b80604052505050565b6000611a9582611a4f565b91507fffffffffffffffffffffffffffffffffffffffffffffffffffffffffffffffff821415611ac857611ac7611ad3565b5b600182019050919050565b7f4e487b7100000000000000000000000000000000000000000000000000000000600052601160045260246000fd5b7f4e487b7100000000000000000000000000000000000000000000000000000000600052601260045260246000fd5b7f4e487b7100000000000000000000000000000000000000000000000000000000600052604160045260246000fd5b6000601f19601f8301169050919050565b611b7a81611a11565b8114611b8557600080fd5b50565b611b9181611a23565b8114611b9c57600080fd5b50565b611ba881611a4f565b8114611bb357600080fd5b5056fea264697066735822122091ed1b1fe6e8872ef2c9f367237dd431b58bb3f4dc34598ae04ac13ed3e32ba764736f6c63430008010033a264697066735822122001b30aab6c3d7aa21c5855d022d22b1180d0ad0594013c7f7a5fb74a32f97d9364736f6c63430008010033",
  "immutableReferences": {},
  "source": "// SPDX-License-Identifier: MIT\r\npragma solidity ^0.8.1;\r\n\r\nimport \"./Crop.sol\";\r\nimport \"./GovtInput.sol\";\r\ncontract CropFactory{\r\n\tuint j = 0;\r\n\tstruct ContractAddresses{\r\n\t\taddress crop;\r\n\t\taddress govrep;\r\n\t}\r\n\tContractAddresses[] public contractaddresses;\r\n\r\n    mapping (address => ContractAddresses) public farmerContractMapping;\r\n    mapping (uint => address) public farmerAddresses;\r\n\r\n    function getContractsForFarmer() public view returns(ContractAddresses memory){\r\n        return(farmerContractMapping[msg.sender]);\r\n    }\r\n\r\n\t function getContractsForFarmerAtAddress(address farmerAddr) public view returns(ContractAddresses memory){\r\n        return(farmerContractMapping[farmerAddr]);\r\n    }\r\n\r\n\r\n    function createCropForFarmer() public payable{\r\n\t\tCrop newCrop = new Crop(msg.sender);\r\n\t\tGovtInput newGovrep = new GovtInput();\r\n\t\tnewCrop.setAddress(address(newGovrep));\r\n\t\tnewGovrep.setAddress(address(newCrop));\r\n        farmerContractMapping[msg.sender] = ContractAddresses(address(newCrop),address(newGovrep));\r\n        farmerAddresses[j] = msg.sender; \r\n        contractaddresses.push(ContractAddresses(address(newCrop),address(newGovrep)));\r\n\t\tj++;\r\n    }\r\n    \r\n\tfunction getFarmerContractMapping() public view returns(ContractAddresses[] memory){\r\n\t    return contractaddresses;\r\n\t}\r\n}",
  "sourcePath": "C:/Users/addzy/FarmFund/contracts/CropFactory.sol",
  "compiler": {
    "name": "solc",
    "version": "0.8.1+commit.df193b15.Emscripten.clang"
  },
  "schemaVersion": "3.4.1",
  "updatedAt": "2021-06-13T19:49:41.716Z",
  "devdoc": {
    "kind": "dev",
    "methods": {},
    "version": 1
  },
  "userdoc": {
    "kind": "user",
    "methods": {},
    "version": 1
  }
}