{
  "contractName": "Crop",
  "abi": [
    {
      "inputs": [
        {
          "internalType": "address",
          "name": "creator",
          "type": "address"
        }
      ],
      "stateMutability": "nonpayable",
      "type": "constructor"
    },
    {
      "inputs": [],
      "name": "amtRaised",
      "outputs": [
        {
          "internalType": "uint256",
          "name": "",
          "type": "uint256"
        }
      ],
      "stateMutability": "view",
      "type": "function",
      "constant": true
    },
    {
      "inputs": [],
      "name": "farmer",
      "outputs": [
        {
          "internalType": "address",
          "name": "",
          "type": "address"
        }
      ],
      "stateMutability": "view",
      "type": "function",
      "constant": true
    },
    {
      "inputs": [
        {
          "internalType": "address",
          "name": "",
          "type": "address"
        }
      ],
      "name": "investAmt",
      "outputs": [
        {
          "internalType": "uint256",
          "name": "",
          "type": "uint256"
        }
      ],
      "stateMutability": "view",
      "type": "function",
      "constant": true
    },
    {
      "inputs": [
        {
          "internalType": "uint256",
          "name": "",
          "type": "uint256"
        }
      ],
      "name": "investedPercent",
      "outputs": [
        {
          "internalType": "uint256",
          "name": "",
          "type": "uint256"
        }
      ],
      "stateMutability": "view",
      "type": "function",
      "constant": true
    },
    {
      "inputs": [
        {
          "internalType": "uint256",
          "name": "",
          "type": "uint256"
        }
      ],
      "name": "investors",
      "outputs": [
        {
          "internalType": "address",
          "name": "",
          "type": "address"
        }
      ],
      "stateMutability": "view",
      "type": "function",
      "constant": true
    },
    {
      "inputs": [
        {
          "internalType": "uint256",
          "name": "",
          "type": "uint256"
        }
      ],
      "name": "investorsAddress",
      "outputs": [
        {
          "internalType": "address",
          "name": "",
          "type": "address"
        }
      ],
      "stateMutability": "view",
      "type": "function",
      "constant": true
    },
    {
      "inputs": [],
      "name": "minInvestment",
      "outputs": [
        {
          "internalType": "uint256",
          "name": "",
          "type": "uint256"
        }
      ],
      "stateMutability": "view",
      "type": "function",
      "constant": true
    },
    {
      "inputs": [],
      "name": "reputation",
      "outputs": [
        {
          "internalType": "uint256",
          "name": "",
          "type": "uint256"
        }
      ],
      "stateMutability": "view",
      "type": "function",
      "constant": true
    },
    {
      "inputs": [],
      "name": "requestNo",
      "outputs": [
        {
          "internalType": "uint256",
          "name": "",
          "type": "uint256"
        }
      ],
      "stateMutability": "view",
      "type": "function",
      "constant": true
    },
    {
      "inputs": [
        {
          "internalType": "uint256",
          "name": "",
          "type": "uint256"
        }
      ],
      "name": "requests",
      "outputs": [
        {
          "internalType": "string",
          "name": "description",
          "type": "string"
        },
        {
          "internalType": "uint256",
          "name": "amount",
          "type": "uint256"
        },
        {
          "internalType": "uint256",
          "name": "no_of_days",
          "type": "uint256"
        },
        {
          "internalType": "uint256",
          "name": "expirydate",
          "type": "uint256"
        },
        {
          "internalType": "uint256",
          "name": "investorsCount",
          "type": "uint256"
        },
        {
          "internalType": "bool",
          "name": "complete",
          "type": "bool"
        }
      ],
      "stateMutability": "view",
      "type": "function",
      "constant": true
    },
    {
      "inputs": [],
      "name": "returned",
      "outputs": [
        {
          "internalType": "bool",
          "name": "",
          "type": "bool"
        }
      ],
      "stateMutability": "view",
      "type": "function",
      "constant": true
    },
    {
      "inputs": [],
      "name": "verified",
      "outputs": [
        {
          "internalType": "bool",
          "name": "",
          "type": "bool"
        }
      ],
      "stateMutability": "view",
      "type": "function",
      "constant": true
    },
    {
      "inputs": [
        {
          "internalType": "address",
          "name": "_address",
          "type": "address"
        }
      ],
      "name": "setAddress",
      "outputs": [],
      "stateMutability": "nonpayable",
      "type": "function"
    },
    {
      "inputs": [],
      "name": "investment",
      "outputs": [],
      "stateMutability": "payable",
      "type": "function",
      "payable": true
    },
    {
      "inputs": [
        {
          "internalType": "uint256",
          "name": "requestID",
          "type": "uint256"
        }
      ],
      "name": "investorCount",
      "outputs": [
        {
          "internalType": "uint256",
          "name": "",
          "type": "uint256"
        }
      ],
      "stateMutability": "view",
      "type": "function",
      "constant": true
    },
    {
      "inputs": [
        {
          "internalType": "string",
          "name": "description",
          "type": "string"
        },
        {
          "internalType": "uint256",
          "name": "amount",
          "type": "uint256"
        },
        {
          "internalType": "uint256",
          "name": "no_of_days",
          "type": "uint256"
        }
      ],
      "name": "createRequest",
      "outputs": [],
      "stateMutability": "nonpayable",
      "type": "function"
    },
    {
      "inputs": [],
      "name": "finalizeRequest",
      "outputs": [],
      "stateMutability": "nonpayable",
      "type": "function"
    },
    {
      "inputs": [],
      "name": "getSummary",
      "outputs": [
        {
          "internalType": "uint256[]",
          "name": "",
          "type": "uint256[]"
        },
        {
          "internalType": "address[]",
          "name": "",
          "type": "address[]"
        },
        {
          "internalType": "uint256",
          "name": "",
          "type": "uint256"
        },
        {
          "internalType": "uint256",
          "name": "",
          "type": "uint256"
        },
        {
          "internalType": "uint256",
          "name": "",
          "type": "uint256"
        },
        {
          "internalType": "uint256",
          "name": "",
          "type": "uint256"
        },
        {
          "internalType": "bool",
          "name": "",
          "type": "bool"
        },
        {
          "internalType": "bool",
          "name": "",
          "type": "bool"
        },
        {
          "internalType": "address",
          "name": "",
          "type": "address"
        }
      ],
      "stateMutability": "view",
      "type": "function",
      "constant": true
    },
    {
      "inputs": [],
      "name": "getInvestPercentage",
      "outputs": [],
      "stateMutability": "nonpayable",
      "type": "function"
    },
    {
      "inputs": [],
      "name": "retInvestPercentage",
      "outputs": [
        {
          "internalType": "uint256[]",
          "name": "",
          "type": "uint256[]"
        }
      ],
      "stateMutability": "view",
      "type": "function",
      "constant": true
    },
    {
      "inputs": [],
      "name": "retInvestAddress",
      "outputs": [
        {
          "internalType": "address[]",
          "name": "",
          "type": "address[]"
        }
      ],
      "stateMutability": "view",
      "type": "function",
      "constant": true
    },
    {
      "inputs": [],
      "name": "resetInvestedPercentAndInvestorsAddress",
      "outputs": [],
      "stateMutability": "nonpayable",
      "type": "function"
    },
    {
      "inputs": [],
      "name": "VerifiedOrNot",
      "outputs": [],
      "stateMutability": "nonpayable",
      "type": "function"
    }
  ],
  "bytecode": "0x60806040526000600255600160035560006004556000600560006101000a81548160ff0219169083151502179055506000600560016101000a81548160ff0219169083151502179055506000600b553480156200005b57600080fd5b5060405162001fc038038062001fc08339818101604052810190620000819190620000e0565b80600a60006101000a81548173ffffffffffffffffffffffffffffffffffffffff021916908373ffffffffffffffffffffffffffffffffffffffff160217905550506200015a565b600081519050620000da8162000140565b92915050565b600060208284031215620000f357600080fd5b60006200010384828501620000c9565b91505092915050565b6000620001198262000120565b9050919050565b600073ffffffffffffffffffffffffffffffffffffffff82169050919050565b6200014b816200010c565b81146200015757600080fd5b50565b611e56806200016a6000396000f3fe6080604052600436106101405760003560e01c806390a59e52116100b6578063d811fcf01161006f578063d811fcf014610418578063dce5f27714610443578063e30081a014610480578063e391f55a146104a9578063f8c29fc4146104c0578063fbccc841146104fd57610140565b806390a59e521461032c57806399bd3600146103695780639b09c64414610380578063bbb82d89146103ab578063c52164c6146103d6578063c57480d81461040157610140565b8063509cfe4211610108578063509cfe42146102155780636a0702b2146102525780636c1f7952146102695780636cb764081461029457806381d12c58146102bf5780638ac2c6801461030157610140565b80631344aec9146101455780631bbadccc146101705780633feb5f2b1461019b5780634051ddac146101d857806345fbfbca1461020b575b600080fd5b34801561015157600080fd5b5061015a610526565b60405161016791906119c4565b60405180910390f35b34801561017c57600080fd5b5061018561052c565b6040516101929190611862565b60405180910390f35b3480156101a757600080fd5b506101c260048036038101906101bd9190611685565b6105ba565b6040516101cf9190611847565b60405180910390f35b3480156101e457600080fd5b506101ed6105ed565b604051610202999897969594939291906118a6565b60405180910390f35b610213610746565b005b34801561022157600080fd5b5061023c60048036038101906102379190611685565b6108ab565b60405161024991906119c4565b60405180910390f35b34801561025e57600080fd5b506102676108cf565b005b34801561027557600080fd5b5061027e61098a565b60405161028b91906119c4565b60405180910390f35b3480156102a057600080fd5b506102a9610990565b6040516102b69190611941565b60405180910390f35b3480156102cb57600080fd5b506102e660048036038101906102e19190611685565b6109a3565b6040516102f89695949392919061195c565b60405180910390f35b34801561030d57600080fd5b50610316610a84565b60405161032391906119c4565b60405180910390f35b34801561033857600080fd5b50610353600480360381019061034e91906115cc565b610a8a565b60405161036091906119c4565b60405180910390f35b34801561037557600080fd5b5061037e610aa2565b005b34801561038c57600080fd5b50610395610bfa565b6040516103a29190611884565b60405180910390f35b3480156103b757600080fd5b506103c0610c52565b6040516103cd9190611941565b60405180910390f35b3480156103e257600080fd5b506103eb610c65565b6040516103f891906119c4565b60405180910390f35b34801561040d57600080fd5b50610416610c6b565b005b34801561042457600080fd5b5061042d610e4a565b60405161043a9190611847565b60405180910390f35b34801561044f57600080fd5b5061046a60048036038101906104659190611685565b610e70565b6040516104779190611847565b60405180910390f35b34801561048c57600080fd5b506104a760048036038101906104a291906115cc565b610eaf565b005b3480156104b557600080fd5b506104be610ef2565b005b3480156104cc57600080fd5b506104e760048036038101906104e29190611685565b61102c565b6040516104f491906119c4565b60405180910390f35b34801561050957600080fd5b50610524600480360381019061051f919061161e565b611086565b005b60025481565b606060078054806020026020016040519081016040528092919081815260200182805480156105b057602002820191906000526020600020905b8160009054906101000a900473ffffffffffffffffffffffffffffffffffffffff1673ffffffffffffffffffffffffffffffffffffffff1681526020019060010190808311610566575b5050505050905090565b60086020528060005260406000206000915054906101000a900473ffffffffffffffffffffffffffffffffffffffff1681565b60608060008060008060008060006006600760035447600180549050600454600560019054906101000a900460ff16600560009054906101000a900460ff16600a60009054906101000a900473ffffffffffffffffffffffffffffffffffffffff168880548060200260200160405190810160405280929190818152602001828054801561069a57602002820191906000526020600020905b815481526020019060010190808311610686575b505050505098508780548060200260200160405190810160405280929190818152602001828054801561072257602002820191906000526020600020905b8160009054906101000a900473ffffffffffffffffffffffffffffffffffffffff1673ffffffffffffffffffffffffffffffffffffffff16815260200190600101908083116106d8575b50505050509750985098509850985098509850985098509850909192939495969798565b6000600180600b546107589190611ba4565b8154811061078f577f4e487b7100000000000000000000000000000000000000000000000000000000600052603260045260246000fd5b90600052602060002090600602019050600015158160050160009054906101000a900460ff161515146107c157600080fd5b806003015442106107d157600080fd5b6003543410156107e057600080fd5b346002546107ee9190611ac3565b60028190555033600860008360040154815260200190815260200160002060006101000a81548173ffffffffffffffffffffffffffffffffffffffff021916908373ffffffffffffffffffffffffffffffffffffffff16021790555080600401600081548092919061085f90611cc5565b919050555034600960003373ffffffffffffffffffffffffffffffffffffffff1673ffffffffffffffffffffffffffffffffffffffff1681526020019081526020016000208190555050565b600681815481106108bb57600080fd5b906000526020600020016000915090505481565b60008054906101000a900473ffffffffffffffffffffffffffffffffffffffff1673ffffffffffffffffffffffffffffffffffffffff16634ffe2a8b6040518163ffffffff1660e01b8152600401602060405180830381600087803b15801561093757600080fd5b505af115801561094b573d6000803e3d6000fd5b505050506040513d601f19601f8201168201806040525081019061096f91906115f5565b600560016101000a81548160ff021916908315150217905550565b600b5481565b600560009054906101000a900460ff1681565b600181815481106109b357600080fd5b90600052602060002090600602016000915090508060000180546109d690611c62565b80601f0160208091040260200160405190810160405280929190818152602001828054610a0290611c62565b8015610a4f5780601f10610a2457610100808354040283529160200191610a4f565b820191906000526020600020905b815481529060010190602001808311610a3257829003601f168201915b5050505050908060010154908060020154908060030154908060040154908060050160009054906101000a900460ff16905086565b60035481565b60096020528060005260406000206000915090505481565b600a60009054906101000a900473ffffffffffffffffffffffffffffffffffffffff1673ffffffffffffffffffffffffffffffffffffffff163373ffffffffffffffffffffffffffffffffffffffff1614610afc57600080fd5b6000600180600b54610b0e9190611ba4565b81548110610b45577f4e487b7100000000000000000000000000000000000000000000000000000000600052603260045260246000fd5b906000526020600020906006020190508060050160009054906101000a900460ff1615610b7157600080fd5b600a60009054906101000a900473ffffffffffffffffffffffffffffffffffffffff1673ffffffffffffffffffffffffffffffffffffffff166108fc479081150290604051600060405180830381858888f19350505050158015610bd9573d6000803e3d6000fd5b5060018160050160006101000a81548160ff02191690831515021790555050565b60606006805480602002602001604051908101604052809291908181526020018280548015610c4857602002820191906000526020600020905b815481526020019060010190808311610c34575b5050505050905090565b600560019054906101000a900460ff1681565b60045481565b600080600080600180600b54610c819190611ba4565b81548110610cb8577f4e487b7100000000000000000000000000000000000000000000000000000000600052603260045260246000fd5b90600052602060002090600602019050600091505b8060040154821015610e3c5760076008600084815260200190815260200160002060009054906101000a900473ffffffffffffffffffffffffffffffffffffffff169080600181540180825580915050600190039060005260206000200160009091909190916101000a81548173ffffffffffffffffffffffffffffffffffffffff021916908373ffffffffffffffffffffffffffffffffffffffff160217905550600960006008600085815260200190815260200160002060009054906101000a900473ffffffffffffffffffffffffffffffffffffffff1673ffffffffffffffffffffffffffffffffffffffff1673ffffffffffffffffffffffffffffffffffffffff168152602001908152602001600020549350600254606485610df49190611b4a565b610dfe9190611b19565b925060068390806001815401808255809150506001900390600052602060002001600090919091909150558180610e3490611cc5565b925050610ccd565b600060028190555050505050565b600a60009054906101000a900473ffffffffffffffffffffffffffffffffffffffff1681565b60078181548110610e8057600080fd5b906000526020600020016000915054906101000a900473ffffffffffffffffffffffffffffffffffffffff1681565b806000806101000a81548173ffffffffffffffffffffffffffffffffffffffff021916908373ffffffffffffffffffffffffffffffffffffffff16021790555050565b6000600180600b54610f049190611ba4565b81548110610f3b577f4e487b7100000000000000000000000000000000000000000000000000000000600052603260045260246000fd5b9060005260206000209060060201905060005b8160040154811015611028576006805480610f92577f4e487b7100000000000000000000000000000000000000000000000000000000600052603160045260246000fd5b600190038181906000526020600020016000905590556007805480610fe0577f4e487b7100000000000000000000000000000000000000000000000000000000600052603160045260246000fd5b6001900381819060005260206000200160006101000a81549073ffffffffffffffffffffffffffffffffffffffff02191690559055808061102090611cc5565b915050610f4e565b5050565b60008060018381548110611069577f4e487b7100000000000000000000000000000000000000000000000000000000600052603260045260246000fd5b906000526020600020906006020190508060040154915050919050565b600a60009054906101000a900473ffffffffffffffffffffffffffffffffffffffff1673ffffffffffffffffffffffffffffffffffffffff163373ffffffffffffffffffffffffffffffffffffffff16146110e057600080fd5b60008054906101000a900473ffffffffffffffffffffffffffffffffffffffff1673ffffffffffffffffffffffffffffffffffffffff1663fc2ebd416040518163ffffffff1660e01b8152600401602060405180830381600087803b15801561114857600080fd5b505af115801561115c573d6000803e3d6000fd5b505050506040513d601f19601f8201168201806040525081019061118091906116ae565b6004819055506000600b54111561127c5760008054906101000a900473ffffffffffffffffffffffffffffffffffffffff1673ffffffffffffffffffffffffffffffffffffffff1663be05eff56040518163ffffffff1660e01b815260040160206040518083038186803b1580156111f757600080fd5b505afa15801561120b573d6000803e3d6000fd5b505050506040513d601f19601f8201168201806040525081019061122f91906115f5565b600560006101000a81548160ff02191690831515021790555060286004541161125757600080fd5b60011515600560009054906101000a900460ff1615151461127757600080fd5b611356565b60008054906101000a900473ffffffffffffffffffffffffffffffffffffffff1673ffffffffffffffffffffffffffffffffffffffff16634ffe2a8b6040518163ffffffff1660e01b8152600401602060405180830381600087803b1580156112e457600080fd5b505af11580156112f8573d6000803e3d6000fd5b505050506040513d601f19601f8201168201806040525081019061131c91906115f5565b600560016101000a81548160ff02191690831515021790555060011515600560019054906101000a900460ff1615151461135557600080fd5b5b60006040518060c0016040528085815260200184815260200183815260200183620151806113849190611b4a565b4261138f9190611ac3565b815260200160008152602001600015158152509050600181908060018154018082558091505060019003906000526020600020906006020160009091909190915060008201518160000190805190602001906113ec92919061146d565b506020820151816001015560408201518160020155606082015181600301556080820151816004015560a08201518160050160006101000a81548160ff02191690831515021790555050506001600b546114469190611ac3565b600b819055506000600560006101000a81548160ff02191690831515021790555050505050565b82805461147990611c62565b90600052602060002090601f01602090048101928261149b57600085556114e2565b82601f106114b457805160ff19168380011785556114e2565b828001600101855582156114e2579182015b828111156114e15782518255916020019190600101906114c6565b5b5090506114ef91906114f3565b5090565b5b8082111561150c5760008160009055506001016114f4565b5090565b600061152361151e84611a04565b6119df565b90508281526020810184848401111561153b57600080fd5b611546848285611c20565b509392505050565b60008135905061155d81611ddb565b92915050565b60008151905061157281611df2565b92915050565b600082601f83011261158957600080fd5b8135611599848260208601611510565b91505092915050565b6000813590506115b181611e09565b92915050565b6000815190506115c681611e09565b92915050565b6000602082840312156115de57600080fd5b60006115ec8482850161154e565b91505092915050565b60006020828403121561160757600080fd5b600061161584828501611563565b91505092915050565b60008060006060848603121561163357600080fd5b600084013567ffffffffffffffff81111561164d57600080fd5b61165986828701611578565b935050602061166a868287016115a2565b925050604061167b868287016115a2565b9150509250925092565b60006020828403121561169757600080fd5b60006116a5848285016115a2565b91505092915050565b6000602082840312156116c057600080fd5b60006116ce848285016115b7565b91505092915050565b60006116e38383611707565b60208301905092915050565b60006116fb8383611829565b60208301905092915050565b61171081611bd8565b82525050565b61171f81611bd8565b82525050565b600061173082611a55565b61173a8185611a90565b935061174583611a35565b8060005b8381101561177657815161175d88826116d7565b975061176883611a76565b925050600181019050611749565b5085935050505092915050565b600061178e82611a60565b6117988185611aa1565b93506117a383611a45565b8060005b838110156117d45781516117bb88826116ef565b97506117c683611a83565b9250506001810190506117a7565b5085935050505092915050565b6117ea81611bea565b82525050565b60006117fb82611a6b565b6118058185611ab2565b9350611815818560208601611c2f565b61181e81611dca565b840191505092915050565b61183281611c16565b82525050565b61184181611c16565b82525050565b600060208201905061185c6000830184611716565b92915050565b6000602082019050818103600083015261187c8184611725565b905092915050565b6000602082019050818103600083015261189e8184611783565b905092915050565b60006101208201905081810360008301526118c1818c611783565b905081810360208301526118d5818b611725565b90506118e4604083018a611838565b6118f16060830189611838565b6118fe6080830188611838565b61190b60a0830187611838565b61191860c08301866117e1565b61192560e08301856117e1565b611933610100830184611716565b9a9950505050505050505050565b600060208201905061195660008301846117e1565b92915050565b600060c082019050818103600083015261197681896117f0565b90506119856020830188611838565b6119926040830187611838565b61199f6060830186611838565b6119ac6080830185611838565b6119b960a08301846117e1565b979650505050505050565b60006020820190506119d96000830184611838565b92915050565b60006119e96119fa565b90506119f58282611c94565b919050565b6000604051905090565b600067ffffffffffffffff821115611a1f57611a1e611d9b565b5b611a2882611dca565b9050602081019050919050565b6000819050602082019050919050565b6000819050602082019050919050565b600081519050919050565b600081519050919050565b600081519050919050565b6000602082019050919050565b6000602082019050919050565b600082825260208201905092915050565b600082825260208201905092915050565b600082825260208201905092915050565b6000611ace82611c16565b9150611ad983611c16565b9250827fffffffffffffffffffffffffffffffffffffffffffffffffffffffffffffffff03821115611b0e57611b0d611d0e565b5b828201905092915050565b6000611b2482611c16565b9150611b2f83611c16565b925082611b3f57611b3e611d3d565b5b828204905092915050565b6000611b5582611c16565b9150611b6083611c16565b9250817fffffffffffffffffffffffffffffffffffffffffffffffffffffffffffffffff0483118215151615611b9957611b98611d0e565b5b828202905092915050565b6000611baf82611c16565b9150611bba83611c16565b925082821015611bcd57611bcc611d0e565b5b828203905092915050565b6000611be382611bf6565b9050919050565b60008115159050919050565b600073ffffffffffffffffffffffffffffffffffffffff82169050919050565b6000819050919050565b82818337600083830152505050565b60005b83811015611c4d578082015181840152602081019050611c32565b83811115611c5c576000848401525b50505050565b60006002820490506001821680611c7a57607f821691505b60208210811415611c8e57611c8d611d6c565b5b50919050565b611c9d82611dca565b810181811067ffffffffffffffff82111715611cbc57611cbb611d9b565b5b80604052505050565b6000611cd082611c16565b91507fffffffffffffffffffffffffffffffffffffffffffffffffffffffffffffffff821415611d0357611d02611d0e565b5b600182019050919050565b7f4e487b7100000000000000000000000000000000000000000000000000000000600052601160045260246000fd5b7f4e487b7100000000000000000000000000000000000000000000000000000000600052601260045260246000fd5b7f4e487b7100000000000000000000000000000000000000000000000000000000600052602260045260246000fd5b7f4e487b7100000000000000000000000000000000000000000000000000000000600052604160045260246000fd5b6000601f19601f8301169050919050565b611de481611bd8565b8114611def57600080fd5b50565b611dfb81611bea565b8114611e0657600080fd5b50565b611e1281611c16565b8114611e1d57600080fd5b5056fea264697066735822122042f65426ac1af08e70245c977ea4484f552a85ec403b324b8db797cefdb9e3be64736f6c63430008010033",
  "immutableReferences": {},
  "source": "// SPDX-License-Identifier: MIT\r\npragma solidity ^0.8.1;\r\n\r\nimport './GovtInput.sol';\r\n\r\ncontract Crop{\r\n    struct Request{\r\n        string description;\r\n        uint amount;\r\n        uint no_of_days;\r\n        uint expirydate;\r\n        uint investorsCount;\r\n        bool complete;\r\n    }\r\n    \r\n    GovtInput gov;\r\n    \r\n    function setAddress(address _address) public{\r\n        gov = GovtInput(_address);\r\n    }\r\n    \r\n    Request[] public requests; \r\n    \r\n    uint256 public amtRaised = 0;\r\n    uint public minInvestment = 1;\r\n    uint256 public reputation = 0;\r\n    bool public returned = false;\r\n    bool public verified = false;\r\n    uint256[] public investedPercent;\r\n    address[] public investorsAddress;\r\n    mapping(uint => address) public investors;  \r\n    mapping(address => uint) public investAmt;\r\n    address public farmer;\r\n    uint public requestNo = 0;\r\n    \r\n    modifier authorization()\r\n    {\r\n        require(msg.sender == farmer);\r\n        _;\r\n    }\r\n\r\n     constructor(address creator){\r\n        farmer = creator;\r\n    }\r\n\r\n    /*function MainAccountAddress(address _farmer) public{\r\n        farmer = _farmer;\r\n    } */\r\n\r\n    function investment() public payable{\r\n        Request storage request = requests[requestNo - 1];\r\n        \r\n        require(request.complete == false);\r\n        require(block.timestamp < request.expirydate);\r\n        require(msg.value >= minInvestment);\r\n        \r\n        amtRaised = amtRaised + msg.value;\r\n        \r\n        investors[request.investorsCount] = msg.sender;\r\n        \r\n        request.investorsCount++;\r\n        \r\n        investAmt[msg.sender] = msg.value;\r\n    }\r\n\r\n    function investorCount(uint requestID) public view returns(uint) {\r\n        Request storage request = requests[requestID];\r\n        return(\r\n            request.investorsCount\r\n            );\r\n    }\r\n\r\n    function createRequest(string memory description, uint amount, uint no_of_days) public authorization{\r\n        reputation = gov.setRep();\r\n        if(requestNo > 0){\r\n        returned = gov._returned();\r\n        require(reputation > 40);\r\n        require(returned == true);\r\n        }\r\n        else {\r\n        verified = gov.verification();\r\n        require(verified == true);\r\n        }\r\n        Request memory newReq = Request({\r\n            description : description,\r\n            amount : amount,\r\n            no_of_days : no_of_days,\r\n            expirydate : block.timestamp + (86400 * no_of_days),\r\n            investorsCount : 0,\r\n            complete : false\r\n        });\r\n\r\n        requests.push(newReq);\r\n        requestNo = requestNo + 1;\r\n        returned = false;\r\n    }\r\n\r\n    function finalizeRequest() public authorization{\r\n        Request storage request = requests[requestNo - 1];\r\n        require(!request.complete);\r\n        payable(farmer).transfer(address(this).balance); // once farmer gets the amount he cannont get more investors\r\n        request.complete = true;\r\n    }\r\n    \r\n    function getSummary() public view returns (uint256[] memory,address[] memory, uint, uint, uint, uint, bool, bool, address) {\r\n        return (\r\n            investedPercent,\r\n            investorsAddress,\r\n            minInvestment,\r\n            address(this).balance,  //request current balance of contract\r\n            requests.length,\r\n            reputation,\r\n            verified,\r\n            returned,\r\n            farmer\r\n            );\r\n    }\r\n   \r\n    function getInvestPercentage() public {\r\n        uint256 share;\r\n        uint256 temp;\r\n        uint i;\r\n        Request storage request = requests[requestNo - 1 ];\r\n        for(i = 0; i < request.investorsCount; i++)\r\n        {\r\n            investorsAddress.push(investors[i]);\r\n            share = investAmt[investors[i]];\r\n            temp = ( share * 100) / amtRaised;\r\n            investedPercent.push(temp);\r\n        }\r\n        amtRaised = 0;\r\n        \r\n    }\r\n    function retInvestPercentage() public view returns(uint256[] memory) {\r\n        return investedPercent;\r\n    }\r\n     function retInvestAddress() public view returns(address[] memory) {\r\n        return investorsAddress;\r\n    }\r\n    \r\n    function resetInvestedPercentAndInvestorsAddress() public {\r\n        Request storage request = requests[requestNo - 1];\r\n        uint i;\r\n        for(i = 0;i < request.investorsCount; i++)\r\n        {\r\n            investedPercent.pop();\r\n            investorsAddress.pop();\r\n        }\r\n    }\r\n\r\n    function VerifiedOrNot() public {\r\n\t\tverified = gov.verification();\r\n\t}\r\n    \r\n}",
  "sourcePath": "C:\\Users\\rashmitha\\Desktop\\final-year-project\\contracts\\Crop.sol",
  "compiler": {
    "name": "solc",
    "version": "0.8.1+commit.df193b15.Emscripten.clang"
  },
  "schemaVersion": "3.4.1",
  "updatedAt": "2021-06-14T02:56:50.025Z",
  "networkType": "ethereum",
  "devdoc": {
    "kind": "dev",
    "methods": {},
    "version": 1
  },
  "userdoc": {
    "kind": "user",
    "methods": {},
    "version": 1
  }
}