{
  "contractName": "GovtInput",
  "abi": [
    {
      "inputs": [],
      "name": "_farmer",
      "outputs": [
        {
          "internalType": "address",
          "name": "",
          "type": "address"
        }
      ],
      "stateMutability": "view",
      "type": "function",
      "constant": true
    },
    {
      "inputs": [],
      "name": "_reputation",
      "outputs": [
        {
          "internalType": "uint256",
          "name": "",
          "type": "uint256"
        }
      ],
      "stateMutability": "view",
      "type": "function",
      "constant": true
    },
    {
      "inputs": [
        {
          "internalType": "uint256",
          "name": "",
          "type": "uint256"
        }
      ],
      "name": "_returnAddress",
      "outputs": [
        {
          "internalType": "address",
          "name": "",
          "type": "address"
        }
      ],
      "stateMutability": "view",
      "type": "function",
      "constant": true
    },
    {
      "inputs": [
        {
          "internalType": "uint256",
          "name": "",
          "type": "uint256"
        }
      ],
      "name": "_returnPercent",
      "outputs": [
        {
          "internalType": "uint256",
          "name": "",
          "type": "uint256"
        }
      ],
      "stateMutability": "view",
      "type": "function",
      "constant": true
    },
    {
      "inputs": [],
      "name": "_returned",
      "outputs": [
        {
          "internalType": "bool",
          "name": "",
          "type": "bool"
        }
      ],
      "stateMutability": "view",
      "type": "function",
      "constant": true
    },
    {
      "inputs": [],
      "name": "complete",
      "outputs": [
        {
          "internalType": "bool",
          "name": "",
          "type": "bool"
        }
      ],
      "stateMutability": "view",
      "type": "function",
      "constant": true
    },
    {
      "inputs": [],
      "name": "returnAmt",
      "outputs": [
        {
          "internalType": "uint256",
          "name": "",
          "type": "uint256"
        }
      ],
      "stateMutability": "view",
      "type": "function",
      "constant": true
    },
    {
      "inputs": [],
      "name": "returnPercent",
      "outputs": [
        {
          "internalType": "uint256",
          "name": "",
          "type": "uint256"
        }
      ],
      "stateMutability": "view",
      "type": "function",
      "constant": true
    },
    {
      "inputs": [],
      "name": "verified",
      "outputs": [
        {
          "internalType": "bool",
          "name": "",
          "type": "bool"
        }
      ],
      "stateMutability": "view",
      "type": "function",
      "constant": true
    },
    {
      "inputs": [
        {
          "internalType": "address",
          "name": "_address",
          "type": "address"
        }
      ],
      "name": "setAddress",
      "outputs": [],
      "stateMutability": "nonpayable",
      "type": "function"
    },
    {
      "inputs": [],
      "name": "getInvestAddressAndPercentage",
      "outputs": [],
      "stateMutability": "nonpayable",
      "type": "function"
    },
    {
      "inputs": [],
      "name": "payInvestors",
      "outputs": [],
      "stateMutability": "nonpayable",
      "type": "function"
    },
    {
      "inputs": [],
      "name": "setRep",
      "outputs": [
        {
          "internalType": "uint256",
          "name": "",
          "type": "uint256"
        }
      ],
      "stateMutability": "nonpayable",
      "type": "function"
    },
    {
      "inputs": [],
      "name": "verification",
      "outputs": [
        {
          "internalType": "bool",
          "name": "",
          "type": "bool"
        }
      ],
      "stateMutability": "nonpayable",
      "type": "function"
    },
    {
      "inputs": [
        {
          "internalType": "uint256",
          "name": "_returnAmt",
          "type": "uint256"
        }
      ],
      "name": "getRetAmt",
      "outputs": [],
      "stateMutability": "payable",
      "type": "function",
      "payable": true
    },
    {
      "inputs": [],
      "name": "getSummary",
      "outputs": [
        {
          "internalType": "uint256[]",
          "name": "",
          "type": "uint256[]"
        },
        {
          "internalType": "uint256",
          "name": "",
          "type": "uint256"
        },
        {
          "internalType": "address[]",
          "name": "",
          "type": "address[]"
        },
        {
          "internalType": "uint256",
          "name": "",
          "type": "uint256"
        },
        {
          "internalType": "bool",
          "name": "",
          "type": "bool"
        },
        {
          "internalType": "bool",
          "name": "",
          "type": "bool"
        },
        {
          "internalType": "uint256",
          "name": "",
          "type": "uint256"
        },
        {
          "internalType": "address",
          "name": "",
          "type": "address"
        }
      ],
      "stateMutability": "view",
      "type": "function",
      "constant": true
    }
  ],
  "bytecode": "0x60806040526000600160006101000a81548160ff0219169083151502179055506000600660006101000a81548160ff0219169083151502179055506000600960146101000a81548160ff02191690831515021790555034801561006157600080fd5b50611bec806100716000396000f3fe6080604052600436106100f25760003560e01c80638252ffc11161008a578063c31d3a6d11610059578063c31d3a6d14610303578063e30081a01461031a578063f9b5cbab14610343578063fc2ebd411461036e576100f2565b80638252ffc114610257578063a4327a3814610282578063bbb82d89146102ad578063be05eff5146102d8576100f2565b80634ffe2a8b116100c65780634ffe2a8b146101ce578063522e1177146101f95780635f0fd51b146102245780636e07c07914610240576100f2565b8062513a94146100f75780630e74591814610134578063401e7bf5146101715780634051ddac1461019c575b600080fd5b34801561010357600080fd5b5061011e600480360381019061011991906115a7565b610399565b60405161012b91906117f2565b60405180910390f35b34801561014057600080fd5b5061015b600480360381019061015691906115a7565b6103bd565b6040516101689190611730565b60405180910390f35b34801561017d57600080fd5b506101866103fc565b60405161019391906117f2565b60405180910390f35b3480156101a857600080fd5b506101b1610402565b6040516101c598979695949392919061174b565b60405180910390f35b3480156101da57600080fd5b506101e3610552565b6040516101f091906117d7565b60405180910390f35b34801561020557600080fd5b5061020e610663565b60405161021b91906117d7565b60405180910390f35b61023e600480360381019061023991906115a7565b610676565b005b34801561024c57600080fd5b50610255610866565b005b34801561026357600080fd5b5061026c610aee565b60405161027991906117f2565b60405180910390f35b34801561028e57600080fd5b50610297610af4565b6040516102a49190611730565b60405180910390f35b3480156102b957600080fd5b506102c2610b1a565b6040516102cf91906117d7565b60405180910390f35b3480156102e457600080fd5b506102ed610b2d565b6040516102fa91906117d7565b60405180910390f35b34801561030f57600080fd5b50610318610b40565b005b34801561032657600080fd5b50610341600480360381019061033c91906114aa565b610d18565b005b34801561034f57600080fd5b50610358610d5c565b60405161036591906117f2565b60405180910390f35b34801561037a57600080fd5b50610383610d62565b60405161039091906117f2565b60405180910390f35b600781815481106103a957600080fd5b906000526020600020016000915090505481565b600881815481106103cd57600080fd5b906000526020600020016000915054906101000a900473ffffffffffffffffffffffffffffffffffffffff1681565b60055481565b60606000606060008060008060006007476008600554600160009054906101000a900460ff16600660009054906101000a900460ff16600054600460009054906101000a900473ffffffffffffffffffffffffffffffffffffffff16878054806020026020016040519081016040528092919081815260200182805480156104a957602002820191906000526020600020905b815481526020019060010190808311610495575b505050505097508580548060200260200160405190810160405280929190818152602001828054801561053157602002820191906000526020600020905b8160009054906101000a900473ffffffffffffffffffffffffffffffffffffffff1673ffffffffffffffffffffffffffffffffffffffff16815260200190600101908083116104e7575b50505050509550975097509750975097509750975097509091929394959697565b6000600360009054906101000a900473ffffffffffffffffffffffffffffffffffffffff1673ffffffffffffffffffffffffffffffffffffffff1663d811fcf06040518163ffffffff1660e01b815260040160206040518083038186803b1580156105bc57600080fd5b505afa1580156105d0573d6000803e3d6000fd5b505050506040513d601f19601f820116820180604052508101906105f491906114d3565b600460006101000a81548173ffffffffffffffffffffffffffffffffffffffff021916908373ffffffffffffffffffffffffffffffffffffffff16021790555060018060006101000a81548160ff021916908315150217905550600160009054906101000a900460ff16905090565b600960149054906101000a900460ff1681565b6000801515600960149054906101000a900460ff1615151461069757600080fd5b600360009054906101000a900473ffffffffffffffffffffffffffffffffffffffff1673ffffffffffffffffffffffffffffffffffffffff16636cb764086040518163ffffffff1660e01b815260040160206040518083038186803b1580156106ff57600080fd5b505afa158015610713573d6000803e3d6000fd5b505050506040513d601f19601f82011682018060405250810190610737919061157e565b600660006101000a81548160ff02191690831515021790555081600081905550600360009054906101000a900473ffffffffffffffffffffffffffffffffffffffff1673ffffffffffffffffffffffffffffffffffffffff16631344aec96040518163ffffffff1660e01b815260040160206040518083038186803b1580156107bf57600080fd5b505afa1580156107d3573d6000803e3d6000fd5b505050506040513d601f19601f820116820180604052508101906107f791906115d0565b9050806064670de0b6b3a76400006000546108129190611983565b61081c9190611983565b6108269190611952565b6002819055506000600660006101000a81548160ff0219169083151502179055506001600960146101000a81548160ff0219169083151502179055505050565b600360009054906101000a900473ffffffffffffffffffffffffffffffffffffffff1673ffffffffffffffffffffffffffffffffffffffff1663c57480d86040518163ffffffff1660e01b8152600401600060405180830381600087803b1580156108d057600080fd5b505af11580156108e4573d6000803e3d6000fd5b50505050600360009054906101000a900473ffffffffffffffffffffffffffffffffffffffff1673ffffffffffffffffffffffffffffffffffffffff16639b09c6446040518163ffffffff1660e01b815260040160006040518083038186803b15801561095057600080fd5b505afa158015610964573d6000803e3d6000fd5b505050506040513d6000823e3d601f19601f8201168201806040525081019061098d919061153d565b600790805190602001906109a2929190611221565b50600360009054906101000a900473ffffffffffffffffffffffffffffffffffffffff1673ffffffffffffffffffffffffffffffffffffffff16631bbadccc6040518163ffffffff1660e01b815260040160006040518083038186803b158015610a0b57600080fd5b505afa158015610a1f573d6000803e3d6000fd5b505050506040513d6000823e3d601f19601f82011682018060405250810190610a4891906114fc565b60089080519060200190610a5d92919061126e565b50600780549050600a81905550600360009054906101000a900473ffffffffffffffffffffffffffffffffffffffff1673ffffffffffffffffffffffffffffffffffffffff1663e391f55a6040518163ffffffff1660e01b8152600401600060405180830381600087803b158015610ad457600080fd5b505af1158015610ae8573d6000803e3d6000fd5b50505050565b60025481565b600460009054906101000a900473ffffffffffffffffffffffffffffffffffffffff1681565b600160009054906101000a900460ff1681565b600660009054906101000a900460ff1681565b610b48610866565b600080600090505b600780549050811015610cf157670de0b6b3a7640000606460078381548110610ba2577f4e487b7100000000000000000000000000000000000000000000000000000000600052603260045260246000fd5b9060005260206000200154600054610bba9190611983565b610bc49190611952565b610bce9190611983565b915060088181548110610c0a577f4e487b7100000000000000000000000000000000000000000000000000000000600052603260045260246000fd5b9060005260206000200160009054906101000a900473ffffffffffffffffffffffffffffffffffffffff16600960006101000a81548173ffffffffffffffffffffffffffffffffffffffff021916908373ffffffffffffffffffffffffffffffffffffffff160217905550600960009054906101000a900473ffffffffffffffffffffffffffffffffffffffff1673ffffffffffffffffffffffffffffffffffffffff166108fc839081150290604051600060405180830381858888f19350505050158015610cdd573d6000803e3d6000fd5b508080610ce990611a8a565b915050610b50565b6001600660006101000a81548160ff021916908315150217905550610d14611127565b5050565b80600360006101000a81548173ffffffffffffffffffffffffffffffffffffffff021916908373ffffffffffffffffffffffffffffffffffffffff16021790555050565b60005481565b6000600360009054906101000a900473ffffffffffffffffffffffffffffffffffffffff1673ffffffffffffffffffffffffffffffffffffffff1663d811fcf06040518163ffffffff1660e01b815260040160206040518083038186803b158015610dcc57600080fd5b505afa158015610de0573d6000803e3d6000fd5b505050506040513d601f19601f82011682018060405250810190610e0491906114d3565b600460006101000a81548173ffffffffffffffffffffffffffffffffffffffff021916908373ffffffffffffffffffffffffffffffffffffffff160217905550600360009054906101000a900473ffffffffffffffffffffffffffffffffffffffff1673ffffffffffffffffffffffffffffffffffffffff1663c52164c66040518163ffffffff1660e01b815260040160206040518083038186803b158015610eac57600080fd5b505afa158015610ec0573d6000803e3d6000fd5b505050506040513d601f19601f82011682018060405250810190610ee491906115d0565b60058190555060006005541415610f025760326005819055506110f5565b6000805411156110f457600060025410158015610f2157506028600254105b15610f4057600a600554610f3591906119dd565b6005819055506110f3565b602860025410158015610f5557506032600254105b15610f74576006600554610f6991906119dd565b6005819055506110f2565b603260025410158015610f895750603c600254105b15610fa8576004600554610f9d91906119dd565b6005819055506110f1565b603c60025410158015610fbd57506046600254105b156110165760506005541115610ff157610fe66001600554610fdf91906118fc565b6064611205565b600581905550611011565b61100a600260055461100391906118fc565b6064611205565b6005819055505b6110f0565b60466002541015801561102b57506050600254105b15611084576050600554111561105f57611054600260055461104d91906118fc565b6064611205565b60058190555061107f565b611078600360055461107191906118fc565b6064611205565b6005819055505b6110ef565b60506002541015801561109a5750606460025411155b156110ee57605060055411156110ce576110c360036005546110bc91906118fc565b6064611205565b6005819055506110ed565b6110e6600580546110df91906118fc565b6064611205565b6005819055505b5b5b5b5b5b5b5b5b600080819055506000600960146101000a81548160ff0219169083151502179055506000600281905550600554905090565b60005b600a5481101561120257600780548061116c577f4e487b7100000000000000000000000000000000000000000000000000000000600052603160045260246000fd5b6001900381819060005260206000200160009055905560088054806111ba577f4e487b7100000000000000000000000000000000000000000000000000000000600052603160045260246000fd5b6001900381819060005260206000200160006101000a81549073ffffffffffffffffffffffffffffffffffffffff0219169055905580806111fa90611a8a565b91505061112a565b50565b6000818310156112175782905061121b565b8190505b92915050565b82805482825590600052602060002090810192821561125d579160200282015b8281111561125c578251825591602001919060010190611241565b5b50905061126a91906112f8565b5090565b8280548282559060005260206000209081019282156112e7579160200282015b828111156112e65782518260006101000a81548173ffffffffffffffffffffffffffffffffffffffff021916908373ffffffffffffffffffffffffffffffffffffffff1602179055509160200191906001019061128e565b5b5090506112f491906112f8565b5090565b5b808211156113115760008160009055506001016112f9565b5090565b600061132861132384611832565b61180d565b9050808382526020820190508285602086028201111561134757600080fd5b60005b85811015611377578161135d8882611402565b84526020840193506020830192505060018101905061134a565b5050509392505050565b600061139461138f8461185e565b61180d565b905080838252602082019050828560208602820111156113b357600080fd5b60005b858110156113e357816113c98882611495565b8452602084019350602083019250506001810190506113b6565b5050509392505050565b6000813590506113fc81611b71565b92915050565b60008151905061141181611b71565b92915050565b600082601f83011261142857600080fd5b8151611438848260208601611315565b91505092915050565b600082601f83011261145257600080fd5b8151611462848260208601611381565b91505092915050565b60008151905061147a81611b88565b92915050565b60008135905061148f81611b9f565b92915050565b6000815190506114a481611b9f565b92915050565b6000602082840312156114bc57600080fd5b60006114ca848285016113ed565b91505092915050565b6000602082840312156114e557600080fd5b60006114f384828501611402565b91505092915050565b60006020828403121561150e57600080fd5b600082015167ffffffffffffffff81111561152857600080fd5b61153484828501611417565b91505092915050565b60006020828403121561154f57600080fd5b600082015167ffffffffffffffff81111561156957600080fd5b61157584828501611441565b91505092915050565b60006020828403121561159057600080fd5b600061159e8482850161146b565b91505092915050565b6000602082840312156115b957600080fd5b60006115c784828501611480565b91505092915050565b6000602082840312156115e257600080fd5b60006115f084828501611495565b91505092915050565b60006116058383611629565b60208301905092915050565b600061161d8383611712565b60208301905092915050565b61163281611a11565b82525050565b61164181611a11565b82525050565b6000611652826118aa565b61165c81856118da565b93506116678361188a565b8060005b8381101561169857815161167f88826115f9565b975061168a836118c0565b92505060018101905061166b565b5085935050505092915050565b60006116b0826118b5565b6116ba81856118eb565b93506116c58361189a565b8060005b838110156116f65781516116dd8882611611565b97506116e8836118cd565b9250506001810190506116c9565b5085935050505092915050565b61170c81611a23565b82525050565b61171b81611a4f565b82525050565b61172a81611a4f565b82525050565b60006020820190506117456000830184611638565b92915050565b6000610100820190508181036000830152611766818b6116a5565b9050611775602083018a611721565b81810360408301526117878189611647565b90506117966060830188611721565b6117a36080830187611703565b6117b060a0830186611703565b6117bd60c0830185611721565b6117ca60e0830184611638565b9998505050505050505050565b60006020820190506117ec6000830184611703565b92915050565b60006020820190506118076000830184611721565b92915050565b6000611817611828565b90506118238282611a59565b919050565b6000604051905090565b600067ffffffffffffffff82111561184d5761184c611b31565b5b602082029050602081019050919050565b600067ffffffffffffffff82111561187957611878611b31565b5b602082029050602081019050919050565b6000819050602082019050919050565b6000819050602082019050919050565b600081519050919050565b600081519050919050565b6000602082019050919050565b6000602082019050919050565b600082825260208201905092915050565b600082825260208201905092915050565b600061190782611a4f565b915061191283611a4f565b9250827fffffffffffffffffffffffffffffffffffffffffffffffffffffffffffffffff0382111561194757611946611ad3565b5b828201905092915050565b600061195d82611a4f565b915061196883611a4f565b92508261197857611977611b02565b5b828204905092915050565b600061198e82611a4f565b915061199983611a4f565b9250817fffffffffffffffffffffffffffffffffffffffffffffffffffffffffffffffff04831182151516156119d2576119d1611ad3565b5b828202905092915050565b60006119e882611a4f565b91506119f383611a4f565b925082821015611a0657611a05611ad3565b5b828203905092915050565b6000611a1c82611a2f565b9050919050565b60008115159050919050565b600073ffffffffffffffffffffffffffffffffffffffff82169050919050565b6000819050919050565b611a6282611b60565b810181811067ffffffffffffffff82111715611a8157611a80611b31565b5b80604052505050565b6000611a9582611a4f565b91507fffffffffffffffffffffffffffffffffffffffffffffffffffffffffffffffff821415611ac857611ac7611ad3565b5b600182019050919050565b7f4e487b7100000000000000000000000000000000000000000000000000000000600052601160045260246000fd5b7f4e487b7100000000000000000000000000000000000000000000000000000000600052601260045260246000fd5b7f4e487b7100000000000000000000000000000000000000000000000000000000600052604160045260246000fd5b6000601f19601f8301169050919050565b611b7a81611a11565b8114611b8557600080fd5b50565b611b9181611a23565b8114611b9c57600080fd5b50565b611ba881611a4f565b8114611bb357600080fd5b5056fea2646970667358221220e6b80d6758aff0f24ad7273bf0d32947e4e5d61e140f1087d934dc2ec9bf3c6664736f6c63430008010033",
  "immutableReferences": {},
  "source": "// SPDX-License-Identifier: MIT\r\npragma solidity ^0.8.1;\r\nimport \"./Crop.sol\";\r\n\r\ncontract GovtInput{\r\n    \r\n    uint256 public returnAmt;\r\n    bool public verified = false;\r\n    uint256 public returnPercent;\r\n    Crop rep;\r\n    address public _farmer;\r\n    uint256 public _reputation;\r\n    bool public _returned = false;\r\n    uint256[] public _returnPercent;\r\n    address[] public _returnAddress;\r\n    address payable temp1;\r\n    bool public complete = false;\r\n    uint length;\r\n   \r\n    \r\n    function setAddress(address _address) public{\r\n        rep = Crop(_address);\r\n    }\r\n     \r\n     function getInvestAddressAndPercentage() public {\r\n          rep.getInvestPercentage();\r\n        _returnPercent =  rep.retInvestPercentage();\r\n        _returnAddress =  rep.retInvestAddress();\r\n        length = _returnPercent.length;\r\n        rep.resetInvestedPercentAndInvestorsAddress();\r\n     }\r\n     function payInvestors() public {\r\n         getInvestAddressAndPercentage();\r\n         uint temp;\r\n         uint i;\r\n         for(i = 0; i < _returnPercent.length; i++)\r\n         {\r\n             temp = ((returnAmt * _returnPercent[i])/100) * (1 ether);\r\n             temp1 = payable(_returnAddress[i]);\r\n             temp1.transfer(temp);\r\n         }\r\n         _returned = true;\r\n         resetInvestedPercentAndInvestorsAddress();\r\n         \r\n     }\r\n\r\n    function setRep() public returns(uint256) {\r\n         _farmer = rep.farmer();\r\n         _reputation = rep.reputation();\r\n        if(_reputation == 0)\r\n        {\r\n            _reputation = 50;\r\n        }\r\n        else{\r\n            if(returnAmt > 0)\r\n            {\r\n                 \r\n                if(returnPercent >= 0 && returnPercent < 40)\r\n                    _reputation = _reputation - 10;\r\n                else if(returnPercent >= 40 && returnPercent < 50)\r\n                    _reputation = _reputation - 6;\r\n                else if(returnPercent >= 50 && returnPercent < 60)\r\n                    _reputation = _reputation - 4;\r\n                else if(returnPercent >= 60 && returnPercent < 70)\r\n                {\r\n                    if(_reputation > 80)\r\n                       _reputation = min(_reputation + 1,100);  \r\n                    else\r\n                       _reputation = min(_reputation + 2,100);\r\n                }\r\n                    \r\n                else if(returnPercent >= 70 && returnPercent < 80)\r\n                {\r\n                    if(_reputation > 80)\r\n                        _reputation = min(_reputation + 2,100);\r\n                    else\r\n                        _reputation = min(_reputation + 3,100);\r\n                }\r\n                \r\n                else if(returnPercent >= 80 && returnPercent <= 100)\r\n                {\r\n                    if(_reputation > 80)\r\n                        _reputation = min(_reputation + 3,100);\r\n                    else\r\n                        _reputation = min(_reputation + 5,100);\r\n                }\r\n            }\r\n        }\r\n        returnAmt = 0;\r\n        complete = false;\r\n        returnPercent = 0;\r\n        return(_reputation);\r\n    }\r\n    \r\n   function verification() public returns(bool){\r\n         _farmer = rep.farmer();\r\n        verified = true;\r\n        return(verified);\r\n    }\r\n\r\n    function getRetAmt(uint _returnAmt) public payable{\r\n        uint _amtRaised;\r\n           require(complete == false);\r\n           _returned = rep.returned();\r\n        returnAmt = _returnAmt;\r\n        _amtRaised = rep.amtRaised();\r\n        returnPercent = (returnAmt * (1 ether) * 100)/_amtRaised;\r\n        _returned = false;\r\n        complete = true;\r\n        \r\n    }\r\n\r\n    function min(uint256 a,uint256 b) private returns (uint256){\r\n        if(a < b)\r\n            return(a);\r\n        else \r\n            return(b);\r\n    }\r\n    \r\n    function getSummary() public view returns (uint256 [] memory, uint, address [] memory, uint, bool, bool,uint, address) {\r\n        return (\r\n            _returnPercent,\r\n            address(this).balance,  //request current balance of contract\r\n            _returnAddress,\r\n            _reputation,\r\n            verified,\r\n            _returned,\r\n            returnAmt,\r\n            _farmer\r\n            );\r\n    }\r\n   function resetInvestedPercentAndInvestorsAddress() private{\r\n        uint i;\r\n        for(i = 0;i < length; i++)\r\n        {\r\n            _returnPercent.pop();\r\n            _returnAddress.pop();\r\n        }\r\n    }\r\n}",
  "sourcePath": "C:\\Users\\rashmitha\\Desktop\\final-year-project\\contracts\\GovtInput.sol",
  "compiler": {
    "name": "solc",
    "version": "0.8.1+commit.df193b15.Emscripten.clang"
  },
  "schemaVersion": "3.4.1",
  "updatedAt": "2021-06-14T02:56:49.919Z",
  "networkType": "ethereum",
  "devdoc": {
    "kind": "dev",
    "methods": {},
    "version": 1
  },
  "userdoc": {
    "kind": "user",
    "methods": {},
    "version": 1
  }
}