{
  "contractName": "CropFactory",
  "abi": [
    {
      "inputs": [
        {
          "internalType": "uint256",
          "name": "",
          "type": "uint256"
        }
      ],
      "name": "contractaddresses",
      "outputs": [
        {
          "internalType": "address",
          "name": "crop",
          "type": "address"
        },
        {
          "internalType": "address",
          "name": "govrep",
          "type": "address"
        }
      ],
      "stateMutability": "view",
      "type": "function"
    },
    {
      "inputs": [
        {
          "internalType": "uint256",
          "name": "",
          "type": "uint256"
        }
      ],
      "name": "farmerAddresses",
      "outputs": [
        {
          "internalType": "address",
          "name": "",
          "type": "address"
        }
      ],
      "stateMutability": "view",
      "type": "function"
    },
    {
      "inputs": [
        {
          "internalType": "address",
          "name": "",
          "type": "address"
        }
      ],
      "name": "farmerContractMapping",
      "outputs": [
        {
          "internalType": "address",
          "name": "crop",
          "type": "address"
        },
        {
          "internalType": "address",
          "name": "govrep",
          "type": "address"
        }
      ],
      "stateMutability": "view",
      "type": "function"
    },
    {
      "inputs": [],
      "name": "getContractsForFarmer",
      "outputs": [
        {
          "components": [
            {
              "internalType": "address",
              "name": "crop",
              "type": "address"
            },
            {
              "internalType": "address",
              "name": "govrep",
              "type": "address"
            }
          ],
          "internalType": "struct CropFactory.ContractAddresses",
          "name": "",
          "type": "tuple"
        }
      ],
      "stateMutability": "view",
      "type": "function"
    },
    {
      "inputs": [],
      "name": "createCropForFarmer",
      "outputs": [],
      "stateMutability": "payable",
      "type": "function"
    },
    {
      "inputs": [],
      "name": "getFarmerContractMapping",
      "outputs": [
        {
          "components": [
            {
              "internalType": "address",
              "name": "crop",
              "type": "address"
            },
            {
              "internalType": "address",
              "name": "govrep",
              "type": "address"
            }
          ],
          "internalType": "struct CropFactory.ContractAddresses[]",
          "name": "",
          "type": "tuple[]"
        }
      ],
      "stateMutability": "view",
      "type": "function"
    }
  ],
  "bytecode": "0x60806040526000805534801561001457600080fd5b506148d9806100246000396000f3fe6080604052600436106100555760003560e01c80630ad9a8961461005a57806347938d27146100855780637634ae6e146100c3578063b9cc1614146100cd578063c133b57f1461010a578063ca2ab9eb14610135575b600080fd5b34801561006657600080fd5b5061006f610173565b60405161007c9190610a76565b60405180910390f35b34801561009157600080fd5b506100ac60048036038101906100a791906108cc565b610276565b6040516100ba929190610a2b565b60405180910390f35b6100cb6102da565b005b3480156100d957600080fd5b506100f460048036038101906100ef91906108f5565b610690565b6040516101019190610a10565b60405180910390f35b34801561011657600080fd5b5061011f6106c3565b60405161012c9190610a54565b60405180910390f35b34801561014157600080fd5b5061015c600480360381019061015791906108f5565b6107ce565b60405161016a929190610a2b565b60405180910390f35b61017b610842565b600260003373ffffffffffffffffffffffffffffffffffffffff1673ffffffffffffffffffffffffffffffffffffffff1681526020019081526020016000206040518060400160405290816000820160009054906101000a900473ffffffffffffffffffffffffffffffffffffffff1673ffffffffffffffffffffffffffffffffffffffff1673ffffffffffffffffffffffffffffffffffffffff1681526020016001820160009054906101000a900473ffffffffffffffffffffffffffffffffffffffff1673ffffffffffffffffffffffffffffffffffffffff1673ffffffffffffffffffffffffffffffffffffffff1681525050905090565b60026020528060005260406000206000915090508060000160009054906101000a900473ffffffffffffffffffffffffffffffffffffffff16908060010160009054906101000a900473ffffffffffffffffffffffffffffffffffffffff16905082565b6000336040516102e990610888565b6102f39190610a10565b604051809103906000f08015801561030f573d6000803e3d6000fd5b509050600060405161032090610895565b604051809103906000f08015801561033c573d6000803e3d6000fd5b5090508173ffffffffffffffffffffffffffffffffffffffff1663e30081a0826040518263ffffffff1660e01b81526004016103789190610a10565b600060405180830381600087803b15801561039257600080fd5b505af11580156103a6573d6000803e3d6000fd5b505050508073ffffffffffffffffffffffffffffffffffffffff1663e30081a0836040518263ffffffff1660e01b81526004016103e39190610a10565b600060405180830381600087803b1580156103fd57600080fd5b505af1158015610411573d6000803e3d6000fd5b5050505060405180604001604052808373ffffffffffffffffffffffffffffffffffffffff1681526020018273ffffffffffffffffffffffffffffffffffffffff16815250600260003373ffffffffffffffffffffffffffffffffffffffff1673ffffffffffffffffffffffffffffffffffffffff16815260200190815260200160002060008201518160000160006101000a81548173ffffffffffffffffffffffffffffffffffffffff021916908373ffffffffffffffffffffffffffffffffffffffff16021790555060208201518160010160006101000a81548173ffffffffffffffffffffffffffffffffffffffff021916908373ffffffffffffffffffffffffffffffffffffffff16021790555090505033600360008054815260200190815260200160002060006101000a81548173ffffffffffffffffffffffffffffffffffffffff021916908373ffffffffffffffffffffffffffffffffffffffff160217905550600160405180604001604052808473ffffffffffffffffffffffffffffffffffffffff1681526020018373ffffffffffffffffffffffffffffffffffffffff16815250908060018154018082558091505060019003906000526020600020906002020160009091909190915060008201518160000160006101000a81548173ffffffffffffffffffffffffffffffffffffffff021916908373ffffffffffffffffffffffffffffffffffffffff16021790555060208201518160010160006101000a81548173ffffffffffffffffffffffffffffffffffffffff021916908373ffffffffffffffffffffffffffffffffffffffff160217905550505060008081548092919061068790610b06565b91905055505050565b60036020528060005260406000206000915054906101000a900473ffffffffffffffffffffffffffffffffffffffff1681565b60606001805480602002602001604051908101604052809291908181526020016000905b828210156107c557838290600052602060002090600202016040518060400160405290816000820160009054906101000a900473ffffffffffffffffffffffffffffffffffffffff1673ffffffffffffffffffffffffffffffffffffffff1673ffffffffffffffffffffffffffffffffffffffff1681526020016001820160009054906101000a900473ffffffffffffffffffffffffffffffffffffffff1673ffffffffffffffffffffffffffffffffffffffff1673ffffffffffffffffffffffffffffffffffffffff1681525050815260200190600101906106e7565b50505050905090565b600181815481106107de57600080fd5b90600052602060002090600202016000915090508060000160009054906101000a900473ffffffffffffffffffffffffffffffffffffffff16908060010160009054906101000a900473ffffffffffffffffffffffffffffffffffffffff16905082565b6040518060400160405280600073ffffffffffffffffffffffffffffffffffffffff168152602001600073ffffffffffffffffffffffffffffffffffffffff1681525090565b6120af80610bad83390190565b611c4880612c5c83390190565b6000813590506108b181610b7e565b92915050565b6000813590506108c681610b95565b92915050565b6000602082840312156108de57600080fd5b60006108ec848285016108a2565b91505092915050565b60006020828403121561090757600080fd5b6000610915848285016108b7565b91505092915050565b600061092a83836109b2565b60408301905092915050565b61093f81610aca565b82525050565b61094e81610aca565b82525050565b600061095f82610aa1565b6109698185610ab9565b935061097483610a91565b8060005b838110156109a557815161098c888261091e565b975061099783610aac565b925050600181019050610978565b5085935050505092915050565b6040820160008201516109c86000850182610936565b5060208201516109db6020850182610936565b50505050565b6040820160008201516109f76000850182610936565b506020820151610a0a6020850182610936565b50505050565b6000602082019050610a256000830184610945565b92915050565b6000604082019050610a406000830185610945565b610a4d6020830184610945565b9392505050565b60006020820190508181036000830152610a6e8184610954565b905092915050565b6000604082019050610a8b60008301846109e1565b92915050565b6000819050602082019050919050565b600081519050919050565b6000602082019050919050565b600082825260208201905092915050565b6000610ad582610adc565b9050919050565b600073ffffffffffffffffffffffffffffffffffffffff82169050919050565b6000819050919050565b6000610b1182610afc565b91507fffffffffffffffffffffffffffffffffffffffffffffffffffffffffffffffff821415610b4457610b43610b4f565b5b600182019050919050565b7f4e487b7100000000000000000000000000000000000000000000000000000000600052601160045260246000fd5b610b8781610aca565b8114610b9257600080fd5b50565b610b9e81610afc565b8114610ba957600080fd5b5056fe60806040526000600255600160035560006004556000600560006101000a81548160ff0219169083151502179055506000600560016101000a81548160ff0219169083151502179055506000600b553480156200005b57600080fd5b50604051620020af380380620020af8339818101604052810190620000819190620000e0565b80600a60006101000a81548173ffffffffffffffffffffffffffffffffffffffff021916908373ffffffffffffffffffffffffffffffffffffffff160217905550506200015a565b600081519050620000da8162000140565b92915050565b600060208284031215620000f357600080fd5b60006200010384828501620000c9565b91505092915050565b6000620001198262000120565b9050919050565b600073ffffffffffffffffffffffffffffffffffffffff82169050919050565b6200014b816200010c565b81146200015757600080fd5b50565b611f45806200016a6000396000f3fe6080604052600436106101405760003560e01c806390a59e52116100b6578063d15012061161006f578063d15012061461040c578063d811fcf014610435578063dce5f27714610460578063e30081a01461049d578063e391f55a146104c6578063f8c29fc4146104dd57610140565b806390a59e521461032d57806399bd36001461036a5780639b09c64414610374578063bbb82d891461039f578063c52164c6146103ca578063c57480d8146103f557610140565b8063509cfe4211610108578063509cfe42146102155780636a0702b2146102525780636c1f7952146102695780636cb764081461029457806381d12c58146102bf5780638ac2c6801461030257610140565b80631344aec9146101455780631bbadccc146101705780633feb5f2b1461019b5780634051ddac146101d857806345fbfbca1461020b575b600080fd5b34801561015157600080fd5b5061015a61051a565b6040516101679190611a8a565b60405180910390f35b34801561017c57600080fd5b50610185610520565b604051610192919061191a565b60405180910390f35b3480156101a757600080fd5b506101c260048036038101906101bd919061172e565b6105ae565b6040516101cf91906118ff565b60405180910390f35b3480156101e457600080fd5b506101ed6105e1565b6040516102029998979695949392919061195e565b60405180910390f35b61021361073a565b005b34801561022157600080fd5b5061023c6004803603810190610237919061172e565b61089f565b6040516102499190611a8a565b60405180910390f35b34801561025e57600080fd5b506102676108c3565b005b34801561027557600080fd5b5061027e61097e565b60405161028b9190611a8a565b60405180910390f35b3480156102a057600080fd5b506102a9610984565b6040516102b691906119f9565b60405180910390f35b3480156102cb57600080fd5b506102e660048036038101906102e1919061172e565b610997565b6040516102f99796959493929190611a14565b60405180910390f35b34801561030e57600080fd5b50610317610a9e565b6040516103249190611a8a565b60405180910390f35b34801561033957600080fd5b50610354600480360381019061034f9190611661565b610aa4565b6040516103619190611a8a565b60405180910390f35b610372610abc565b005b34801561038057600080fd5b50610389610c16565b604051610396919061193c565b60405180910390f35b3480156103ab57600080fd5b506103b4610c6e565b6040516103c191906119f9565b60405180910390f35b3480156103d657600080fd5b506103df610c81565b6040516103ec9190611a8a565b60405180910390f35b34801561040157600080fd5b5061040a610c87565b005b34801561041857600080fd5b50610433600480360381019061042e91906116b3565b610e66565b005b34801561044157600080fd5b5061044a6112b1565b60405161045791906118ff565b60405180910390f35b34801561046c57600080fd5b506104876004803603810190610482919061172e565b6112d7565b60405161049491906118ff565b60405180910390f35b3480156104a957600080fd5b506104c460048036038101906104bf9190611661565b611316565b005b3480156104d257600080fd5b506104db611359565b005b3480156104e957600080fd5b5061050460048036038101906104ff919061172e565b611493565b6040516105119190611a8a565b60405180910390f35b60025481565b606060078054806020026020016040519081016040528092919081815260200182805480156105a457602002820191906000526020600020905b8160009054906101000a900473ffffffffffffffffffffffffffffffffffffffff1673ffffffffffffffffffffffffffffffffffffffff168152602001906001019080831161055a575b5050505050905090565b60086020528060005260406000206000915054906101000a900473ffffffffffffffffffffffffffffffffffffffff1681565b60608060008060008060008060006006600760035447600180549050600454600560019054906101000a900460ff16600560009054906101000a900460ff16600a60009054906101000a900473ffffffffffffffffffffffffffffffffffffffff168880548060200260200160405190810160405280929190818152602001828054801561068e57602002820191906000526020600020905b81548152602001906001019080831161067a575b505050505098508780548060200260200160405190810160405280929190818152602001828054801561071657602002820191906000526020600020905b8160009054906101000a900473ffffffffffffffffffffffffffffffffffffffff1673ffffffffffffffffffffffffffffffffffffffff16815260200190600101908083116106cc575b50505050509750985098509850985098509850985098509850909192939495969798565b6000600180600b5461074c9190611c6a565b81548110610783577f4e487b7100000000000000000000000000000000000000000000000000000000600052603260045260246000fd5b90600052602060002090600702019050600015158160060160009054906101000a900460ff161515146107b557600080fd5b806004015442106107c557600080fd5b6003543410156107d457600080fd5b346002546107e29190611b89565b60028190555033600860008360050154815260200190815260200160002060006101000a81548173ffffffffffffffffffffffffffffffffffffffff021916908373ffffffffffffffffffffffffffffffffffffffff16021790555080600501600081548092919061085390611d9d565b919050555034600960003373ffffffffffffffffffffffffffffffffffffffff1673ffffffffffffffffffffffffffffffffffffffff1681526020019081526020016000208190555050565b600681815481106108af57600080fd5b906000526020600020016000915090505481565b60008054906101000a900473ffffffffffffffffffffffffffffffffffffffff1673ffffffffffffffffffffffffffffffffffffffff16634ffe2a8b6040518163ffffffff1660e01b8152600401602060405180830381600087803b15801561092b57600080fd5b505af115801561093f573d6000803e3d6000fd5b505050506040513d601f19601f82011682018060405250810190610963919061168a565b600560016101000a81548160ff021916908315150217905550565b600b5481565b600560009054906101000a900460ff1681565b600181815481106109a757600080fd5b90600052602060002090600702016000915090508060000180546109ca90611d3a565b80601f01602080910402602001604051908101604052809291908181526020018280546109f690611d3a565b8015610a435780601f10610a1857610100808354040283529160200191610a43565b820191906000526020600020905b815481529060010190602001808311610a2657829003601f168201915b5050505050908060010154908060020154908060030160009054906101000a900473ffffffffffffffffffffffffffffffffffffffff16908060040154908060050154908060060160009054906101000a900460ff16905087565b60035481565b60096020528060005260406000206000915090505481565b600a60009054906101000a900473ffffffffffffffffffffffffffffffffffffffff1673ffffffffffffffffffffffffffffffffffffffff163373ffffffffffffffffffffffffffffffffffffffff1614610b1657600080fd5b6000600180600b54610b289190611c6a565b81548110610b5f577f4e487b7100000000000000000000000000000000000000000000000000000000600052603260045260246000fd5b906000526020600020906007020190508060060160009054906101000a900460ff1615610b8b57600080fd5b8060030160009054906101000a900473ffffffffffffffffffffffffffffffffffffffff1673ffffffffffffffffffffffffffffffffffffffff166108fc479081150290604051600060405180830381858888f19350505050158015610bf5573d6000803e3d6000fd5b5060018160060160006101000a81548160ff02191690831515021790555050565b60606006805480602002602001604051908101604052809291908181526020018280548015610c6457602002820191906000526020600020905b815481526020019060010190808311610c50575b5050505050905090565b600560019054906101000a900460ff1681565b60045481565b600080600080600180600b54610c9d9190611c6a565b81548110610cd4577f4e487b7100000000000000000000000000000000000000000000000000000000600052603260045260246000fd5b90600052602060002090600702019050600091505b8060050154821015610e585760076008600084815260200190815260200160002060009054906101000a900473ffffffffffffffffffffffffffffffffffffffff169080600181540180825580915050600190039060005260206000200160009091909190916101000a81548173ffffffffffffffffffffffffffffffffffffffff021916908373ffffffffffffffffffffffffffffffffffffffff160217905550600960006008600085815260200190815260200160002060009054906101000a900473ffffffffffffffffffffffffffffffffffffffff1673ffffffffffffffffffffffffffffffffffffffff1673ffffffffffffffffffffffffffffffffffffffff168152602001908152602001600020549350600254606485610e109190611c10565b610e1a9190611bdf565b925060068390806001815401808255809150506001900390600052602060002001600090919091909150558180610e5090611d9d565b925050610ce9565b600060028190555050505050565b600a60009054906101000a900473ffffffffffffffffffffffffffffffffffffffff1673ffffffffffffffffffffffffffffffffffffffff163373ffffffffffffffffffffffffffffffffffffffff1614610ec057600080fd5b60008054906101000a900473ffffffffffffffffffffffffffffffffffffffff1673ffffffffffffffffffffffffffffffffffffffff1663fc2ebd416040518163ffffffff1660e01b8152600401602060405180830381600087803b158015610f2857600080fd5b505af1158015610f3c573d6000803e3d6000fd5b505050506040513d601f19601f82011682018060405250810190610f609190611757565b6004819055506000600b54111561105c5760008054906101000a900473ffffffffffffffffffffffffffffffffffffffff1673ffffffffffffffffffffffffffffffffffffffff1663be05eff56040518163ffffffff1660e01b815260040160206040518083038186803b158015610fd757600080fd5b505afa158015610feb573d6000803e3d6000fd5b505050506040513d601f19601f8201168201806040525081019061100f919061168a565b600560006101000a81548160ff02191690831515021790555060286004541161103757600080fd5b60011515600560009054906101000a900460ff1615151461105757600080fd5b611136565b60008054906101000a900473ffffffffffffffffffffffffffffffffffffffff1673ffffffffffffffffffffffffffffffffffffffff16634ffe2a8b6040518163ffffffff1660e01b8152600401602060405180830381600087803b1580156110c457600080fd5b505af11580156110d8573d6000803e3d6000fd5b505050506040513d601f19601f820116820180604052508101906110fc919061168a565b600560016101000a81548160ff02191690831515021790555060011515600560019054906101000a900460ff1615151461113557600080fd5b5b60006040518060e001604052808681526020018581526020018481526020018373ffffffffffffffffffffffffffffffffffffffff16815260200184620151806111809190611c10565b4261118b9190611b89565b815260200160008152602001600015158152509050600181908060018154018082558091505060019003906000526020600020906007020160009091909190915060008201518160000190805190602001906111e89291906114ed565b50602082015181600101556040820151816002015560608201518160030160006101000a81548173ffffffffffffffffffffffffffffffffffffffff021916908373ffffffffffffffffffffffffffffffffffffffff1602179055506080820151816004015560a0820151816005015560c08201518160060160006101000a81548160ff02191690831515021790555050506001600b546112899190611b89565b600b819055506000600560006101000a81548160ff0219169083151502179055505050505050565b600a60009054906101000a900473ffffffffffffffffffffffffffffffffffffffff1681565b600781815481106112e757600080fd5b906000526020600020016000915054906101000a900473ffffffffffffffffffffffffffffffffffffffff1681565b806000806101000a81548173ffffffffffffffffffffffffffffffffffffffff021916908373ffffffffffffffffffffffffffffffffffffffff16021790555050565b6000600180600b5461136b9190611c6a565b815481106113a2577f4e487b7100000000000000000000000000000000000000000000000000000000600052603260045260246000fd5b9060005260206000209060070201905060005b816005015481101561148f5760068054806113f9577f4e487b7100000000000000000000000000000000000000000000000000000000600052603160045260246000fd5b600190038181906000526020600020016000905590556007805480611447577f4e487b7100000000000000000000000000000000000000000000000000000000600052603160045260246000fd5b6001900381819060005260206000200160006101000a81549073ffffffffffffffffffffffffffffffffffffffff02191690559055808061148790611d9d565b9150506113b5565b5050565b600080600183815481106114d0577f4e487b7100000000000000000000000000000000000000000000000000000000600052603260045260246000fd5b906000526020600020906007020190508060050154915050919050565b8280546114f990611d3a565b90600052602060002090601f01602090048101928261151b5760008555611562565b82601f1061153457805160ff1916838001178555611562565b82800160010185558215611562579182015b82811115611561578251825591602001919060010190611546565b5b50905061156f9190611573565b5090565b5b8082111561158c576000816000905550600101611574565b5090565b60006115a361159e84611aca565b611aa5565b9050828152602081018484840111156115bb57600080fd5b6115c6848285611cf8565b509392505050565b6000813590506115dd81611eb3565b92915050565b6000813590506115f281611eca565b92915050565b60008151905061160781611ee1565b92915050565b600082601f83011261161e57600080fd5b813561162e848260208601611590565b91505092915050565b60008135905061164681611ef8565b92915050565b60008151905061165b81611ef8565b92915050565b60006020828403121561167357600080fd5b6000611681848285016115ce565b91505092915050565b60006020828403121561169c57600080fd5b60006116aa848285016115f8565b91505092915050565b600080600080608085870312156116c957600080fd5b600085013567ffffffffffffffff8111156116e357600080fd5b6116ef8782880161160d565b945050602061170087828801611637565b935050604061171187828801611637565b9250506060611722878288016115e3565b91505092959194509250565b60006020828403121561174057600080fd5b600061174e84828501611637565b91505092915050565b60006020828403121561176957600080fd5b60006117778482850161164c565b91505092915050565b600061178c83836117bf565b60208301905092915050565b60006117a483836118e1565b60208301905092915050565b6117b981611cb0565b82525050565b6117c881611c9e565b82525050565b6117d781611c9e565b82525050565b60006117e882611b1b565b6117f28185611b56565b93506117fd83611afb565b8060005b8381101561182e5781516118158882611780565b975061182083611b3c565b925050600181019050611801565b5085935050505092915050565b600061184682611b26565b6118508185611b67565b935061185b83611b0b565b8060005b8381101561188c5781516118738882611798565b975061187e83611b49565b92505060018101905061185f565b5085935050505092915050565b6118a281611cc2565b82525050565b60006118b382611b31565b6118bd8185611b78565b93506118cd818560208601611d07565b6118d681611ea2565b840191505092915050565b6118ea81611cee565b82525050565b6118f981611cee565b82525050565b600060208201905061191460008301846117ce565b92915050565b6000602082019050818103600083015261193481846117dd565b905092915050565b60006020820190508181036000830152611956818461183b565b905092915050565b6000610120820190508181036000830152611979818c61183b565b9050818103602083015261198d818b6117dd565b905061199c604083018a6118f0565b6119a960608301896118f0565b6119b660808301886118f0565b6119c360a08301876118f0565b6119d060c0830186611899565b6119dd60e0830185611899565b6119eb6101008301846117ce565b9a9950505050505050505050565b6000602082019050611a0e6000830184611899565b92915050565b600060e0820190508181036000830152611a2e818a6118a8565b9050611a3d60208301896118f0565b611a4a60408301886118f0565b611a5760608301876117b0565b611a6460808301866118f0565b611a7160a08301856118f0565b611a7e60c0830184611899565b98975050505050505050565b6000602082019050611a9f60008301846118f0565b92915050565b6000611aaf611ac0565b9050611abb8282611d6c565b919050565b6000604051905090565b600067ffffffffffffffff821115611ae557611ae4611e73565b5b611aee82611ea2565b9050602081019050919050565b6000819050602082019050919050565b6000819050602082019050919050565b600081519050919050565b600081519050919050565b600081519050919050565b6000602082019050919050565b6000602082019050919050565b600082825260208201905092915050565b600082825260208201905092915050565b600082825260208201905092915050565b6000611b9482611cee565b9150611b9f83611cee565b9250827fffffffffffffffffffffffffffffffffffffffffffffffffffffffffffffffff03821115611bd457611bd3611de6565b5b828201905092915050565b6000611bea82611cee565b9150611bf583611cee565b925082611c0557611c04611e15565b5b828204905092915050565b6000611c1b82611cee565b9150611c2683611cee565b9250817fffffffffffffffffffffffffffffffffffffffffffffffffffffffffffffffff0483118215151615611c5f57611c5e611de6565b5b828202905092915050565b6000611c7582611cee565b9150611c8083611cee565b925082821015611c9357611c92611de6565b5b828203905092915050565b6000611ca982611cce565b9050919050565b6000611cbb82611cce565b9050919050565b60008115159050919050565b600073ffffffffffffffffffffffffffffffffffffffff82169050919050565b6000819050919050565b82818337600083830152505050565b60005b83811015611d25578082015181840152602081019050611d0a565b83811115611d34576000848401525b50505050565b60006002820490506001821680611d5257607f821691505b60208210811415611d6657611d65611e44565b5b50919050565b611d7582611ea2565b810181811067ffffffffffffffff82111715611d9457611d93611e73565b5b80604052505050565b6000611da882611cee565b91507fffffffffffffffffffffffffffffffffffffffffffffffffffffffffffffffff821415611ddb57611dda611de6565b5b600182019050919050565b7f4e487b7100000000000000000000000000000000000000000000000000000000600052601160045260246000fd5b7f4e487b7100000000000000000000000000000000000000000000000000000000600052601260045260246000fd5b7f4e487b7100000000000000000000000000000000000000000000000000000000600052602260045260246000fd5b7f4e487b7100000000000000000000000000000000000000000000000000000000600052604160045260246000fd5b6000601f19601f8301169050919050565b611ebc81611c9e565b8114611ec757600080fd5b50565b611ed381611cb0565b8114611ede57600080fd5b50565b611eea81611cc2565b8114611ef557600080fd5b50565b611f0181611cee565b8114611f0c57600080fd5b5056fea2646970667358221220c2dbca1f9b5959036b40117ca3ccc48aecd3cea955ed36c4eca9d3979bfac94364736f6c6343000801003360806040526000600160006101000a81548160ff0219169083151502179055506000600660006101000a81548160ff0219169083151502179055506000600960146101000a81548160ff02191690831515021790555034801561006157600080fd5b50611bd7806100716000396000f3fe6080604052600436106100f25760003560e01c80638252ffc11161008a578063c31d3a6d11610059578063c31d3a6d14610303578063e30081a01461030d578063f9b5cbab14610336578063fc2ebd4114610361576100f2565b80638252ffc114610257578063a4327a3814610282578063bbb82d89146102ad578063be05eff5146102d8576100f2565b80634ffe2a8b116100c65780634ffe2a8b146101ce578063522e1177146101f95780635f0fd51b146102245780636e07c07914610240576100f2565b8062513a94146100f75780630e74591814610134578063401e7bf5146101715780634051ddac1461019c575b600080fd5b34801561010357600080fd5b5061011e60048036038101906101199190611592565b61038c565b60405161012b91906117dd565b60405180910390f35b34801561014057600080fd5b5061015b60048036038101906101569190611592565b6103b0565b604051610168919061171b565b60405180910390f35b34801561017d57600080fd5b506101866103ef565b60405161019391906117dd565b60405180910390f35b3480156101a857600080fd5b506101b16103f5565b6040516101c5989796959493929190611736565b60405180910390f35b3480156101da57600080fd5b506101e3610545565b6040516101f091906117c2565b60405180910390f35b34801561020557600080fd5b5061020e610656565b60405161021b91906117c2565b60405180910390f35b61023e60048036038101906102399190611592565b610669565b005b34801561024c57600080fd5b50610255610859565b005b34801561026357600080fd5b5061026c610ae1565b60405161027991906117dd565b60405180910390f35b34801561028e57600080fd5b50610297610ae7565b6040516102a4919061171b565b60405180910390f35b3480156102b957600080fd5b506102c2610b0d565b6040516102cf91906117c2565b60405180910390f35b3480156102e457600080fd5b506102ed610b20565b6040516102fa91906117c2565b60405180910390f35b61030b610b33565b005b34801561031957600080fd5b50610334600480360381019061032f9190611495565b610d03565b005b34801561034257600080fd5b5061034b610d47565b60405161035891906117dd565b60405180910390f35b34801561036d57600080fd5b50610376610d4d565b60405161038391906117dd565b60405180910390f35b6007818154811061039c57600080fd5b906000526020600020016000915090505481565b600881815481106103c057600080fd5b906000526020600020016000915054906101000a900473ffffffffffffffffffffffffffffffffffffffff1681565b60055481565b60606000606060008060008060006007476008600554600160009054906101000a900460ff16600660009054906101000a900460ff16600054600460009054906101000a900473ffffffffffffffffffffffffffffffffffffffff168780548060200260200160405190810160405280929190818152602001828054801561049c57602002820191906000526020600020905b815481526020019060010190808311610488575b505050505097508580548060200260200160405190810160405280929190818152602001828054801561052457602002820191906000526020600020905b8160009054906101000a900473ffffffffffffffffffffffffffffffffffffffff1673ffffffffffffffffffffffffffffffffffffffff16815260200190600101908083116104da575b50505050509550975097509750975097509750975097509091929394959697565b6000600360009054906101000a900473ffffffffffffffffffffffffffffffffffffffff1673ffffffffffffffffffffffffffffffffffffffff1663d811fcf06040518163ffffffff1660e01b815260040160206040518083038186803b1580156105af57600080fd5b505afa1580156105c3573d6000803e3d6000fd5b505050506040513d601f19601f820116820180604052508101906105e791906114be565b600460006101000a81548173ffffffffffffffffffffffffffffffffffffffff021916908373ffffffffffffffffffffffffffffffffffffffff16021790555060018060006101000a81548160ff021916908315150217905550600160009054906101000a900460ff16905090565b600960149054906101000a900460ff1681565b6000801515600960149054906101000a900460ff1615151461068a57600080fd5b600360009054906101000a900473ffffffffffffffffffffffffffffffffffffffff1673ffffffffffffffffffffffffffffffffffffffff16636cb764086040518163ffffffff1660e01b815260040160206040518083038186803b1580156106f257600080fd5b505afa158015610706573d6000803e3d6000fd5b505050506040513d601f19601f8201168201806040525081019061072a9190611569565b600660006101000a81548160ff02191690831515021790555081600081905550600360009054906101000a900473ffffffffffffffffffffffffffffffffffffffff1673ffffffffffffffffffffffffffffffffffffffff16631344aec96040518163ffffffff1660e01b815260040160206040518083038186803b1580156107b257600080fd5b505afa1580156107c6573d6000803e3d6000fd5b505050506040513d601f19601f820116820180604052508101906107ea91906115bb565b9050806064670de0b6b3a7640000600054610805919061196e565b61080f919061196e565b610819919061193d565b6002819055506000600660006101000a81548160ff0219169083151502179055506001600960146101000a81548160ff0219169083151502179055505050565b600360009054906101000a900473ffffffffffffffffffffffffffffffffffffffff1673ffffffffffffffffffffffffffffffffffffffff1663c57480d86040518163ffffffff1660e01b8152600401600060405180830381600087803b1580156108c357600080fd5b505af11580156108d7573d6000803e3d6000fd5b50505050600360009054906101000a900473ffffffffffffffffffffffffffffffffffffffff1673ffffffffffffffffffffffffffffffffffffffff16639b09c6446040518163ffffffff1660e01b815260040160006040518083038186803b15801561094357600080fd5b505afa158015610957573d6000803e3d6000fd5b505050506040513d6000823e3d601f19601f820116820180604052508101906109809190611528565b6007908051906020019061099592919061120c565b50600360009054906101000a900473ffffffffffffffffffffffffffffffffffffffff1673ffffffffffffffffffffffffffffffffffffffff16631bbadccc6040518163ffffffff1660e01b815260040160006040518083038186803b1580156109fe57600080fd5b505afa158015610a12573d6000803e3d6000fd5b505050506040513d6000823e3d601f19601f82011682018060405250810190610a3b91906114e7565b60089080519060200190610a50929190611259565b50600780549050600a81905550600360009054906101000a900473ffffffffffffffffffffffffffffffffffffffff1673ffffffffffffffffffffffffffffffffffffffff1663e391f55a6040518163ffffffff1660e01b8152600401600060405180830381600087803b158015610ac757600080fd5b505af1158015610adb573d6000803e3d6000fd5b50505050565b60025481565b600460009054906101000a900473ffffffffffffffffffffffffffffffffffffffff1681565b600160009054906101000a900460ff1681565b600660009054906101000a900460ff1681565b600080600090505b600780549050811015610cdc57670de0b6b3a7640000606460078381548110610b8d577f4e487b7100000000000000000000000000000000000000000000000000000000600052603260045260246000fd5b9060005260206000200154600054610ba5919061196e565b610baf919061193d565b610bb9919061196e565b915060088181548110610bf5577f4e487b7100000000000000000000000000000000000000000000000000000000600052603260045260246000fd5b9060005260206000200160009054906101000a900473ffffffffffffffffffffffffffffffffffffffff16600960006101000a81548173ffffffffffffffffffffffffffffffffffffffff021916908373ffffffffffffffffffffffffffffffffffffffff160217905550600960009054906101000a900473ffffffffffffffffffffffffffffffffffffffff1673ffffffffffffffffffffffffffffffffffffffff166108fc839081150290604051600060405180830381858888f19350505050158015610cc8573d6000803e3d6000fd5b508080610cd490611a75565b915050610b3b565b6001600660006101000a81548160ff021916908315150217905550610cff611112565b5050565b80600360006101000a81548173ffffffffffffffffffffffffffffffffffffffff021916908373ffffffffffffffffffffffffffffffffffffffff16021790555050565b60005481565b6000600360009054906101000a900473ffffffffffffffffffffffffffffffffffffffff1673ffffffffffffffffffffffffffffffffffffffff1663d811fcf06040518163ffffffff1660e01b815260040160206040518083038186803b158015610db757600080fd5b505afa158015610dcb573d6000803e3d6000fd5b505050506040513d601f19601f82011682018060405250810190610def91906114be565b600460006101000a81548173ffffffffffffffffffffffffffffffffffffffff021916908373ffffffffffffffffffffffffffffffffffffffff160217905550600360009054906101000a900473ffffffffffffffffffffffffffffffffffffffff1673ffffffffffffffffffffffffffffffffffffffff1663c52164c66040518163ffffffff1660e01b815260040160206040518083038186803b158015610e9757600080fd5b505afa158015610eab573d6000803e3d6000fd5b505050506040513d601f19601f82011682018060405250810190610ecf91906115bb565b60058190555060006005541415610eed5760326005819055506110e0565b6000805411156110df57600060025410158015610f0c57506028600254105b15610f2b57600a600554610f2091906119c8565b6005819055506110de565b602860025410158015610f4057506032600254105b15610f5f576006600554610f5491906119c8565b6005819055506110dd565b603260025410158015610f745750603c600254105b15610f93576004600554610f8891906119c8565b6005819055506110dc565b603c60025410158015610fa857506046600254105b156110015760506005541115610fdc57610fd16001600554610fca91906118e7565b60646111f0565b600581905550610ffc565b610ff56002600554610fee91906118e7565b60646111f0565b6005819055505b6110db565b60466002541015801561101657506050600254105b1561106f576050600554111561104a5761103f600260055461103891906118e7565b60646111f0565b60058190555061106a565b611063600360055461105c91906118e7565b60646111f0565b6005819055505b6110da565b6050600254101580156110855750606460025411155b156110d957605060055411156110b9576110ae60036005546110a791906118e7565b60646111f0565b6005819055506110d8565b6110d1600580546110ca91906118e7565b60646111f0565b6005819055505b5b5b5b5b5b5b5b5b600080819055506000600960146101000a81548160ff0219169083151502179055506000600281905550600554905090565b60005b600a548110156111ed576007805480611157577f4e487b7100000000000000000000000000000000000000000000000000000000600052603160045260246000fd5b6001900381819060005260206000200160009055905560088054806111a5577f4e487b7100000000000000000000000000000000000000000000000000000000600052603160045260246000fd5b6001900381819060005260206000200160006101000a81549073ffffffffffffffffffffffffffffffffffffffff0219169055905580806111e590611a75565b915050611115565b50565b60008183101561120257829050611206565b8190505b92915050565b828054828255906000526020600020908101928215611248579160200282015b8281111561124757825182559160200191906001019061122c565b5b50905061125591906112e3565b5090565b8280548282559060005260206000209081019282156112d2579160200282015b828111156112d15782518260006101000a81548173ffffffffffffffffffffffffffffffffffffffff021916908373ffffffffffffffffffffffffffffffffffffffff16021790555091602001919060010190611279565b5b5090506112df91906112e3565b5090565b5b808211156112fc5760008160009055506001016112e4565b5090565b600061131361130e8461181d565b6117f8565b9050808382526020820190508285602086028201111561133257600080fd5b60005b85811015611362578161134888826113ed565b845260208401935060208301925050600181019050611335565b5050509392505050565b600061137f61137a84611849565b6117f8565b9050808382526020820190508285602086028201111561139e57600080fd5b60005b858110156113ce57816113b48882611480565b8452602084019350602083019250506001810190506113a1565b5050509392505050565b6000813590506113e781611b5c565b92915050565b6000815190506113fc81611b5c565b92915050565b600082601f83011261141357600080fd5b8151611423848260208601611300565b91505092915050565b600082601f83011261143d57600080fd5b815161144d84826020860161136c565b91505092915050565b60008151905061146581611b73565b92915050565b60008135905061147a81611b8a565b92915050565b60008151905061148f81611b8a565b92915050565b6000602082840312156114a757600080fd5b60006114b5848285016113d8565b91505092915050565b6000602082840312156114d057600080fd5b60006114de848285016113ed565b91505092915050565b6000602082840312156114f957600080fd5b600082015167ffffffffffffffff81111561151357600080fd5b61151f84828501611402565b91505092915050565b60006020828403121561153a57600080fd5b600082015167ffffffffffffffff81111561155457600080fd5b6115608482850161142c565b91505092915050565b60006020828403121561157b57600080fd5b600061158984828501611456565b91505092915050565b6000602082840312156115a457600080fd5b60006115b28482850161146b565b91505092915050565b6000602082840312156115cd57600080fd5b60006115db84828501611480565b91505092915050565b60006115f08383611614565b60208301905092915050565b600061160883836116fd565b60208301905092915050565b61161d816119fc565b82525050565b61162c816119fc565b82525050565b600061163d82611895565b61164781856118c5565b935061165283611875565b8060005b8381101561168357815161166a88826115e4565b9750611675836118ab565b925050600181019050611656565b5085935050505092915050565b600061169b826118a0565b6116a581856118d6565b93506116b083611885565b8060005b838110156116e15781516116c888826115fc565b97506116d3836118b8565b9250506001810190506116b4565b5085935050505092915050565b6116f781611a0e565b82525050565b61170681611a3a565b82525050565b61171581611a3a565b82525050565b60006020820190506117306000830184611623565b92915050565b6000610100820190508181036000830152611751818b611690565b9050611760602083018a61170c565b81810360408301526117728189611632565b9050611781606083018861170c565b61178e60808301876116ee565b61179b60a08301866116ee565b6117a860c083018561170c565b6117b560e0830184611623565b9998505050505050505050565b60006020820190506117d760008301846116ee565b92915050565b60006020820190506117f2600083018461170c565b92915050565b6000611802611813565b905061180e8282611a44565b919050565b6000604051905090565b600067ffffffffffffffff82111561183857611837611b1c565b5b602082029050602081019050919050565b600067ffffffffffffffff82111561186457611863611b1c565b5b602082029050602081019050919050565b6000819050602082019050919050565b6000819050602082019050919050565b600081519050919050565b600081519050919050565b6000602082019050919050565b6000602082019050919050565b600082825260208201905092915050565b600082825260208201905092915050565b60006118f282611a3a565b91506118fd83611a3a565b9250827fffffffffffffffffffffffffffffffffffffffffffffffffffffffffffffffff0382111561193257611931611abe565b5b828201905092915050565b600061194882611a3a565b915061195383611a3a565b92508261196357611962611aed565b5b828204905092915050565b600061197982611a3a565b915061198483611a3a565b9250817fffffffffffffffffffffffffffffffffffffffffffffffffffffffffffffffff04831182151516156119bd576119bc611abe565b5b828202905092915050565b60006119d382611a3a565b91506119de83611a3a565b9250828210156119f1576119f0611abe565b5b828203905092915050565b6000611a0782611a1a565b9050919050565b60008115159050919050565b600073ffffffffffffffffffffffffffffffffffffffff82169050919050565b6000819050919050565b611a4d82611b4b565b810181811067ffffffffffffffff82111715611a6c57611a6b611b1c565b5b80604052505050565b6000611a8082611a3a565b91507fffffffffffffffffffffffffffffffffffffffffffffffffffffffffffffffff821415611ab357611ab2611abe565b5b600182019050919050565b7f4e487b7100000000000000000000000000000000000000000000000000000000600052601160045260246000fd5b7f4e487b7100000000000000000000000000000000000000000000000000000000600052601260045260246000fd5b7f4e487b7100000000000000000000000000000000000000000000000000000000600052604160045260246000fd5b6000601f19601f8301169050919050565b611b65816119fc565b8114611b7057600080fd5b50565b611b7c81611a0e565b8114611b8757600080fd5b50565b611b9381611a3a565b8114611b9e57600080fd5b5056fea2646970667358221220ff889549f3661f307c97cf0d712f821172a4d7156defa0eb65cc0a9814c6babd64736f6c63430008010033a2646970667358221220a39e64477a0d9c77f691a78bdd33cd4d790069c75bea921d7a5f60dab406272c64736f6c63430008010033",
  "immutableReferences": {},
  "source": "// SPDX-License-Identifier: MIT\r\npragma solidity ^0.8.1;\r\n\r\nimport \"./Crop.sol\";\r\nimport \"./GovtInput.sol\";\r\ncontract CropFactory{\r\n\tuint j = 0;\r\n\tstruct ContractAddresses{\r\n\t\taddress crop;\r\n\t\taddress govrep;\r\n\t}\r\n\tContractAddresses[] public contractaddresses;\r\n\r\n    mapping (address => ContractAddresses) public farmerContractMapping;\r\n    mapping (uint => address) public farmerAddresses;\r\n\r\n    function getContractsForFarmer() public view returns(ContractAddresses memory){\r\n        return(farmerContractMapping[msg.sender]);\r\n    }\r\n\r\n    function createCropForFarmer() public payable{\r\n\t\tCrop newCrop = new Crop(msg.sender);\r\n\t\tGovtInput newGovrep = new GovtInput();\r\n\t\tnewCrop.setAddress(address(newGovrep));\r\n\t\tnewGovrep.setAddress(address(newCrop));\r\n        farmerContractMapping[msg.sender] = ContractAddresses(address(newCrop),address(newGovrep));\r\n        farmerAddresses[j] = msg.sender; \r\n        contractaddresses.push(ContractAddresses(address(newCrop),address(newGovrep)));\r\n\t\tj++;\r\n    }\r\n    \r\n\tfunction getFarmerContractMapping() public view returns(ContractAddresses[] memory){\r\n\t    return contractaddresses;\r\n\t}\r\n}",
  "sourcePath": "C:/Users/rashmitha/Desktop/final-year-project/contracts/CropFactory.sol",
  "compiler": {
    "name": "solc",
    "version": "0.8.1+commit.df193b15.Emscripten.clang"
  },
  "schemaVersion": "3.4.1",
  "updatedAt": "2021-06-10T20:29:35.764Z",
  "devdoc": {
    "kind": "dev",
    "methods": {},
    "version": 1
  },
  "userdoc": {
    "kind": "user",
    "methods": {},
    "version": 1
  }
}