{
  "contractName": "GovtInput",
  "abi": [
    {
      "inputs": [],
      "name": "_farmer",
      "outputs": [
        {
          "internalType": "address",
          "name": "",
          "type": "address"
        }
      ],
      "stateMutability": "view",
      "type": "function"
    },
    {
      "inputs": [],
      "name": "_reputation",
      "outputs": [
        {
          "internalType": "uint256",
          "name": "",
          "type": "uint256"
        }
      ],
      "stateMutability": "view",
      "type": "function"
    },
    {
      "inputs": [
        {
          "internalType": "uint256",
          "name": "",
          "type": "uint256"
        }
      ],
      "name": "_returnAddress",
      "outputs": [
        {
          "internalType": "address",
          "name": "",
          "type": "address"
        }
      ],
      "stateMutability": "view",
      "type": "function"
    },
    {
      "inputs": [
        {
          "internalType": "uint256",
          "name": "",
          "type": "uint256"
        }
      ],
      "name": "_returnPercent",
      "outputs": [
        {
          "internalType": "uint256",
          "name": "",
          "type": "uint256"
        }
      ],
      "stateMutability": "view",
      "type": "function"
    },
    {
      "inputs": [],
      "name": "_returned",
      "outputs": [
        {
          "internalType": "bool",
          "name": "",
          "type": "bool"
        }
      ],
      "stateMutability": "view",
      "type": "function"
    },
    {
      "inputs": [],
      "name": "complete",
      "outputs": [
        {
          "internalType": "bool",
          "name": "",
          "type": "bool"
        }
      ],
      "stateMutability": "view",
      "type": "function"
    },
    {
      "inputs": [],
      "name": "returnAmt",
      "outputs": [
        {
          "internalType": "uint256",
          "name": "",
          "type": "uint256"
        }
      ],
      "stateMutability": "view",
      "type": "function"
    },
    {
      "inputs": [],
      "name": "returnPercent",
      "outputs": [
        {
          "internalType": "uint256",
          "name": "",
          "type": "uint256"
        }
      ],
      "stateMutability": "view",
      "type": "function"
    },
    {
      "inputs": [],
      "name": "verified",
      "outputs": [
        {
          "internalType": "bool",
          "name": "",
          "type": "bool"
        }
      ],
      "stateMutability": "view",
      "type": "function"
    },
    {
      "inputs": [
        {
          "internalType": "address",
          "name": "_address",
          "type": "address"
        }
      ],
      "name": "setAddress",
      "outputs": [],
      "stateMutability": "nonpayable",
      "type": "function"
    },
    {
      "inputs": [],
      "name": "getInvestAddressAndPercentage",
      "outputs": [],
      "stateMutability": "nonpayable",
      "type": "function"
    },
    {
      "inputs": [],
      "name": "payInvestors",
      "outputs": [],
      "stateMutability": "payable",
      "type": "function"
    },
    {
      "inputs": [],
      "name": "setRep",
      "outputs": [
        {
          "internalType": "uint256",
          "name": "",
          "type": "uint256"
        }
      ],
      "stateMutability": "nonpayable",
      "type": "function"
    },
    {
      "inputs": [],
      "name": "verification",
      "outputs": [
        {
          "internalType": "bool",
          "name": "",
          "type": "bool"
        }
      ],
      "stateMutability": "nonpayable",
      "type": "function"
    },
    {
      "inputs": [
        {
          "internalType": "uint256",
          "name": "_returnAmt",
          "type": "uint256"
        }
      ],
      "name": "getRetAmt",
      "outputs": [],
      "stateMutability": "payable",
      "type": "function"
    },
    {
      "inputs": [],
      "name": "getSummary",
      "outputs": [
        {
          "internalType": "uint256[]",
          "name": "",
          "type": "uint256[]"
        },
        {
          "internalType": "uint256",
          "name": "",
          "type": "uint256"
        },
        {
          "internalType": "address[]",
          "name": "",
          "type": "address[]"
        },
        {
          "internalType": "uint256",
          "name": "",
          "type": "uint256"
        },
        {
          "internalType": "bool",
          "name": "",
          "type": "bool"
        },
        {
          "internalType": "bool",
          "name": "",
          "type": "bool"
        },
        {
          "internalType": "uint256",
          "name": "",
          "type": "uint256"
        },
        {
          "internalType": "address",
          "name": "",
          "type": "address"
        }
      ],
      "stateMutability": "view",
      "type": "function"
    }
  ],
  "bytecode": "0x60806040526000600160006101000a81548160ff0219169083151502179055506000600660006101000a81548160ff0219169083151502179055506000600960146101000a81548160ff02191690831515021790555034801561006157600080fd5b50611bd7806100716000396000f3fe6080604052600436106100f25760003560e01c80638252ffc11161008a578063c31d3a6d11610059578063c31d3a6d14610303578063e30081a01461030d578063f9b5cbab14610336578063fc2ebd4114610361576100f2565b80638252ffc114610257578063a4327a3814610282578063bbb82d89146102ad578063be05eff5146102d8576100f2565b80634ffe2a8b116100c65780634ffe2a8b146101ce578063522e1177146101f95780635f0fd51b146102245780636e07c07914610240576100f2565b8062513a94146100f75780630e74591814610134578063401e7bf5146101715780634051ddac1461019c575b600080fd5b34801561010357600080fd5b5061011e60048036038101906101199190611592565b61038c565b60405161012b91906117dd565b60405180910390f35b34801561014057600080fd5b5061015b60048036038101906101569190611592565b6103b0565b604051610168919061171b565b60405180910390f35b34801561017d57600080fd5b506101866103ef565b60405161019391906117dd565b60405180910390f35b3480156101a857600080fd5b506101b16103f5565b6040516101c5989796959493929190611736565b60405180910390f35b3480156101da57600080fd5b506101e3610545565b6040516101f091906117c2565b60405180910390f35b34801561020557600080fd5b5061020e610656565b60405161021b91906117c2565b60405180910390f35b61023e60048036038101906102399190611592565b610669565b005b34801561024c57600080fd5b50610255610859565b005b34801561026357600080fd5b5061026c610ae1565b60405161027991906117dd565b60405180910390f35b34801561028e57600080fd5b50610297610ae7565b6040516102a4919061171b565b60405180910390f35b3480156102b957600080fd5b506102c2610b0d565b6040516102cf91906117c2565b60405180910390f35b3480156102e457600080fd5b506102ed610b20565b6040516102fa91906117c2565b60405180910390f35b61030b610b33565b005b34801561031957600080fd5b50610334600480360381019061032f9190611495565b610d03565b005b34801561034257600080fd5b5061034b610d47565b60405161035891906117dd565b60405180910390f35b34801561036d57600080fd5b50610376610d4d565b60405161038391906117dd565b60405180910390f35b6007818154811061039c57600080fd5b906000526020600020016000915090505481565b600881815481106103c057600080fd5b906000526020600020016000915054906101000a900473ffffffffffffffffffffffffffffffffffffffff1681565b60055481565b60606000606060008060008060006007476008600554600160009054906101000a900460ff16600660009054906101000a900460ff16600054600460009054906101000a900473ffffffffffffffffffffffffffffffffffffffff168780548060200260200160405190810160405280929190818152602001828054801561049c57602002820191906000526020600020905b815481526020019060010190808311610488575b505050505097508580548060200260200160405190810160405280929190818152602001828054801561052457602002820191906000526020600020905b8160009054906101000a900473ffffffffffffffffffffffffffffffffffffffff1673ffffffffffffffffffffffffffffffffffffffff16815260200190600101908083116104da575b50505050509550975097509750975097509750975097509091929394959697565b6000600360009054906101000a900473ffffffffffffffffffffffffffffffffffffffff1673ffffffffffffffffffffffffffffffffffffffff1663d811fcf06040518163ffffffff1660e01b815260040160206040518083038186803b1580156105af57600080fd5b505afa1580156105c3573d6000803e3d6000fd5b505050506040513d601f19601f820116820180604052508101906105e791906114be565b600460006101000a81548173ffffffffffffffffffffffffffffffffffffffff021916908373ffffffffffffffffffffffffffffffffffffffff16021790555060018060006101000a81548160ff021916908315150217905550600160009054906101000a900460ff16905090565b600960149054906101000a900460ff1681565b6000801515600960149054906101000a900460ff1615151461068a57600080fd5b600360009054906101000a900473ffffffffffffffffffffffffffffffffffffffff1673ffffffffffffffffffffffffffffffffffffffff16636cb764086040518163ffffffff1660e01b815260040160206040518083038186803b1580156106f257600080fd5b505afa158015610706573d6000803e3d6000fd5b505050506040513d601f19601f8201168201806040525081019061072a9190611569565b600660006101000a81548160ff02191690831515021790555081600081905550600360009054906101000a900473ffffffffffffffffffffffffffffffffffffffff1673ffffffffffffffffffffffffffffffffffffffff16631344aec96040518163ffffffff1660e01b815260040160206040518083038186803b1580156107b257600080fd5b505afa1580156107c6573d6000803e3d6000fd5b505050506040513d601f19601f820116820180604052508101906107ea91906115bb565b9050806064670de0b6b3a7640000600054610805919061196e565b61080f919061196e565b610819919061193d565b6002819055506000600660006101000a81548160ff0219169083151502179055506001600960146101000a81548160ff0219169083151502179055505050565b600360009054906101000a900473ffffffffffffffffffffffffffffffffffffffff1673ffffffffffffffffffffffffffffffffffffffff1663c57480d86040518163ffffffff1660e01b8152600401600060405180830381600087803b1580156108c357600080fd5b505af11580156108d7573d6000803e3d6000fd5b50505050600360009054906101000a900473ffffffffffffffffffffffffffffffffffffffff1673ffffffffffffffffffffffffffffffffffffffff16639b09c6446040518163ffffffff1660e01b815260040160006040518083038186803b15801561094357600080fd5b505afa158015610957573d6000803e3d6000fd5b505050506040513d6000823e3d601f19601f820116820180604052508101906109809190611528565b6007908051906020019061099592919061120c565b50600360009054906101000a900473ffffffffffffffffffffffffffffffffffffffff1673ffffffffffffffffffffffffffffffffffffffff16631bbadccc6040518163ffffffff1660e01b815260040160006040518083038186803b1580156109fe57600080fd5b505afa158015610a12573d6000803e3d6000fd5b505050506040513d6000823e3d601f19601f82011682018060405250810190610a3b91906114e7565b60089080519060200190610a50929190611259565b50600780549050600a81905550600360009054906101000a900473ffffffffffffffffffffffffffffffffffffffff1673ffffffffffffffffffffffffffffffffffffffff1663e391f55a6040518163ffffffff1660e01b8152600401600060405180830381600087803b158015610ac757600080fd5b505af1158015610adb573d6000803e3d6000fd5b50505050565b60025481565b600460009054906101000a900473ffffffffffffffffffffffffffffffffffffffff1681565b600160009054906101000a900460ff1681565b600660009054906101000a900460ff1681565b600080600090505b600780549050811015610cdc57670de0b6b3a7640000606460078381548110610b8d577f4e487b7100000000000000000000000000000000000000000000000000000000600052603260045260246000fd5b9060005260206000200154600054610ba5919061196e565b610baf919061193d565b610bb9919061196e565b915060088181548110610bf5577f4e487b7100000000000000000000000000000000000000000000000000000000600052603260045260246000fd5b9060005260206000200160009054906101000a900473ffffffffffffffffffffffffffffffffffffffff16600960006101000a81548173ffffffffffffffffffffffffffffffffffffffff021916908373ffffffffffffffffffffffffffffffffffffffff160217905550600960009054906101000a900473ffffffffffffffffffffffffffffffffffffffff1673ffffffffffffffffffffffffffffffffffffffff166108fc839081150290604051600060405180830381858888f19350505050158015610cc8573d6000803e3d6000fd5b508080610cd490611a75565b915050610b3b565b6001600660006101000a81548160ff021916908315150217905550610cff611112565b5050565b80600360006101000a81548173ffffffffffffffffffffffffffffffffffffffff021916908373ffffffffffffffffffffffffffffffffffffffff16021790555050565b60005481565b6000600360009054906101000a900473ffffffffffffffffffffffffffffffffffffffff1673ffffffffffffffffffffffffffffffffffffffff1663d811fcf06040518163ffffffff1660e01b815260040160206040518083038186803b158015610db757600080fd5b505afa158015610dcb573d6000803e3d6000fd5b505050506040513d601f19601f82011682018060405250810190610def91906114be565b600460006101000a81548173ffffffffffffffffffffffffffffffffffffffff021916908373ffffffffffffffffffffffffffffffffffffffff160217905550600360009054906101000a900473ffffffffffffffffffffffffffffffffffffffff1673ffffffffffffffffffffffffffffffffffffffff1663c52164c66040518163ffffffff1660e01b815260040160206040518083038186803b158015610e9757600080fd5b505afa158015610eab573d6000803e3d6000fd5b505050506040513d601f19601f82011682018060405250810190610ecf91906115bb565b60058190555060006005541415610eed5760326005819055506110e0565b6000805411156110df57600060025410158015610f0c57506028600254105b15610f2b57600a600554610f2091906119c8565b6005819055506110de565b602860025410158015610f4057506032600254105b15610f5f576006600554610f5491906119c8565b6005819055506110dd565b603260025410158015610f745750603c600254105b15610f93576004600554610f8891906119c8565b6005819055506110dc565b603c60025410158015610fa857506046600254105b156110015760506005541115610fdc57610fd16001600554610fca91906118e7565b60646111f0565b600581905550610ffc565b610ff56002600554610fee91906118e7565b60646111f0565b6005819055505b6110db565b60466002541015801561101657506050600254105b1561106f576050600554111561104a5761103f600260055461103891906118e7565b60646111f0565b60058190555061106a565b611063600360055461105c91906118e7565b60646111f0565b6005819055505b6110da565b6050600254101580156110855750606460025411155b156110d957605060055411156110b9576110ae60036005546110a791906118e7565b60646111f0565b6005819055506110d8565b6110d1600580546110ca91906118e7565b60646111f0565b6005819055505b5b5b5b5b5b5b5b5b600080819055506000600960146101000a81548160ff0219169083151502179055506000600281905550600554905090565b60005b600a548110156111ed576007805480611157577f4e487b7100000000000000000000000000000000000000000000000000000000600052603160045260246000fd5b6001900381819060005260206000200160009055905560088054806111a5577f4e487b7100000000000000000000000000000000000000000000000000000000600052603160045260246000fd5b6001900381819060005260206000200160006101000a81549073ffffffffffffffffffffffffffffffffffffffff0219169055905580806111e590611a75565b915050611115565b50565b60008183101561120257829050611206565b8190505b92915050565b828054828255906000526020600020908101928215611248579160200282015b8281111561124757825182559160200191906001019061122c565b5b50905061125591906112e3565b5090565b8280548282559060005260206000209081019282156112d2579160200282015b828111156112d15782518260006101000a81548173ffffffffffffffffffffffffffffffffffffffff021916908373ffffffffffffffffffffffffffffffffffffffff16021790555091602001919060010190611279565b5b5090506112df91906112e3565b5090565b5b808211156112fc5760008160009055506001016112e4565b5090565b600061131361130e8461181d565b6117f8565b9050808382526020820190508285602086028201111561133257600080fd5b60005b85811015611362578161134888826113ed565b845260208401935060208301925050600181019050611335565b5050509392505050565b600061137f61137a84611849565b6117f8565b9050808382526020820190508285602086028201111561139e57600080fd5b60005b858110156113ce57816113b48882611480565b8452602084019350602083019250506001810190506113a1565b5050509392505050565b6000813590506113e781611b5c565b92915050565b6000815190506113fc81611b5c565b92915050565b600082601f83011261141357600080fd5b8151611423848260208601611300565b91505092915050565b600082601f83011261143d57600080fd5b815161144d84826020860161136c565b91505092915050565b60008151905061146581611b73565b92915050565b60008135905061147a81611b8a565b92915050565b60008151905061148f81611b8a565b92915050565b6000602082840312156114a757600080fd5b60006114b5848285016113d8565b91505092915050565b6000602082840312156114d057600080fd5b60006114de848285016113ed565b91505092915050565b6000602082840312156114f957600080fd5b600082015167ffffffffffffffff81111561151357600080fd5b61151f84828501611402565b91505092915050565b60006020828403121561153a57600080fd5b600082015167ffffffffffffffff81111561155457600080fd5b6115608482850161142c565b91505092915050565b60006020828403121561157b57600080fd5b600061158984828501611456565b91505092915050565b6000602082840312156115a457600080fd5b60006115b28482850161146b565b91505092915050565b6000602082840312156115cd57600080fd5b60006115db84828501611480565b91505092915050565b60006115f08383611614565b60208301905092915050565b600061160883836116fd565b60208301905092915050565b61161d816119fc565b82525050565b61162c816119fc565b82525050565b600061163d82611895565b61164781856118c5565b935061165283611875565b8060005b8381101561168357815161166a88826115e4565b9750611675836118ab565b925050600181019050611656565b5085935050505092915050565b600061169b826118a0565b6116a581856118d6565b93506116b083611885565b8060005b838110156116e15781516116c888826115fc565b97506116d3836118b8565b9250506001810190506116b4565b5085935050505092915050565b6116f781611a0e565b82525050565b61170681611a3a565b82525050565b61171581611a3a565b82525050565b60006020820190506117306000830184611623565b92915050565b6000610100820190508181036000830152611751818b611690565b9050611760602083018a61170c565b81810360408301526117728189611632565b9050611781606083018861170c565b61178e60808301876116ee565b61179b60a08301866116ee565b6117a860c083018561170c565b6117b560e0830184611623565b9998505050505050505050565b60006020820190506117d760008301846116ee565b92915050565b60006020820190506117f2600083018461170c565b92915050565b6000611802611813565b905061180e8282611a44565b919050565b6000604051905090565b600067ffffffffffffffff82111561183857611837611b1c565b5b602082029050602081019050919050565b600067ffffffffffffffff82111561186457611863611b1c565b5b602082029050602081019050919050565b6000819050602082019050919050565b6000819050602082019050919050565b600081519050919050565b600081519050919050565b6000602082019050919050565b6000602082019050919050565b600082825260208201905092915050565b600082825260208201905092915050565b60006118f282611a3a565b91506118fd83611a3a565b9250827fffffffffffffffffffffffffffffffffffffffffffffffffffffffffffffffff0382111561193257611931611abe565b5b828201905092915050565b600061194882611a3a565b915061195383611a3a565b92508261196357611962611aed565b5b828204905092915050565b600061197982611a3a565b915061198483611a3a565b9250817fffffffffffffffffffffffffffffffffffffffffffffffffffffffffffffffff04831182151516156119bd576119bc611abe565b5b828202905092915050565b60006119d382611a3a565b91506119de83611a3a565b9250828210156119f1576119f0611abe565b5b828203905092915050565b6000611a0782611a1a565b9050919050565b60008115159050919050565b600073ffffffffffffffffffffffffffffffffffffffff82169050919050565b6000819050919050565b611a4d82611b4b565b810181811067ffffffffffffffff82111715611a6c57611a6b611b1c565b5b80604052505050565b6000611a8082611a3a565b91507fffffffffffffffffffffffffffffffffffffffffffffffffffffffffffffffff821415611ab357611ab2611abe565b5b600182019050919050565b7f4e487b7100000000000000000000000000000000000000000000000000000000600052601160045260246000fd5b7f4e487b7100000000000000000000000000000000000000000000000000000000600052601260045260246000fd5b7f4e487b7100000000000000000000000000000000000000000000000000000000600052604160045260246000fd5b6000601f19601f8301169050919050565b611b65816119fc565b8114611b7057600080fd5b50565b611b7c81611a0e565b8114611b8757600080fd5b50565b611b9381611a3a565b8114611b9e57600080fd5b5056fea26469706673582212206fbd410aa57111c9a9f6958c7b4c60b69ca2dff23ee84ece5ab82ce47f9d570a64736f6c63430008010033",
  "immutableReferences": {},
  "source": "// SPDX-License-Identifier: MIT\r\npragma solidity ^0.8.1;\r\nimport \"./Crop.sol\";\r\n\r\ncontract GovtInput{\r\n    \r\n    uint256 public returnAmt;\r\n    bool public verified = false;\r\n    uint256 public returnPercent;\r\n    Crop rep;\r\n    address public _farmer;\r\n    uint256 public _reputation;\r\n    bool public _returned = false;\r\n    uint256[] public _returnPercent;\r\n    address[] public _returnAddress;\r\n    address payable temp1;\r\n    bool public complete = false;\r\n    uint length;\r\n   \r\n    \r\n    function setAddress(address _address) public{\r\n        rep = Crop(_address);\r\n    }\r\n     \r\n     function getInvestAddressAndPercentage() public {\r\n          rep.getInvestPercentage();\r\n        _returnPercent =  rep.retInvestPercentage();\r\n        _returnAddress =  rep.retInvestAddress();\r\n        length = _returnPercent.length;\r\n        rep.resetInvestedPercentAndInvestorsAddress();\r\n     }\r\n     function payInvestors() public payable {\r\n         uint temp;\r\n         uint i;\r\n         for(i = 0; i < _returnPercent.length; i++)\r\n         {\r\n             temp = ((returnAmt * _returnPercent[i])/100) * (1 ether);\r\n             temp1 = payable(_returnAddress[i]);\r\n             temp1.transfer(temp);\r\n         }\r\n         _returned = true;\r\n         resetInvestedPercentAndInvestorsAddress();\r\n         \r\n     }\r\n\r\n    function setRep() public returns(uint256) {\r\n         _farmer = rep.farmer();\r\n         _reputation = rep.reputation();\r\n        if(_reputation == 0)\r\n        {\r\n            _reputation = 50;\r\n        }\r\n        else{\r\n            if(returnAmt > 0)\r\n            {\r\n                 \r\n                if(returnPercent >= 0 && returnPercent < 40)\r\n                    _reputation = _reputation - 10;\r\n                else if(returnPercent >= 40 && returnPercent < 50)\r\n                    _reputation = _reputation - 6;\r\n                else if(returnPercent >= 50 && returnPercent < 60)\r\n                    _reputation = _reputation - 4;\r\n                else if(returnPercent >= 60 && returnPercent < 70)\r\n                {\r\n                    if(_reputation > 80)\r\n                       _reputation = min(_reputation + 1,100);  \r\n                    else\r\n                       _reputation = min(_reputation + 2,100);\r\n                }\r\n                    \r\n                else if(returnPercent >= 70 && returnPercent < 80)\r\n                {\r\n                    if(_reputation > 80)\r\n                        _reputation = min(_reputation + 2,100);\r\n                    else\r\n                        _reputation = min(_reputation + 3,100);\r\n                }\r\n                \r\n                else if(returnPercent >= 80 && returnPercent <= 100)\r\n                {\r\n                    if(_reputation > 80)\r\n                        _reputation = min(_reputation + 3,100);\r\n                    else\r\n                        _reputation = min(_reputation + 5,100);\r\n                }\r\n            }\r\n        }\r\n        returnAmt = 0;\r\n        complete = false;\r\n        returnPercent = 0;\r\n        return(_reputation);\r\n    }\r\n    \r\n   function verification() public returns(bool){\r\n         _farmer = rep.farmer();\r\n        verified = true;\r\n        return(verified);\r\n    }\r\n\r\n    function getRetAmt(uint _returnAmt) public payable{\r\n        uint _amtRaised;\r\n           require(complete == false);\r\n           _returned = rep.returned();\r\n        returnAmt = _returnAmt;\r\n        _amtRaised = rep.amtRaised();\r\n        returnPercent = (returnAmt * (1 ether) * 100)/_amtRaised;\r\n        _returned = false;\r\n        complete = true;\r\n        \r\n    }\r\n\r\n    function min(uint256 a,uint256 b) private returns (uint256){\r\n        if(a < b)\r\n            return(a);\r\n        else \r\n            return(b);\r\n    }\r\n    \r\n    function getSummary() public view returns (uint256 [] memory, uint, address [] memory, uint, bool, bool,uint, address) {\r\n        return (\r\n            _returnPercent,\r\n            address(this).balance,  //request current balance of contract\r\n            _returnAddress,\r\n            _reputation,\r\n            verified,\r\n            _returned,\r\n            returnAmt,\r\n            _farmer\r\n            );\r\n    }\r\n   function resetInvestedPercentAndInvestorsAddress() private{\r\n        uint i;\r\n        for(i = 0;i < length; i++)\r\n        {\r\n            _returnPercent.pop();\r\n            _returnAddress.pop();\r\n        }\r\n    }\r\n}\r\n",
  "sourcePath": "C:\\Users\\addzy\\FarmFund\\contracts\\GovtInput.sol",
  "compiler": {
    "name": "solc",
    "version": "0.8.1+commit.df193b15.Emscripten.clang"
  },
  "schemaVersion": "3.4.1",
  "updatedAt": "2021-06-08T16:57:05.357Z",
  "devdoc": {
    "kind": "dev",
    "methods": {},
    "version": 1
  },
  "userdoc": {
    "kind": "user",
    "methods": {},
    "version": 1
  }
}