{
  "contractName": "RequestFactory",
  "abi": [
    {
      "inputs": [
        {
          "internalType": "uint256",
          "name": "",
          "type": "uint256"
        }
      ],
      "name": "deployedRequests",
      "outputs": [
        {
          "internalType": "address",
          "name": "",
          "type": "address"
        }
      ],
      "stateMutability": "view",
      "type": "function"
    },
    {
      "inputs": [],
      "name": "createNewRequest",
      "outputs": [],
      "stateMutability": "nonpayable",
      "type": "function"
    },
    {
      "inputs": [],
      "name": "getDeployedRequests",
      "outputs": [
        {
          "internalType": "address[]",
          "name": "",
          "type": "address[]"
        }
      ],
      "stateMutability": "view",
      "type": "function"
    }
  ],
  "bytecode": "0x608060405234801561001057600080fd5b50612496806100206000396000f3fe608060405234801561001057600080fd5b50600436106100415760003560e01c80634005ec3d14610046578063ccf431b414610064578063f832f94a1461006e575b600080fd5b61004e61009e565b60405161005b9190610303565b60405180910390f35b61006c61012c565b005b6100886004803603810190610083919061022b565b6101ca565b60405161009591906102e8565b60405180910390f35b6060600080548060200260200160405190810160405280929190818152602001828054801561012257602002820191906000526020600020905b8160009054906101000a900473ffffffffffffffffffffffffffffffffffffffff1673ffffffffffffffffffffffffffffffffffffffff16815260200190600101908083116100d8575b5050505050905090565b60003360405161013b90610209565b61014591906102e8565b604051809103906000f080158015610161573d6000803e3d6000fd5b5090506000819080600181540180825580915050600190039060005260206000200160009091909190916101000a81548173ffffffffffffffffffffffffffffffffffffffff021916908373ffffffffffffffffffffffffffffffffffffffff16021790555050565b600081815481106101da57600080fd5b906000526020600020016000915054906101000a900473ffffffffffffffffffffffffffffffffffffffff1681565b6120af806103b283390190565b6000813590506102258161039a565b92915050565b60006020828403121561023d57600080fd5b600061024b84828501610216565b91505092915050565b6000610260838361026c565b60208301905092915050565b6102758161035e565b82525050565b6102848161035e565b82525050565b600061029582610335565b61029f818561034d565b93506102aa83610325565b8060005b838110156102db5781516102c28882610254565b97506102cd83610340565b9250506001810190506102ae565b5085935050505092915050565b60006020820190506102fd600083018461027b565b92915050565b6000602082019050818103600083015261031d818461028a565b905092915050565b6000819050602082019050919050565b600081519050919050565b6000602082019050919050565b600082825260208201905092915050565b600061036982610370565b9050919050565b600073ffffffffffffffffffffffffffffffffffffffff82169050919050565b6000819050919050565b6103a381610390565b81146103ae57600080fd5b5056fe60806040526000600255600160035560006004556000600560006101000a81548160ff0219169083151502179055506000600560016101000a81548160ff0219169083151502179055506000600b553480156200005b57600080fd5b50604051620020af380380620020af8339818101604052810190620000819190620000e0565b80600a60006101000a81548173ffffffffffffffffffffffffffffffffffffffff021916908373ffffffffffffffffffffffffffffffffffffffff160217905550506200015a565b600081519050620000da8162000140565b92915050565b600060208284031215620000f357600080fd5b60006200010384828501620000c9565b91505092915050565b6000620001198262000120565b9050919050565b600073ffffffffffffffffffffffffffffffffffffffff82169050919050565b6200014b816200010c565b81146200015757600080fd5b50565b611f45806200016a6000396000f3fe6080604052600436106101405760003560e01c806390a59e52116100b6578063d15012061161006f578063d15012061461040c578063d811fcf014610435578063dce5f27714610460578063e30081a01461049d578063e391f55a146104c6578063f8c29fc4146104dd57610140565b806390a59e521461032d57806399bd36001461036a5780639b09c64414610374578063bbb82d891461039f578063c52164c6146103ca578063c57480d8146103f557610140565b8063509cfe4211610108578063509cfe42146102155780636a0702b2146102525780636c1f7952146102695780636cb764081461029457806381d12c58146102bf5780638ac2c6801461030257610140565b80631344aec9146101455780631bbadccc146101705780633feb5f2b1461019b5780634051ddac146101d857806345fbfbca1461020b575b600080fd5b34801561015157600080fd5b5061015a61051a565b6040516101679190611a8a565b60405180910390f35b34801561017c57600080fd5b50610185610520565b604051610192919061191a565b60405180910390f35b3480156101a757600080fd5b506101c260048036038101906101bd919061172e565b6105ae565b6040516101cf91906118ff565b60405180910390f35b3480156101e457600080fd5b506101ed6105e1565b6040516102029998979695949392919061195e565b60405180910390f35b61021361073a565b005b34801561022157600080fd5b5061023c6004803603810190610237919061172e565b61089f565b6040516102499190611a8a565b60405180910390f35b34801561025e57600080fd5b506102676108c3565b005b34801561027557600080fd5b5061027e61097e565b60405161028b9190611a8a565b60405180910390f35b3480156102a057600080fd5b506102a9610984565b6040516102b691906119f9565b60405180910390f35b3480156102cb57600080fd5b506102e660048036038101906102e1919061172e565b610997565b6040516102f99796959493929190611a14565b60405180910390f35b34801561030e57600080fd5b50610317610a9e565b6040516103249190611a8a565b60405180910390f35b34801561033957600080fd5b50610354600480360381019061034f9190611661565b610aa4565b6040516103619190611a8a565b60405180910390f35b610372610abc565b005b34801561038057600080fd5b50610389610c16565b604051610396919061193c565b60405180910390f35b3480156103ab57600080fd5b506103b4610c6e565b6040516103c191906119f9565b60405180910390f35b3480156103d657600080fd5b506103df610c81565b6040516103ec9190611a8a565b60405180910390f35b34801561040157600080fd5b5061040a610c87565b005b34801561041857600080fd5b50610433600480360381019061042e91906116b3565b610e66565b005b34801561044157600080fd5b5061044a6112b1565b60405161045791906118ff565b60405180910390f35b34801561046c57600080fd5b506104876004803603810190610482919061172e565b6112d7565b60405161049491906118ff565b60405180910390f35b3480156104a957600080fd5b506104c460048036038101906104bf9190611661565b611316565b005b3480156104d257600080fd5b506104db611359565b005b3480156104e957600080fd5b5061050460048036038101906104ff919061172e565b611493565b6040516105119190611a8a565b60405180910390f35b60025481565b606060078054806020026020016040519081016040528092919081815260200182805480156105a457602002820191906000526020600020905b8160009054906101000a900473ffffffffffffffffffffffffffffffffffffffff1673ffffffffffffffffffffffffffffffffffffffff168152602001906001019080831161055a575b5050505050905090565b60086020528060005260406000206000915054906101000a900473ffffffffffffffffffffffffffffffffffffffff1681565b60608060008060008060008060006006600760035447600180549050600454600560019054906101000a900460ff16600560009054906101000a900460ff16600a60009054906101000a900473ffffffffffffffffffffffffffffffffffffffff168880548060200260200160405190810160405280929190818152602001828054801561068e57602002820191906000526020600020905b81548152602001906001019080831161067a575b505050505098508780548060200260200160405190810160405280929190818152602001828054801561071657602002820191906000526020600020905b8160009054906101000a900473ffffffffffffffffffffffffffffffffffffffff1673ffffffffffffffffffffffffffffffffffffffff16815260200190600101908083116106cc575b50505050509750985098509850985098509850985098509850909192939495969798565b6000600180600b5461074c9190611c6a565b81548110610783577f4e487b7100000000000000000000000000000000000000000000000000000000600052603260045260246000fd5b90600052602060002090600702019050600015158160060160009054906101000a900460ff161515146107b557600080fd5b806004015442106107c557600080fd5b6003543410156107d457600080fd5b346002546107e29190611b89565b60028190555033600860008360050154815260200190815260200160002060006101000a81548173ffffffffffffffffffffffffffffffffffffffff021916908373ffffffffffffffffffffffffffffffffffffffff16021790555080600501600081548092919061085390611d9d565b919050555034600960003373ffffffffffffffffffffffffffffffffffffffff1673ffffffffffffffffffffffffffffffffffffffff1681526020019081526020016000208190555050565b600681815481106108af57600080fd5b906000526020600020016000915090505481565b60008054906101000a900473ffffffffffffffffffffffffffffffffffffffff1673ffffffffffffffffffffffffffffffffffffffff16634ffe2a8b6040518163ffffffff1660e01b8152600401602060405180830381600087803b15801561092b57600080fd5b505af115801561093f573d6000803e3d6000fd5b505050506040513d601f19601f82011682018060405250810190610963919061168a565b600560016101000a81548160ff021916908315150217905550565b600b5481565b600560009054906101000a900460ff1681565b600181815481106109a757600080fd5b90600052602060002090600702016000915090508060000180546109ca90611d3a565b80601f01602080910402602001604051908101604052809291908181526020018280546109f690611d3a565b8015610a435780601f10610a1857610100808354040283529160200191610a43565b820191906000526020600020905b815481529060010190602001808311610a2657829003601f168201915b5050505050908060010154908060020154908060030160009054906101000a900473ffffffffffffffffffffffffffffffffffffffff16908060040154908060050154908060060160009054906101000a900460ff16905087565b60035481565b60096020528060005260406000206000915090505481565b600a60009054906101000a900473ffffffffffffffffffffffffffffffffffffffff1673ffffffffffffffffffffffffffffffffffffffff163373ffffffffffffffffffffffffffffffffffffffff1614610b1657600080fd5b6000600180600b54610b289190611c6a565b81548110610b5f577f4e487b7100000000000000000000000000000000000000000000000000000000600052603260045260246000fd5b906000526020600020906007020190508060060160009054906101000a900460ff1615610b8b57600080fd5b8060030160009054906101000a900473ffffffffffffffffffffffffffffffffffffffff1673ffffffffffffffffffffffffffffffffffffffff166108fc479081150290604051600060405180830381858888f19350505050158015610bf5573d6000803e3d6000fd5b5060018160060160006101000a81548160ff02191690831515021790555050565b60606006805480602002602001604051908101604052809291908181526020018280548015610c6457602002820191906000526020600020905b815481526020019060010190808311610c50575b5050505050905090565b600560019054906101000a900460ff1681565b60045481565b600080600080600180600b54610c9d9190611c6a565b81548110610cd4577f4e487b7100000000000000000000000000000000000000000000000000000000600052603260045260246000fd5b90600052602060002090600702019050600091505b8060050154821015610e585760076008600084815260200190815260200160002060009054906101000a900473ffffffffffffffffffffffffffffffffffffffff169080600181540180825580915050600190039060005260206000200160009091909190916101000a81548173ffffffffffffffffffffffffffffffffffffffff021916908373ffffffffffffffffffffffffffffffffffffffff160217905550600960006008600085815260200190815260200160002060009054906101000a900473ffffffffffffffffffffffffffffffffffffffff1673ffffffffffffffffffffffffffffffffffffffff1673ffffffffffffffffffffffffffffffffffffffff168152602001908152602001600020549350600254606485610e109190611c10565b610e1a9190611bdf565b925060068390806001815401808255809150506001900390600052602060002001600090919091909150558180610e5090611d9d565b925050610ce9565b600060028190555050505050565b600a60009054906101000a900473ffffffffffffffffffffffffffffffffffffffff1673ffffffffffffffffffffffffffffffffffffffff163373ffffffffffffffffffffffffffffffffffffffff1614610ec057600080fd5b60008054906101000a900473ffffffffffffffffffffffffffffffffffffffff1673ffffffffffffffffffffffffffffffffffffffff1663fc2ebd416040518163ffffffff1660e01b8152600401602060405180830381600087803b158015610f2857600080fd5b505af1158015610f3c573d6000803e3d6000fd5b505050506040513d601f19601f82011682018060405250810190610f609190611757565b6004819055506000600b54111561105c5760008054906101000a900473ffffffffffffffffffffffffffffffffffffffff1673ffffffffffffffffffffffffffffffffffffffff1663be05eff56040518163ffffffff1660e01b815260040160206040518083038186803b158015610fd757600080fd5b505afa158015610feb573d6000803e3d6000fd5b505050506040513d601f19601f8201168201806040525081019061100f919061168a565b600560006101000a81548160ff02191690831515021790555060286004541161103757600080fd5b60011515600560009054906101000a900460ff1615151461105757600080fd5b611136565b60008054906101000a900473ffffffffffffffffffffffffffffffffffffffff1673ffffffffffffffffffffffffffffffffffffffff16634ffe2a8b6040518163ffffffff1660e01b8152600401602060405180830381600087803b1580156110c457600080fd5b505af11580156110d8573d6000803e3d6000fd5b505050506040513d601f19601f820116820180604052508101906110fc919061168a565b600560016101000a81548160ff02191690831515021790555060011515600560019054906101000a900460ff1615151461113557600080fd5b5b60006040518060e001604052808681526020018581526020018481526020018373ffffffffffffffffffffffffffffffffffffffff16815260200184620151806111809190611c10565b4261118b9190611b89565b815260200160008152602001600015158152509050600181908060018154018082558091505060019003906000526020600020906007020160009091909190915060008201518160000190805190602001906111e89291906114ed565b50602082015181600101556040820151816002015560608201518160030160006101000a81548173ffffffffffffffffffffffffffffffffffffffff021916908373ffffffffffffffffffffffffffffffffffffffff1602179055506080820151816004015560a0820151816005015560c08201518160060160006101000a81548160ff02191690831515021790555050506001600b546112899190611b89565b600b819055506000600560006101000a81548160ff0219169083151502179055505050505050565b600a60009054906101000a900473ffffffffffffffffffffffffffffffffffffffff1681565b600781815481106112e757600080fd5b906000526020600020016000915054906101000a900473ffffffffffffffffffffffffffffffffffffffff1681565b806000806101000a81548173ffffffffffffffffffffffffffffffffffffffff021916908373ffffffffffffffffffffffffffffffffffffffff16021790555050565b6000600180600b5461136b9190611c6a565b815481106113a2577f4e487b7100000000000000000000000000000000000000000000000000000000600052603260045260246000fd5b9060005260206000209060070201905060005b816005015481101561148f5760068054806113f9577f4e487b7100000000000000000000000000000000000000000000000000000000600052603160045260246000fd5b600190038181906000526020600020016000905590556007805480611447577f4e487b7100000000000000000000000000000000000000000000000000000000600052603160045260246000fd5b6001900381819060005260206000200160006101000a81549073ffffffffffffffffffffffffffffffffffffffff02191690559055808061148790611d9d565b9150506113b5565b5050565b600080600183815481106114d0577f4e487b7100000000000000000000000000000000000000000000000000000000600052603260045260246000fd5b906000526020600020906007020190508060050154915050919050565b8280546114f990611d3a565b90600052602060002090601f01602090048101928261151b5760008555611562565b82601f1061153457805160ff1916838001178555611562565b82800160010185558215611562579182015b82811115611561578251825591602001919060010190611546565b5b50905061156f9190611573565b5090565b5b8082111561158c576000816000905550600101611574565b5090565b60006115a361159e84611aca565b611aa5565b9050828152602081018484840111156115bb57600080fd5b6115c6848285611cf8565b509392505050565b6000813590506115dd81611eb3565b92915050565b6000813590506115f281611eca565b92915050565b60008151905061160781611ee1565b92915050565b600082601f83011261161e57600080fd5b813561162e848260208601611590565b91505092915050565b60008135905061164681611ef8565b92915050565b60008151905061165b81611ef8565b92915050565b60006020828403121561167357600080fd5b6000611681848285016115ce565b91505092915050565b60006020828403121561169c57600080fd5b60006116aa848285016115f8565b91505092915050565b600080600080608085870312156116c957600080fd5b600085013567ffffffffffffffff8111156116e357600080fd5b6116ef8782880161160d565b945050602061170087828801611637565b935050604061171187828801611637565b9250506060611722878288016115e3565b91505092959194509250565b60006020828403121561174057600080fd5b600061174e84828501611637565b91505092915050565b60006020828403121561176957600080fd5b60006117778482850161164c565b91505092915050565b600061178c83836117bf565b60208301905092915050565b60006117a483836118e1565b60208301905092915050565b6117b981611cb0565b82525050565b6117c881611c9e565b82525050565b6117d781611c9e565b82525050565b60006117e882611b1b565b6117f28185611b56565b93506117fd83611afb565b8060005b8381101561182e5781516118158882611780565b975061182083611b3c565b925050600181019050611801565b5085935050505092915050565b600061184682611b26565b6118508185611b67565b935061185b83611b0b565b8060005b8381101561188c5781516118738882611798565b975061187e83611b49565b92505060018101905061185f565b5085935050505092915050565b6118a281611cc2565b82525050565b60006118b382611b31565b6118bd8185611b78565b93506118cd818560208601611d07565b6118d681611ea2565b840191505092915050565b6118ea81611cee565b82525050565b6118f981611cee565b82525050565b600060208201905061191460008301846117ce565b92915050565b6000602082019050818103600083015261193481846117dd565b905092915050565b60006020820190508181036000830152611956818461183b565b905092915050565b6000610120820190508181036000830152611979818c61183b565b9050818103602083015261198d818b6117dd565b905061199c604083018a6118f0565b6119a960608301896118f0565b6119b660808301886118f0565b6119c360a08301876118f0565b6119d060c0830186611899565b6119dd60e0830185611899565b6119eb6101008301846117ce565b9a9950505050505050505050565b6000602082019050611a0e6000830184611899565b92915050565b600060e0820190508181036000830152611a2e818a6118a8565b9050611a3d60208301896118f0565b611a4a60408301886118f0565b611a5760608301876117b0565b611a6460808301866118f0565b611a7160a08301856118f0565b611a7e60c0830184611899565b98975050505050505050565b6000602082019050611a9f60008301846118f0565b92915050565b6000611aaf611ac0565b9050611abb8282611d6c565b919050565b6000604051905090565b600067ffffffffffffffff821115611ae557611ae4611e73565b5b611aee82611ea2565b9050602081019050919050565b6000819050602082019050919050565b6000819050602082019050919050565b600081519050919050565b600081519050919050565b600081519050919050565b6000602082019050919050565b6000602082019050919050565b600082825260208201905092915050565b600082825260208201905092915050565b600082825260208201905092915050565b6000611b9482611cee565b9150611b9f83611cee565b9250827fffffffffffffffffffffffffffffffffffffffffffffffffffffffffffffffff03821115611bd457611bd3611de6565b5b828201905092915050565b6000611bea82611cee565b9150611bf583611cee565b925082611c0557611c04611e15565b5b828204905092915050565b6000611c1b82611cee565b9150611c2683611cee565b9250817fffffffffffffffffffffffffffffffffffffffffffffffffffffffffffffffff0483118215151615611c5f57611c5e611de6565b5b828202905092915050565b6000611c7582611cee565b9150611c8083611cee565b925082821015611c9357611c92611de6565b5b828203905092915050565b6000611ca982611cce565b9050919050565b6000611cbb82611cce565b9050919050565b60008115159050919050565b600073ffffffffffffffffffffffffffffffffffffffff82169050919050565b6000819050919050565b82818337600083830152505050565b60005b83811015611d25578082015181840152602081019050611d0a565b83811115611d34576000848401525b50505050565b60006002820490506001821680611d5257607f821691505b60208210811415611d6657611d65611e44565b5b50919050565b611d7582611ea2565b810181811067ffffffffffffffff82111715611d9457611d93611e73565b5b80604052505050565b6000611da882611cee565b91507fffffffffffffffffffffffffffffffffffffffffffffffffffffffffffffffff821415611ddb57611dda611de6565b5b600182019050919050565b7f4e487b7100000000000000000000000000000000000000000000000000000000600052601160045260246000fd5b7f4e487b7100000000000000000000000000000000000000000000000000000000600052601260045260246000fd5b7f4e487b7100000000000000000000000000000000000000000000000000000000600052602260045260246000fd5b7f4e487b7100000000000000000000000000000000000000000000000000000000600052604160045260246000fd5b6000601f19601f8301169050919050565b611ebc81611c9e565b8114611ec757600080fd5b50565b611ed381611cb0565b8114611ede57600080fd5b50565b611eea81611cc2565b8114611ef557600080fd5b50565b611f0181611cee565b8114611f0c57600080fd5b5056fea264697066735822122007198d3e585d7c3a6a1925bef69080defcc51fb0d847774eec63253e2d78602a64736f6c63430008010033a2646970667358221220388c0bd7650f2553cbd3cc3a468ed8d78c5a4a4584454520b32d6a594d4c899664736f6c63430008010033",
  "immutableReferences": {},
  "source": "// SPDX-License-Identifier: MIT\r\npragma solidity ^0.8.1;\r\nimport \"./Crop.sol\";\r\n\r\ncontract RequestFactory{\r\n\t// ==== Fields ====\r\n\taddress[] public deployedRequests;\r\n\r\n\t// ==== Modifier ====\r\n\t// ==== create a new contract ====\r\n\tfunction createNewRequest() public {\r\n    \taddress newRequest = address(new Crop(msg.sender));\r\n    \tdeployedRequests.push(newRequest);\r\n\t}\r\n\r\n\tfunction getDeployedRequests() public view returns (address[] memory){\r\n    \treturn deployedRequests;\r\n\t}\r\n\r\n}\r\n\r\n",
  "sourcePath": "C:/Users/addzy/FarmFund/contracts/RequestFactory.sol",
  "compiler": {
    "name": "solc",
    "version": "0.8.1+commit.df193b15.Emscripten.clang"
  },
  "schemaVersion": "3.4.1",
  "updatedAt": "2021-06-08T16:56:47.483Z",
  "devdoc": {
    "kind": "dev",
    "methods": {},
    "version": 1
  },
  "userdoc": {
    "kind": "user",
    "methods": {},
    "version": 1
  }
}